:020000040800F2
:10000000C80A0020851700087D0400087F04000846
:1000100083040008870400088B0400080000000027
:100020000000000000000000000000008F04000835
:1000300091040008000000009304000895040008E3
:100040009F1700089F1700089F1700089F170008B8
:100050009F1700089F1700089F1700089F170008A8
:100060009F1700089F1700089F1700089F17000898
:100070009F1700089F1700089F1700089F17000888
:100080009F1700089F1700089F1700089F17000878
:10009000930800089F1700089F1700089F17000883
:1000A0009F1700089F1700089F17000801130008FA
:1000B0005B0F0008130D00089F1700089F1700082A
:1000C0009F1700089F1700089F1700089F17000838
:1000D0009F170008191600089F1700083917000815
:1000E0009F1700089F1700089F1700089F17000818
:1000F0009F1700089F1700089F1700089F17000808
:100100009F1700089F1700089F1700089F170008F7
:100110009F1700089F1700089F1700089F170008E7
:100120009F1700089F1700089F1700089F170008D7
:1001300000F002F800F03FF80AA090E8000C8244BA
:100140008344AAF10107DA4501D100F034F8AFF297
:10015000090EBAE80F0013F0010F18BFFB1A43F0A5
:1001600001031847F042000010430000103A24BF7A
:1001700078C878C1FAD8520724BF30C830C144BF0C
:1001800004680C607047000000230024002500264E
:10019000103A28BF78C1FBD8520728BF30C148BFEA
:1001A0000B607047642903F04585002070471FB538
:1001B0001FBD10B510BD03F005FE1146FFF7F7FF98
:1001C00000F008F803F023FE03B4FFF7F2FF03BCCE
:1001D00001F0C8F908B501F05BF900F04DFA00F044
:1001E00071FA4FF4A06001F0EDFA4FF4FA3001F02B
:1001F000C7F94FF4165001F04CFA41F61F4109209F
:1002000000F05AFD47214FF6FF7000F021FE00215B
:100210004FF6FF7001F020F8002004230222194657
:10022000009000F0BBFA00F0F2FC00F015FD01F0C8
:1002300007F9F0E07848007800F08000C0B1764817
:10024000007800F03F007549086008460088000407
:100250000860084600687249098808446F490860C8
:10026000084601686FA003F0A5FC00206A490870E9
:100270006F48007800F08000C0B16D48007800F051
:100280003F006C4908600846008800040860084682
:100290000068694909880844664908600846016899
:1002A00066A003F087FC002061490870664800786A
:1002B00000F08000C0B16448007800F03F0063495E
:1002C0000860084600880004086008460068604925
:1002D000098808445D490860084601685DA003F08C
:1002E00069FC0020584908705D48007800F08000E3
:1002F000C0B15B48007800F03F005A4908600846EA
:1003000000880004086008460068574909880844C6
:10031000544908600846016854A003F04BFC0020D3
:100320004F4908703D480068B0F5966F10D93B48BA
:100330000068B0F5E16F0BD23E48006840F26C7186
:10034000884205D94C48B0F9000000F047FB62E054
:1003500032480068B0F5966F0AD936480068B0F5A3
:100360007A7F05D24448B0F9000000F04FFB52E01C
:100370002A480068B0F57A7F11D22E48006840F212
:10038000465188420BD92B48006840F2DC51884224
:1003900005D23948B0F9000000F050FB3BE01F489F
:1003A000006840F26C71884211D92248006840F21E
:1003B000465188420BD91F48006840F2DC51884200
:1003C00005D22D48B0F9000000F050FB23E013489F
:1003D000006840F24C4188420BD21648006840F257
:1003E0006C71884205D92448B0F9000000F076FB12
:1003F00011E00A48006840F26C71884209D90D4842
:100400000068884205D91C48B0F9000000F04EFB96
:1004100001E000F043FB0DE74C0000200400002049
:10042000500000206368313A25642075730D0A007E
:100430005400002008000020580000206368323A71
:1004400025642075730D0A005C0000200C0000205C
:10045000600000206368333A25642075730D0A003C
:100460006400002010000020680000206368343A17
:1004700025642075730D0A0032000020704700BF0C
:10048000FEE700BFFEE700BFFEE700BFFEE77047E4
:1004900070477047704700000CB500200190009035
:1004A0006C48006840F480306A49086000BF6948C1
:1004B000006800F4003000900198401C0190009802
:1004C00018B90198B0F5A06FF1D16248006800F446
:1004D000003010B10120009001E000200090009851
:1004E000012843D15C48006840F010005A49086078
:1004F0000846006820F0030008600846006840F0E5
:100500000200086053484068524948600846406805
:1005100048600846406840F480604860084640688B
:1005200020F47C1048600846406840F4E8104860B9
:100530000846006840F08070086000BF45480068C9
:1005400000F000700028F9D04248406820F0030015
:10055000404948600846406840F00200486000BFDB
:100560003C48406800F00C000828F9D10CBD10B5DB
:10057000FFF792FF10BD10B53648006840F001004B
:1005800034490860084640683449084031494860A9
:1005900008460068324908402E490860084600684D
:1005A00020F4802008600846406820F4FE0048607F
:1005B0004FF41F008860FFF7DAFF4FF00060294911
:1005C000086010BD10B5002100200022214B5B689F
:1005D00003F00C0121B1042906D0082928D107E035
:1005E000214B224C236027E01F4B204C236023E04B
:1005F000184B5B6803F47010164B5B6803F4803291
:10060000022303EB904022B9194B4343174C23605C
:100610000DE0104B5B6803F4003323B1144B4343EC
:10062000124C236003E0104B4343104C236003E063
:100630000D4B0E4C236000BF00BF064B5B68C3F33D
:1006400003130C4CE15C094B1B68CB40074C236047
:1006500010BD000000100240002002400000FFF822
:10066000FFFFF6FE08ED00E000127A001C000020FB
:1006700000093D002000002008B50121482001F0BC
:100680002BFC2020ADF8000010208DF80300032083
:100690008DF802006946094801F062F920210748F7
:1006A00001F00BFA2020ADF800006946044801F083
:1006B00057F92021024801F000FA08BD000C014062
:1006C0000018014008B50121442001F005FC182064
:1006D000ADF8000048208DF8030069462C4801F071
:1006E0003FF90120ADF8000028208DF8030069468D
:1006F000284801F035F908BD10B5044614B10120B1
:10070000254908702448007858B31021204801F08A
:10071000BAF950B108211E4801F0B5F928B10121FC
:100720001C4801F0B0F901281BD10A2000F0EDFEB1
:100730000020194908701021154801F0A4F908B9E2
:10074000012010BD0821124801F09DF908B90220CE
:10075000F7E701210F4801F096F9012815D1032090
:10076000EFE710210A4801F08EF901280DD1082188
:10077000074801F088F9012807D10121054801F057
:1007800082F910B90120044908700020D9E700005F
:100790000018014000080140300000202DE9F04120
:1007A0008AB004460D4616461F46DDF840800121FA
:1007B000052001F091FB0121480601F09AFB4FF45E
:1007C0008050ADF8240003208DF8260018208DF805
:1007D000270009A9384801F0C3F84FF40060ADF8CC
:1007E000240003208DF8260048208DF8270009A951
:1007F000314801F0B5F8314801F0D2FB00208DF806
:100800001E008DF81F008DF820008DF821008DF856
:1008100022008DF823008DF81A808DF81B408DF88A
:100820001C508DF81D60ADF8187006A9234801F022
:10083000D0FB00208DF812008DF8130001208DF8F8
:1008400014000020ADF80800ADF80A00ADF80C0067
:10085000ADF80E00ADF8100001208DF8150002A8CB
:1008600001F041FC01220221144801F03BFF142059
:100870008DF8040000208DF8050001208DF8060099
:100880008DF8070001A800F0A2FF00200AB0BDE823
:10089000F08110B586B0002401AA0021074801F0BC
:1008A00006FE0198401EC4B2054901EBC40001A92F
:1008B00000F07FF806B010BD000801400064004061
:1008C000940000202DE9F04385B004460D461646FD
:1008D0001F464FF000084FF40070009000208DF884
:1008E00008008DF8090008208DF80A00A24884420B
:1008F00000DC05E042F21070844200DB00E020469C
:1009000004469D48854200DC05E042F210708542B5
:1009100000DB00E0284605469748864200DC05E0FB
:1009200042F21070864200DB00E0304606469248F4
:10093000874200DC05E042F21070874200DB00E0F5
:1009400038460746200A8DF80B00E1B28DF80C10EE
:10095000290A8DF80D10E9B28DF80E10310A8DF8C4
:100960000F10F1B28DF81010390A8DF81110F9B28C
:100970008DF812106946814801F0A4FC81464FF0C1
:10098000000803E008F101001FFA80F849467B489F
:1009900001F030FD18B940F6FF708045F2DB40F6FB
:1009A000FF70804503DB012005B0BDE8F083002027
:1009B000FAE70A7BCB7A42EA032212B202808B7BEF
:1009C0004A7B43EA022212B242800B7CCA7B43EA92
:1009D000022212B282804A7C8271704710B50446AE
:1009E000604203F06DFB66490860604203F068FBFB
:1009F00063498863204603F063FB6149086720462A
:100A000003F05EFB5E49C1F8A80010BD10B50446B6
:100A1000204603F055FB5A490860204603F050FB7E
:100A200057498863604203F04BFB554908676042B1
:100A300003F046FB5249C1F8A80010BD10B50446AA
:100A4000204603F03DFB4E490860604203F038FB4E
:100A50004B498863204603F033FB494908676042ED
:100A600003F02EFB4649C1F8A80010BD10B504469E
:100A7000604203F025FB42490860204603F020FB5A
:100A80003F498863604203F01BFB3D4908672046ED
:100A900003F016FB3A49C1F8A80010BD0020384900
:100AA000086088630867C1F8A800704710B504465D
:100AB000204603F005FB32490860204603F000FBA6
:100AC0002F498863204603F0FBFA2D49086720462A
:100AD00003F0F6FA2A49C1F8A80010BD10B5044683
:100AE000604203F0EDFA26490860604203F0E8FA3C
:100AF00023498863604203F0E3FA214908676042B2
:100B000003F0DEFA1E49C1F8A80010BD10B51D485B
:100B1000007808282CD2DFE800F02B040A10161CFD
:100B20001F251948B0F90000FFF758FF21E01648CB
:100B3000B0F90000FFF76AFF1BE01348B0F90000AE
:100B4000FFF77CFF15E01048B0F90000FFF78EFFBB
:100B50000FE0FFF7A3FF0CE00B48B0F90000FFF730
:100B6000A5FF06E00848B0F90000FFF7B7FF00E076
:100B700000BF00BF10BD0000F0D8FFFF00640040C0
:100B8000B4000020350000203200002070B504467B
:100B90000D462560D4E9000103F0E6FBE061D4E9ED
:100BA000061003F0E1FB6062D4E9071003F03CF9A2
:100BB0002062E069A061A16A206A03F099FB02D873
:100BC000A06A20620BE0A06A80F000463046216AED
:100BD00003F08EFB03D8A06A80F000402062E16938
:100BE000E06803F0B9FAE062216A206903F0B4FA20
:100BF0002063616A606903F0AFFA6063D4E90B01B6
:100C000003F012F90646616B03F00EF970BD002087
:100C10001FE00021C0EBC002224B43F832102249F2
:100C2000C0EBC00203EBC202D1602049C0EBC0029E
:100C300003EBC20211610021C0EBC00203EBC20250
:100C400051611B49C0EBC00203EBC2029162411C1F
:100C5000C8B20428DDDB704700201FE00021C0EB94
:100C6000C002144B43F832104FF07E51C0EBC0026B
:100C700003EBC202D1600021C0EBC00203EBC20251
:100C80001161C0EBC00203EBC20251610849C0EB25
:100C9000C00203EBC2029162411CC8B20428DDDB32
:100CA00070470000B400002000005041CDCCCC3D86
:100CB0000000C842940100207FB505460C46012182
:100CC000022001F016F9ADF80850ADF804400020FC
:100CD000ADF80A00ADF8060001A9524802F030F95B
:100CE000012211464F4802F0A2FC1D208DF80000A1
:100CF00000208DF8010003208DF8020001208DF8FE
:100D00000300684600F063FD0121464802F074FCD0
:100D10007FBD2DE9F0410121424802F036FF002855
:100D20007DD001213F4802F041FF3F49B1F9080061
:100D300003F0C6F9054629463C4800F045FB3C490E
:100D400008603C4801683A48006803F00DFB07461C
:100D50004FF08C4103F0D6F80646374903F0FCF912
:100D600005464FF07E5103F0CDF834490860304815
:100D7000006830490860002444E02B4901EBC401BD
:100D8000B1F9020003F09CF9C4EBC4012C4A02EB58
:100D9000C1014860C4EBC402294B53F83210C4EBC4
:100DA000C40203EBC200FFF7F1FE0646254903F03B
:100DB0009FF901D823481CE0C4EBC402204B53F830
:100DC0003210C4EBC40203EBC200FFF7DFFE06469D
:100DD0001D4903F08DFA01D81B480AE0C4EBC40298
:100DE000174B53F83210C4EBC40203EBC200FFF7F9
:100DF000CDFE054603F048F900B2144921F814006D
:100E0000601C04B2042CB8DB104DB5F90630B5F9FE
:100E10000420B5F90210B5F90000FFF753FDBDE855
:100E2000F081000000040040940000209C0200209B
:100E300040000020440000200000B443480000208F
:100E4000B400002000007AC600007A463800002076
:100E500030B585B005460C460121084601F049F839
:100E60000121042001F038F80F20ADF810002820EF
:100E70008DF8130004A9EE4800F072FD0121EC4842
:100E800000F01DFE0221EA4800F019FE0421E848A6
:100E900000F015FE0821E64800F011FEADF80850FC
:100EA000ADF804400020ADF80A00ADF8060001A935
:100EB0004FF0804002F044F80020DE49088048806E
:100EC000012088800020C88008814FF0804002F017
:100ED000CAFA0420D7490880002048800120888071
:100EE0000020C88008814FF0804002F0BCFA082042
:100EF000D049088000204880012088800020C880D8
:100F000008814FF0804002F0AEFA0C20C9490880F9
:100F100000204880012088800020C88008814FF090
:100F2000804002F0A0FA1C208DF8000002208DF80D
:100F3000010000208DF8020001208DF803006846B2
:100F400000F045FC01221F21900702F070FB0121F7
:100F5000880702F051FB05B030BD10B5B6480078E7
:100F600000F0800000284FD10121880702F00DFE1B
:100F7000D0B1B148007800F04000A8B1AE48007888
:100F800000F03F003F280AD1AB48007840F08000D5
:100F9000A94908704FF6FF70A849086004E0A64808
:100FA0000078401CA44908700221480702F0EDFDBA
:100FB00050B3A148007800F0400088B19E48007806
:100FC00040F080009C4908704FF0804002F0BEFD68
:100FD0009A49086000214FF0804002F0BFFC13E006
:100FE0000020954908709549086000214FF0804025
:100FF00002F096FD9048007840F040008E4908705D
:101000000221480702F0AAFC03214FF0804002F0C1
:10101000CDFD8B48007800F0800000284FD10121E1
:10102000880702F0B2FDD0B18548007800F040009A
:10103000A8B18348007800F03F003F280AD18048DB
:10104000007840F080007E4908704FF6FF707D49BF
:10105000086004E07A480078401C7949087004214F
:10106000080702F092FD50B37548007800F0400088
:1010700088B17348007840F08000714908704FF0E3
:10108000804002F066FD6F49086000214FF080400B
:1010900002F076FC13E00020694908706949086095
:1010A00000214FF0804002F03BFD6548007840F0A1
:1010B0004000634908700221480702F061FC0521E5
:1010C000880702F073FD6048007800F08000002877
:1010D0004FD10121880702F058FDD0B15A4800785D
:1010E00000F04000A8B15848007800F03F003F28C9
:1010F0000AD15548007840F08000534908704FF6F7
:10110000FF705249086004E04F480078401C4E4987
:1011100008700821C80602F038FD50B34A4800782C
:1011200000F0400088B14848007840F0800046490F
:1011300008704FF0804002F00FFD44490860002124
:101140004FF0804002F036FC13E000203E4908706A
:101150003E49086000214FF0804002F0E1FC3A482F
:10116000007840F04000384908700221480702F03A
:1011700021FC0921880702F019FD3548007800F0AC
:101180008000D0BB0121880702F0FFFCD0B13048BD
:10119000007800F04000A8B12D48007800F03F0032
:1011A0003F280AD12A48007840F08000284908707A
:1011B0004FF6FF702749086004E025480078401C7E
:1011C000234908701021880602F0DFFCA8B12048EE
:1011D000007800F0400088B11D48007840F08000A1
:1011E0001B4908704FF0804002F0B9FC19490860B3
:1011F00000214FF0804002F0F7FB13E0002014497B
:1012000008701449086000214FF0804002F088FC0B
:101210000F48007840F040000D490870022148074F
:1012200002F0E2FB1121880702F0C0FC10BD0000B3
:1012300000080140740200204C00002050000020F3
:1012400054000020580000205C00002060000020B6
:10125000640000206800002030B585B005460C46CB
:101260000121C80200F038FE0121402000F034FEC8
:101270004FF41060ADF8100028208DF8130004A979
:101280004C4800F06DFB4FF480714A4800F017FCA9
:101290004FF40061474800F012FCADF80850ADF87B
:1012A00004400020ADF80A00ADF8060001A942484C
:1012B00001F046FE002041490880488001208880D6
:1012C0000020C88008813C4802F0CDF81B208DF832
:1012D000000002208DF8010000208DF8020001209E
:1012E0008DF80300684600F072FA012203213248AB
:1012F00002F09DF90121304802F07EF905B030BDC1
:1013000010B52F48007800F0800000284CD1012152
:10131000294802F03AFCD0B12948007800F040009A
:10132000A8B12748007800F03F003F280AD12448A0
:10133000007840F08000224908704FF6FF70214984
:10134000088004E01E480078401C1D4908700221F6
:10135000194802F01AFC38B31948007800F0400030
:1013600078B11748007840F080001549087012489D
:1013700002F0ECFB1349088000210F4802F0EEFA5E
:1013800012E000200E4908700E49088000210A482A
:1013900002F0C6FB0A48007840F040000849087097
:1013A0000221054802F0DAFA0321034802F0FEFBAD
:1013B00010BD000000080140002C01407E0200200A
:1013C0006C0000206E00002070B504460D46E560FC
:1013D000D4E9021002F0C8FF2061E068A06028484C
:1013E000616802F0B9FE0646216902F081FE0AD268
:1013F0006168206902F0B8FF20614FF07E512068DB
:1014000002F012FD20601F48616802F0A5FE06464A
:10141000216902F06DFF0AD26168206902F004FDC3
:1014200020614FF07E51206802F09EFF2060D4E9D9
:10143000000102F091FE0646E16802F08AFF70BDED
:1014400010B5002419E0002004EB84010E4A42F894
:1014500021004FF08C4004EB840102EB81014860D5
:101460000A4931F9340002F02BFE04EB8401064AEC
:1014700002EB81018860601C04B2042CE3DB10BD28
:101480003333333F333333BF8802002094000020CE
:1014900010B56FF0040000F0E4F92E4800682E4902
:1014A000B0FBF1F02D4908700846007800EB4001D0
:1014B000C1EBC0104FF6FF7101EAC0002849088057
:1014C00010BD0146254A12784A434FF0E0235A6185
:1014D00000229A611A46126942F001021A6100BFA5
:1014E0004FF0E022106900F001021AB100F48032DE
:1014F000002AF5D04FF0E022126922F001024FF0ED
:10150000E0231A6100229A6170470146144A12884A
:101510004A434FF0E0235A6100229A611A46126949
:1015200042F001021A6100BF4FF0E022106900F0A2
:1015300001021AB100F48032002AF5D04FF0E02207
:10154000126922F001024FF0E0231A6100229A6131
:10155000704700001C00002000127A007400002078
:101560007600002000BF704700BF7F4A128802F05B
:101570004002002AF9D0C2B27B4B1B1D1A80704773
:1015800010B586B00446012144F2040000F0A4FC2A
:101590004FF40070ADF8140003208DF816001820E9
:1015A0008DF8170005A9714800F0DAF94FF4806052
:1015B000ADF8140004208DF8170005A96B4800F061
:1015C000CFF925208DF8000000208DF801008DF85E
:1015D000020001208DF80300684600F0F8F801943D
:1015E0000020ADF80800ADF80A00ADF80C00ADF829
:1015F00010000C20ADF80E0001A95B4801F00BFAB9
:10160000012240F22551584801F09DFA0121564827
:1016100001F08DFA06B010BD10B540F225515248C8
:1016200001F076FB10B3504801F0F2FAC4B2504812
:10163000008800F40040C8B94D48008800F480409C
:1016400060B10A2C03D000204949088020E04848B6
:10165000008840F400404649088019E00D2C06D16E
:101660004348008840F480404149088010E04048E9
:101670000088C0F30D003F490C543D480088401CD1
:101680003B49088008460088C72801DD0020088003
:1016900010BD10B586B004460121082000F01CFCE6
:1016A0000121880400F025FC4FF40060ADF814001F
:1016B00004208DF8170005A92F4800F051F94FF4C8
:1016C0008060ADF8140003208DF8160018208DF806
:1016D000170005A9284800F043F94FF4E06000F036
:1016E00071F827208DF8000003208DF801008DF897
:1016F000020001208DF80300684600F068F80194AC
:101700000020ADF80800ADF80A00ADF80C00ADF807
:1017100010000C20ADF80E0001A9184801F07BF96B
:10172000012240F22551154801F00DFA012113481C
:1017300001F0FDF906B010BD10B540F225510F487B
:1017400001F0E6FA78B140F225510C4801F0E0FAD8
:1017500020B10A4801F05CFA09490870084801788C
:10176000064801F051FA10BD003801400008014060
:101770007C000020D8020020000C014000480040FE
:10178000340000200948804709480047FEE7FEE78B
:10179000FEE7FEE7FEE7FEE7FEE7FEE7FEE7FEE721
:1017A00004480549054A064B7047000077050008C4
:1017B00031010008C8040020C80A0020C806002023
:1017C000C806002031490143314A1160704770B5A5
:1017D000002100230F22C47804B32D4C246804F4A4
:1017E000E064C4F5E064210AC1F10403CA4044780E
:1017F00004FA03F18478144021430901254C06784A
:10180000A155047804F01F050124AC4005786D1142
:10181000AD0005F1E025C5F8004109E0047804F0C9
:101820001F050124AC401C4D0678761145F8264072
:1018300070BD1A4A0A400243154B1B1F1A607047BD
:1018400039B1134A121D12680243114B1B1D1A6055
:1018500006E00F4A121D126882430D4B1B1D1A60D1
:101860007047042808D14FF0E021096941F00401D4
:101870004FF0E022116107E04FF0E021096921F00B
:1018800004014FF0E0221161704700000000FA05EA
:101890000CED00E000E400E080E100E080FFFF1FCD
:1018A00010B50446CC48844208D10121042000F040
:1018B0002DFB0021042000F029FB46E0C7488442AC
:1018C00008D10121082000F021FB0021082000F0B0
:1018D0001DFB3AE0C248844208D10121102000F0EB
:1018E00015FB0021102000F011FB2EE0BD488442C2
:1018F00008D10121202000F009FB0021202000F068
:1019000005FB22E0B848844208D10121402000F0C4
:10191000FDFA0021402000F0F9FA16E0B3488442B5
:1019200008D10121802000F0F1FA0021802000F090
:10193000EDFA0AE0AE48844207D10121801500F09B
:10194000E5FA0021A01500F0E1FA10BD10B5012163
:10195000084600F0DBFA0021012000F0D7FA10BDA4
:101960002DE9F04102460025002600200023002436
:10197000002791F803C00CF00F0591F803C00CF09C
:10198000100CBCF1000F03D091F802C04CEA050521
:1019900091F800C0BCF1000F31D0146800202BE09A
:1019A0004FF0010C0CFA00F3B1F800C00CEA03068A
:1019B0009E4220D183004FF00F0C0CFA03F7BC437A
:1019C00005FA03FC4CEA040491F803C0BCF1280FAB
:1019D00006D14FF0010C0CFA00FCC2F814C00AE06A
:1019E00091F803C0BCF1480F05D14FF0010C0CFA7F
:1019F00000FCC2F810C0401C0828D1D31460B1F814
:101A000000C0BCF1FF0F34DD546800202EE000F16F
:101A1000080C4FF0010808FA0CF3B1F800C00CEA0A
:101A200003069E4221D183004FF00F0C0CFA03F7FE
:101A3000BC4305FA03FC4CEA040491F803C0BCF172
:101A4000280F05D100F1080C08FA0CF8C2F8148030
:101A500091F803C0BCF1480F07D100F1080C4FF01A
:101A6000010808FA0CF8C2F81080401C0828CED3F0
:101A70005460BDE8F0814FF6FF7101800221817052
:101A80000421C17070470246002093680B400BB1DF
:101A9000012000E0002070470146886880B270474E
:101AA00002460020D3680B400BB1012000E000206B
:101AB00070470146C86880B2704701617047416154
:101AC00070470AB1016100E041617047C160704731
:101AD0004FF480320A438261816182618269826946
:101AE000704702460020434B18684FF68073184039
:101AF00040EA021008433F4B186070473E49C861F6
:101B00007047F0B50A46002300240021002500F0AC
:101B10000046B6F1004F02D1364EF16901E0354E74
:101B20007168C0F3034583B200F44016B6F5401F58
:101B300008D121F070612F4E766826F070662D4F27
:101B40007E6012E000F48016B6F5801F06D10326F1
:101B500006FA05F4A14341F0706106E0460D360136
:101B600003FA06F6B14341F0706122B1460D360129
:101B700003FA06F6314300F00046B6F1004F02D1F9
:101B80001C4EF16101E01B4E7160F0BD30B50022CA
:101B90008B071C0F0F2303FA04F2164B08338C102B
:101BA00053F824309343134C08348D1044F82530F7
:101BB00023468C1053F824308C07240F00FA04F4C9
:101BC00023430C4C08348D1044F8253030BD0A49AD
:101BD000DC3108607047000000080140000C014043
:101BE000001001400014014000180140001C014099
:101BF000002001400000014000002042DF48006852
:101C000040F00100DD49086008464068DC490840B2
:101C1000DA49486008460068DA490840D749086050
:101C20000846006820F4802008600846406820F4D8
:101C3000FE0048604FF41F0088607047CF49096874
:101C400021F48031CD4A11601146096821F48021C8
:101C50001160B0F5803F03D0B0F5802F0ED106E0C3
:101C6000C649096841F48031C44A116007E0C3499C
:101C7000096841F4A021C14A116000E000BF00BF23
:101C8000704710B501460022002300204A11012AA6
:101C900002D1BA4C236806E0022A02D1B74C236A6B
:101CA00001E0B64C636A01F01F02012494401C401D
:101CB0000CB1012000E0002010BD38B500200090DC
:101CC0000024002500BF3120FFF7DBFF0546009808
:101CD000401C00900098B0F5A06F01D0002DF2D00C
:101CE0003120FFF7CEFF08B1012400E00024204698
:101CF00038BD01460020A14A106820F0F80040EAF3
:101D0000C10010607047A04908607047024600207B
:101D10009A4B586820F47C1042EA01031843974B11
:101D20005860704798490866704701460020934AFA
:101D3000506820F003000843506070478F484068A7
:101D400000F00C007047014600208C4A506820F0DB
:101D5000F00008435060704701460020874A5068F1
:101D600020F4E06008435060704701460020834A39
:101D7000506820F4605040EAC1005060704729B1BB
:101D80007E4A527A02437D4B5A7204E07B4A527A71
:101D900082437A4B5A7270477B49D831086070474A
:101DA00001460020754A506820F4404008435060C6
:101DB00070470021714A20321170704A82F8201059
:101DC000012802D004280AD104E001216B4A203204
:101DD000117005E00521694A2032117000E000BF52
:101DE00000BF70476949086070476449096A014348
:101DF000624A11627047654944390860704730B5DE
:101E000000210022002400235C4D6D6805F00C01C8
:101E100021B1042905D0082923D105E05C4D0560D6
:101E200022E05B4D05601FE0544D6D6805F47012B3
:101E3000524D6D6805F48034022505EB92421CB9C1
:101E4000544D554305600BE04C4D6D6805F400356D
:101E50001DB1504D5543056002E04D4D55430560A1
:101E600002E04B4D056000BF00BF444D6D6805F0BA
:101E7000F0010909484D6B5C0568DD4045603F4D48
:101E80006D6805F4E061090A434D6B5C4568DD400F
:101E900085603A4D6D6805F46051C90A3E4D6B5C32
:101EA0004568DD40C560354D6D6805F44041890BDE
:101EB0003A4D6B5CC568B5FBF3F5056130BD29B1E2
:101EC0002E4A526902432D4B5A6104E02B4A526953
:101ED00082432A4B5A61704729B1284A92690243CA
:101EE000264B9A6104E0254A92698243234B9A610A
:101EF000704729B1214AD2690243204BDA6104E0DC
:101F00001E4AD26982431D4BDA61704729B11B4AD0
:101F1000D2680243194BDA6004E0184AD26882435F
:101F2000164BDA60704729B1144A12690243134B09
:101F30001A6104E0114A12698243104B1A6170471A
:101F400012494039086070470F49C86470470B490F
:101F5000C87170470948406A40F08070074948627C
:101F6000704701460020054A92680A400AB10120E4
:101F700000E000207047014988727047001002405D
:101F80000000FFF8FFFFF6FE0000424280044242DC
:101F900000127A0000093D0080000020900000201F
:101FA00010B50446FE48844209D101214806FFF7D6
:101FB000BAFF00214FF00070FFF7B5FF08E00121E4
:101FC0008806FFF7B0FF00214FF08060FFF7ABFFFE
:101FD00010BD30B5024600200023146824F002042E
:101FE0001460146844F00104146000E05B1C546841
:101FF00004F001041CB94FF6FF74A342F6D15468F3
:1020000004F001040CB900206CE08C79012C04D19F
:10201000146844F08004146003E0146824F0800421
:102020001460CC79012C04D1146844F0400414608D
:1020300003E0146824F0400414600C7A012C04D1ED
:10204000146844F02004146003E0146824F02004B1
:1020500014604C7A012C04D1146844F0100414600C
:1020600003E0146824F0100414608C7A012C04D16D
:10207000146844F00804146003E0146824F00804B1
:102080001460CC7A012C04D1146844F00404146068
:1020900003E0146824F0040414608C78A407CD785D
:1020A00044EA05640D7944EA05444D7944EA05544F
:1020B0000D886D1E2C43D461146824F00104146053
:1020C000002300E05B1C546804F001041CB14FF6CF
:1020D000FF74A342F6D1546804F001040CB100204F
:1020E00000E0012030BD10B50021837A012202FA00
:1020F00003F1AC4A126842F00102AA4B1A60A94AE5
:102100001C3212688A43A74B1C331A60027BCAB97F
:10211000A44A0C3212688A43A24B0C331A604288DC
:10212000C38842EA03439F4A4032847A42F83430FB
:102130000288838842EA03439A4A4032847A02EB57
:10214000C4025360027B012A19D1964A0C321268EC
:102150000A43944B0C331A604288038842EA0343D3
:10216000904A4032847A42F83430C288838842EA06
:1021700003438C4A4032847A02EBC4025360C27A31
:102180003AB9884A121D12688A43864B1B1D1A6091
:1021900006E0844A121D12680A43824B1B1D1A6016
:1021A000028932B97F4A143212688A437D4B143354
:1021B0001A600289012A06D17A4A143212680A4347
:1021C000784B14331A60427B012A06D1754A1C32BF
:1021D00012680A43734B1C331A60724A126822F069
:1021E0000102704B1A6010BD00218171C171017232
:1021F00041728172C1728170C1700321017102212B
:1022000041710121018070476649096841F001016F
:10221000644A11601146096843F60E729143614A9F
:1022200011601146096841EA0021116011460968F0
:1022300021F001011160704721B1026842F480323F
:10224000026003E0026822F4803202607047E1B16C
:10225000026842F0800202604FF4C272125842F4E7
:1022600080734FF4C27213504FF4CA72125842F482
:1022700080734FF4CA7213504FF4D272125842F462
:1022800080734FF4D27213501BE0026822F0800278
:1022900002604FF4C272125822F480734FF4C2727B
:1022A00013504FF4CA72125822F480734FF4CA725A
:1022B00013504FF4D272125822F480734FF4D2723A
:1022C0001350704710B502460020936803F08063F6
:1022D000B3F1806F00D110E0936803F00063B3F1B5
:1022E000006F01D1012008E0936803F08053B3F13F
:1022F000805F01D1022000E00420042879D002F59B
:10230000C07303EB00131B6803F0010402F5C073F4
:1023100003EB00131C600B7A7BB94B7A0C8843EA01
:10232000445302F5C07404EB00142468234302F5FF
:10233000C07404EB0014236010E00B7A4C6843EA8D
:10234000C4034C7A234302F5C07404EB00142468E0
:10235000234302F5C07404EB001423608B7A03F06E
:102360000F038B7202F5C07303EB00135B6823F05D
:102370000F0402F5C07303EB00135C6002F5C07339
:1023800003EB00135B688C7A234302F5C07404EB03
:10239000001463608B7B1C064B7B44EA034403E020
:1023A00000640040006600400B7B44EA0323CC7AC3
:1023B000234302F5C07404EB0014A3608B7C1C065D
:1023C0004B7C44EA03440B7C44EA0323CC7B234349
:1023D00002F5C07404EB0014E36002F5C07303EB74
:1023E00000131B6843F0010402F5C07303EB0013F4
:1023F0001C6010BD10B50246002321B1012907D091
:1024000002290FD109E09068F94C00EA04030BE0BF
:102410009068F84C00EA040306E09068F64C00EA85
:10242000040301E0002300BF00BFF44C181BA342CB
:1024300016D007DC83B16FF08060184470B10228B9
:1024400018D111E0B0F5007F10D0ED4C204448B118
:10245000B0F5003F0ED10BE002230DE000230BE0AE
:10246000002309E0002307E0012305E0012303E046
:10247000012301E0002300BF00BFD8B210BD21B18D
:10248000012907D002290FD109E0826842F08002B9
:1024900082600AE0826842F40042826005E082685D
:1024A00042F40002826000E000BF00BF704710B538
:1024B00000F5D87303EB01131B6803F004031372D8
:1024C000137A53B900F5D87303EB01131B6840F27C
:1024D000FF7404EA5353136009E000F5D87303EB6B
:1024E00001131B686FF0604404EAD303536000F5E6
:1024F000D87303EB01131B6803F00203537200F55A
:10250000D87303EB01135B6803F00F03937200F5BC
:10251000D87303EB01135B681B0AD37400F5D873FF
:1025200003EB01139B68D37200F5D87303EB01131F
:102530009B681C0A147300F5D87303EB01139B68A6
:102540001C0C547300F5D87303EB01139B681B0E2E
:10255000937300F5D87303EB0113DB68D37300F5B5
:10256000D87303EB0113DB681C0A147400F5D873ED
:1025700003EB0113DB681C0C547400F5D87303EBF8
:102580000113DB681B0E937421B9C36843F0200369
:10259000C36003E0036943F02003036110BD21B968
:1025A000C26842F02002C26003E0026942F02002E9
:1025B000026170470246002019B9D36803F0030096
:1025C00006E0012903D1136903F0030000E00020B5
:1025D000704710B502460B4600204FF6FF71BBB99D
:1025E000146824F0020444F00104146000E0491E61
:1025F000546804F00304012C01D00029F7D1546879
:1026000004F00304012C01D0002032E0012030E06E
:10261000012B13D1146824F00304146000E0491E58
:10262000546804F003040CB10029F8D1546804F094
:1026300003040CB100201CE001201AE0022B17D18A
:10264000146824F0010444F00204146000E0491E00
:10265000546804F00304022C01D00029F7D1546817
:1026600004F00304022C01D0002002E0012000E06D
:10267000002010BD014600200A6822F0010242F04D
:1026800002020A604A6802F00302022A00D1012015
:10269000704701464FF6FF7200200B6823F00203DB
:1026A0000B6000E0521E4B6803F00203022B01D1C5
:1026B000002AF7D14B6803F00203022B00D001205F
:1026C0007047014600208A6902F070007047014699
:1026D00000208A69100E7047014600208A69C2F303
:1026E000074070471AB143690B43436102E04369F5
:1026F0008B434361704710B50246002001F470031C
:1027000043B19369C1F3130423400BB101202DE0C1
:1027100000202BE001F0807343B15368C1F3130430
:1027200023400BB1012021E000201FE001F00063F5
:1027300043B19368C1F3130423400BB1012015E0AA
:10274000002013E001F0007343B1D368C1F3130418
:1027500023400BB1012009E0002007E01369C1F319
:10276000130423400BB1012000E0002010BD002223
:10277000244B994202D10023836111E0C1F313027B
:1027800001F000730BB1C2600AE001F080630BB18D
:10279000026105E001F000630BB1826000E042607D
:1027A00070470246002002EA01030BB1012000E05D
:1027B0000020704770B504460D4600266069284029
:1027C000002872D0B5F5807F69D01DDC082D42D07D
:1027D00006DC012D2DD0022D31D0042D7FD134E027
:1027E000102D3ED0202D42D0402D78D145E0000064
:1027F00003000004000300080000031000010008AB
:102800000001FFF77000F030B5F5004F61D009DC32
:10281000B5F5007F4AD0B5F5806F4DD0B5F5006FA6
:102820005DD150E0B5F5803F2DD0B5F5003F56D1D4
:102830002FE0A0685549FFF7B4FF064651E0E06875
:102840000321FFF7AEFF06464BE0E0680821FFF7E3
:10285000A8FF064645E0E0681021FFF7A2FF064604
:102860003FE020690321FFF79CFF064639E020691D
:102870000821FFF796FF064633E020691021FFF795
:1028800090FF06462DE060680821FFF78AFF0646A4
:1028900027E060681021FFF784FF064621E0A06969
:1028A0000121FFF77EFF06461BE01BE0A069022125
:1028B000FFF777FF064614E0A0690421FFF771FFD8
:1028C00006460EE00BE0A0697021FFF76AFF06469E
:1028D00007E060680421FFF764FF064601E0002678
:1028E00000BF00E00026304670BDB1F5007F3AD051
:1028F0000FDC202928D006DC01291CD004291DD09A
:10290000082940D11DE0402921D0B1F5807F3AD17E
:1029100026E0B1F5004F31D006DCB1F5806F25D04F
:10292000B1F5006F2FD124E0B1F5803F12D0B1F5A1
:10293000003F28D111E0154A826025E00822C260DC
:1029400022E01022C2601FE0082202611CE0102277
:10295000026119E00822426016E01022426013E092
:102960000422426010E0042242600DE00422426032
:102970000AE0002282610422426005E000228261B6
:102980000422426000E000BF00BF70470101010067
:1029900010B50446FB48844209D101218803FFF7A2
:1029A000B5FA00214FF48040FFF7B0FA32E0F64864
:1029B000844209D101214804FFF7B5FA00214FF400
:1029C0000030FFF7B0FA25E0F048844209D1012138
:1029D0008804FFF7A8FA00214FF48020FFF7A3FA3C
:1029E00018E0EB48844209D10121C804FFF79BFAA3
:1029F00000214FF40020FFF796FA0BE0E5488442EF
:102A000008D101210805FFF78EFA00214FF480104C
:102A1000FFF789FA10BD2DE9F04786B005460E464E
:102A20000024A24600BFA1460027B08900B100BF24
:102A30002F462C8A4CF6FF700440F08804432C8209
:102A4000AC894EF6F3100440B0883189084371898F
:102A500008430443AC81AC8A4FF6FF400440B08980
:102A60000443AC8201A8FFF7CAF9C648874202D1E5
:102A7000DDF810A001E0DDF80CA0A88900F400400A
:102A800040B10AEBCA0000EB0A1031684900B0FB04
:102A9000F1F807E00AEBCA0000EB0A103168890080
:102AA000B0FBF1F86420B8FBF0F0040120096421C8
:102AB00001FB1089A88900F4004040B1322000EBEE
:102AC000C900B0FBF1F000F00700044308E0322039
:102AD00000EB09106421B0FBF1F000F00F0004439B
:102AE0002C8106B0BDE8F0874FF41651016000213B
:102AF0008180C18001810C21418100218181704749
:102B000010B502460020108A4FF2FF0318400B88D0
:102B10004C8823438C882343CC882343184310825A
:102B200010BD0021018041808180C180704721B1AA
:102B3000828942F40052828104E082894DF6FF735B
:102B40001A4082817047F0B5034600240026002514
:102B5000002040F66A17B94200D100BF1846C1F301
:102B6000421401F01F06012707FA06F5012C01D1D6
:102B70000C3004E0022C01D1103000E014301AB106
:102B800007682F43076002E00768AF430760F0BDA6
:102B90001AB1838A0B43838202E0838A8B43838248
:102BA0007047028A4FF6F0731A400282028A0A4383
:102BB0000282704782894FF2FF731A4082818289B4
:102BC0000A438281704721B1828942F002028281E8
:102BD00004E082894FF6FD731A4082817047028AB1
:102BE0004FF6DF731A400282028A0A43028270475C
:102BF00021B1028A42F48042028204E0028A4BF64A
:102C0000FF731A4002827047C1F308028280704746
:102C100001468888C0F308007047818941F00101AE
:102C200081817047028BD2B20283028B42EA012279
:102C300002837047028B02F47F420283028B0A43B5
:102C40000283704721B1828A42F02002828204E02E
:102C5000828A4FF6DF731A408282704721B1828ADE
:102C600042F01002828204E0828A4FF6EF731A402B
:102C70008282704721B1828A42F00802828204E097
:102C8000828A4FF6F7731A408282704721B1828997
:102C900042F40042828103E08289C2F30E02828103
:102CA000704721B1828A42F40062828204E0828A03
:102CB0004FF2FF731A4082827047828A4FF6FB738D
:102CC0001A408282828A0A438282704721B1828AB4
:102CD00042F00202828204E0828A4FF6FD731A40BB
:102CE0008282704702460020B1F5007F00D100BF0C
:102CF00013880B400BB1012000E00020704701F465
:102D00000072B2F5007F00D100BFCA430280704755
:102D100070B50246002400230025002040F66A1604
:102D2000B14200D100BFC1F3421501F01F030126DB
:102D300006FA03F3012D02D19689334006E0022DF5
:102D400002D1168A334001E0968A33400C120126E4
:102D500006FA04F41688344013B10CB1012000E0E7
:102D6000002070BD10B50022002340F66A14A14275
:102D700000D100BF0A1201249440A3B2DC430480B6
:102D800010BD0000003801400044004000480040F1
:102D9000004C00400050004010B50446FE488442FC
:102DA00008D10121C014FFF7B1F80021E014FFF7AA
:102DB000ADF8C4E0B4F1804F08D101210846FFF717
:102DC000B2F800210120FFF7AEF8B8E0F3488442E2
:102DD00008D101210220FFF7A6F800210220FFF709
:102DE000A2F8ACE0EE48844208D101210420FFF7AC
:102DF0009AF800210420FFF796F8A0E0E948844201
:102E000008D101210820FFF78EF800210820FFF7E4
:102E10008AF894E0E448844208D101211020FFF7A9
:102E200082F800211020FFF77EF888E0DF48844216
:102E300008D101212020FFF776F800212020FFF79C
:102E400072F87CE0DA48844208D101214014FFF78F
:102E50005DF800216014FFF759F870E0D54884420E
:102E600009D10121C804FFF751F800214FF40020D7
:102E7000FFF74CF863E0D048844209D101210805EE
:102E8000FFF744F800214FF48010FFF73FF856E0B9
:102E9000CA48844209D101214805FFF737F80021CB
:102EA0004FF40010FFF732F849E0C548844208D1DA
:102EB00001214020FFF737F800214020FFF733F8C9
:102EC0003DE0C048844208D101218020FFF72BF863
:102ED00000218020FFF727F831E0BB48844208D169
:102EE00001218015FFF71FF80021A015FFF71BF83F
:102EF00025E0B648844209D101210804FFF706F80D
:102F000000214FF48030FFF701F818E0B048844208
:102F100009D101214804FEF7F9FF00214FF40030E8
:102F2000FEF7F4FF0BE0AB48844208D1012188048E
:102F3000FEF7ECFF00214FF48020FEF7E7FF10BD05
:102F400000220288944B98420ED0994B98420BD0A5
:102F5000B0F1804F08D0914B984205D0904B9842E9
:102F600002D0904B984204D14FF68F731A404B8891
:102F70001A438D4B984207D08C4B984204D04FF6A1
:102F8000FF431A40CB881A4302808B8883850B88C5
:102F90000385814B98420BD0854B984208D08B4BD0
:102FA000984205D08A4B984202D08A4B984201D170
:102FB0000B7A038601238382704770B500240022B8
:102FC0000023058C4FF6FE7635400584028C8388FD
:102FD000048B4FF68F752C40B51E2C400D882C436A
:102FE000751E2A400D892A434D882A436A4DA842FE
:102FF0000BD06F4DA84208D0744DA84205D0744D37
:10300000A84202D0734DA84213D14FF6F7752A405B
:103010004D892A434FF6FB752A408D882A434FF687
:10302000FF652B404FF6FF552B408D892B43CD89F3
:103030002B4383800483CD888586028470BD70B560
:10304000002400220023058C4FF6EF7635400584DE
:10305000028C8388048B48F6FF752C404FF6FF45A1
:103060002C400D884FF6FF7606EA05252C434FF6D7
:10307000DF752A400D8906EA05152A434D8806EAC0
:1030800005152A43444DA84202D0494DA8421DD1FE
:103090004FF67F752A404D894FF6FF7606EA0515F3
:1030A0002A434FF6BF752A408D8806EA05152A4344
:1030B0004FF6FF352B404FF2FF752B408D8906EA06
:1030C00085052B43CD8906EA85052B438380048340
:1030D000CD880587028470BD70B5002400220023CE
:1030E000058C4FF6FF6635400584028C8388848BFF
:1030F0004FF68F752C404FF6FC752C400D882C43F5
:103100004FF6FF552A400D894FF6FF7606EA052552
:103110002A434D8806EA05252A431F4DA84202D0BE
:10312000234DA8421DD14FF2FF752A404D894FF61D
:10313000FF7606EA05252A434FF6FF352A408D889B
:1031400006EA05252A434EF6FF752B404DF6FF751E
:103150002B408D8906EA05152B43CD8906EA051516
:103160002B4383808483CD888587028470BD70B5AE
:10317000002200230024058C4EF6FF76354005849E
:10318000038C8488828B48F6FF752A404FF6FF45F2
:103190002A400D8820E00000002C0140000400407F
:1031A00000080040000C00400010004000140040E7
:1031B00000340140004C01400050014000540140E7
:1031C00000180040001C004000200040004001406A
:1031D00000440140004801404FF6FF7606EA05250D
:1031E0002A434DF6FF752B400D8906EA05352B4322
:1031F0004D8806EA05352B43FA4DA84202D0FA4D18
:10320000A84208D14BF6FF752C408D894FF6FF760A
:1032100006EA85152C4384808283CD88A0F840502F
:10322000038470BD828B4FF2FF331A408283828BFE
:103230004FF6FF7303EA01231A4382837047F0B508
:103240000C461546002200210026078C4EF6FF7C16
:1032500007EA0C070784828B018C4FF6FF7707EA99
:10326000043640F6FF473A404FF6FF7707EA052756
:103270003A434FF6FF7707EA03373A43D94FB8424C
:103280000ED0D94FB8420BD0B0F1804F08D0D74FF5
:10329000B84205D0D64FB84202D0D64FB84206D178
:1032A0004DF6FF77394046F48057394305E047F63D
:1032B000FF57394044F48057394382830184F0BD7D
:1032C000828B4FF6F3731A408283828B0A43828388
:1032D0007047F0B50C461546002200210026078CE9
:1032E0004FF6FF6C07EA0C070784828B018C4FF6C0
:1032F000FF7707EA04264FF60C773A404FF6FF7740
:1033000007EA03172F433A43B64FB8420ED0B64FE1
:10331000B8420BD0B0F1804F08D0B44FB84205D0BE
:10332000B34FB84202D0B34FB84206D14FF6FF5761
:10333000394046F48077394305E04FF2FF57394072
:1033400044F48077394382830184F0BD028B4FF2CD
:10335000FF331A400283028B4FF6FF7303EA012307
:103360001A4302837047F0B50C461546002200212F
:103370000026078C4FF6EF7C07EA0C070784028BC8
:10338000018C4FF6FF7707EA041640F6FF473A40F4
:103390004FF6FF7707EA03373A434FF6FF7707EA1E
:1033A00005273A438F4FB8420ED08F4FB8420BD00B
:1033B000B0F1804F08D08D4FB84205D08C4FB84245
:1033C00002D08C4FB84206D14FF6DF77394046F035
:1033D0001007394305E04FF65F77394044F0100796
:1033E000394302830184F0BD028B4FF6F3731A4018
:1033F0000283028B0A4302837047F0B50C461546E0
:1034000000220021068C4FF6FE773E400684028B98
:10341000018C4FF60C7632407E1C06EA03162E43D2
:103420003243704EB0420ED06F4EB0420BD0B0F16E
:10343000804F08D06D4EB04205D06D4EB04202D0E4
:103440006C4EB04206D14FF6FD76314044F0010695
:10345000314305E04FF6F576314044F00106314343
:1034600002830184F0BD70B505460C465D48854277
:103470000ED05D4885420BD0B5F1804F08D05B4837
:10348000854205D05A48854202D05A48854200D12B
:1034900000E000BF208850B92389A28861882846AF
:1034A000FFF7ABFFE1882846FFF79EFF25E0208865
:1034B00004280AD12389A28861882846FFF753FF90
:1034C000E1882846FFF742FF17E0208808280AD144
:1034D0002389A28861882846FFF7FBFEE1882846F9
:1034E000FFF7EEFE09E02389A28861882846FFF7EE
:1034F000A6FEE1882846FFF795FE70BD2DE9F04154
:1035000005460C4600260127608808B9022600E01F
:103510000026A088012801D1022700E00127208889
:10352000A0B92389A28861882846FFF766FFE18851
:103530002846FFF759FF23893A4631462846FFF7C8
:1035400012FFE1882846FFF701FF13E02389A288D4
:1035500061882846FFF707FFE1882846FFF7F6FE57
:1035600023893A4631462846FFF747FFE188284637
:10357000FFF73AFFBDE8F0810A884B881A438B8831
:103580001A43CB881A430B891A434B891A438B89F8
:103590001A43A0F8442070474FF6FF718180002144
:1035A0000180C1804180017270470021018041800B
:1035B0008180C180018141818181C1817047002169
:1035C00001804180012181800021C18001817047FB
:1035D0000021018041808180C18001814181818100
:1035E00070470000002C01400034014000040040FE
:1035F00000080040000C004021B1028842F00102A6
:10360000028004E002884FF6FE731A400280704781
:1036100031B1B0F8442042F40042A0F8442005E063
:10362000B0F84420C2F30E02A0F8442070471AB14B
:1036300083890B43838102E083898B4383817047B5
:103640008182704741EA0203A0F8483070471AB1FE
:1036500083890B43838102E083898B438381704795
:1036600001894FF6F8721140018170470A46002126
:1036700001894FF68F73194011430181704730B5AE
:1036800004460D4629462046FFF7F0FF208940F00A
:103690000700208130BD2DE9F04104460D46164655
:1036A0001F46602D06D13B46012231462046FFF7DA
:1036B0005AFE05E03B46012231462046FFF79DFEBB
:1036C00029462046FFF7D2FF208940F007002081DD
:1036D000BDE8F08130B50C4600210189C9B24FF632
:1036E000FF7505EA0325154325432943018130BDB4
:1036F0002DE9F04105460E461746984600244346FC
:103700003A4631462846FFF7E5FF2C894FF6F87018
:10371000044044F007044FF68F70044044F07004F6
:103720002C81BDE8F081F0B504460D4616461F46D3
:103730003B46324629462046FFF7CCFF208940F41D
:1037400080402081F0BD0185828270470A460021B9
:1037500001884FF68F731940114301807047F0B50F
:103760000C4615461E460021002200230189028BCB
:10377000038C4FF6F877394021434FF6FC473A4027
:1037800040F201173A434FF6DD773B404FF6FF77A3
:1037900007EA06172F433B43018102830384F0BDF0
:1037A0000A460021018B4FF68F73194011430183A4
:1037B00070470A460021018B48F6FF7319404FF607
:1037C000FF7303EA02231943018370470A4600216D
:1037D000818B4FF68F7319401143818370470A46DE
:1037E0000021818B48F6FF7319404FF6FF7303EAFF
:1037F000022319438183704721B1028842F080027D
:10380000028004E002884FF67F731A4002807047FE
:1038100021B1828842F00402828004E082884FF65F
:10382000FB731A408280704721B1828842F00802FF
:10383000828004E082884FF6F7731A4082807047D6
:1038400021B1828842F00102828004E082884FF632
:10385000FE731A40828070470A460021018B4FF6A2
:10386000F77319401143018370470A460021018B09
:103870004FF2FF7319404FF6FF7303EA0223194317
:10388000018370470A460021818B4FF6F773194078
:103890001143818370470A460021818B4FF2FF73E9
:1038A00019404FF6FF7303EA0223194381837047DF
:1038B0000A460021018B4FF6FB7319401143018327
:1038C00070470A460021018B4FF6FF3319404FF62F
:1038D000FF7303EA02231943018370470A4600215C
:1038E000818B4FF6FB7319401143818370470A4661
:1038F0000021818B4FF6FF3319404FF6FF7303EA27
:1039000002231943818370470A460021018B4FF639
:103910007F7319401143018370470A460021018BD0
:10392000C1F30E014FF6FF7303EA0223194301832B
:1039300070470A460021818B4FF67F73194011436F
:10394000818370470A460021818BC1F30E014FF637
:10395000FF7303EA02231943818370470A4600215B
:10396000018C4FF6FD7319401143018470470A46DC
:103970000021018C4FF6F773194011430184704701
:103980000A460021018C4FF6DF7319404FF6FF7392
:1039900003EA02131943018470470A460021018C8F
:1039A0004FF67F7319404FF6FF7303EA0213194372
:1039B000018470470A460021018C4FF6FF531940DD
:1039C0004FF6FF7303EA02231943018470470A4646
:1039D0000021018C4FF2FF7319404FF6FF7303EA89
:1039E00002231943018470470A460021018C4DF6D9
:1039F000FF7319404FF6FF7303EA02331943018442
:103A0000704730B5002301248C40A3B2048C9C4342
:103A10000484048C02FA01F5ADB22C43048430BD59
:103A200030B5002304248C40A3B2048C9C4304844E
:103A3000048C02FA01F5ADB22C43048430BD70B59C
:103A40000346002000241846183001258D40ACB2F2
:103A50001D8CA5431D8409B1082909D100EB610023
:103A6000056825F0700505600568154305600EE0E2
:103A70000D1FC5F34E052844056825F4E045056093
:103A800005684FF6FF7606EA02263543056070BDED
:103A900021B1028842F00202028004E002884FF65F
:103AA000FD731A400280704721B1028842F004027F
:103AB000028004E002884FF6FB731A4002807047D0
:103AC00021B1828842F08002828004E082884FF631
:103AD0007F731A408280704702884FF6F7731A404E
:103AE000028002880A430280704782884FF68F73F3
:103AF0001A40828082880A438280704702894FF68A
:103B0000F8731A40028102890A43028170470289D0
:103B10004FF67F731A40028102890A43028170477F
:103B2000818470478185704781867047018770471F
:103B300081877047A0F84010704702884FF6FF4316
:103B40001A40028002880A43028070470146888E2C
:103B500070470146088F70470146888F70470146BD
:103B6000B1F8400070470146888C70470146088DC7
:103B7000704702460020138A0B400BB1012000E081
:103B800000207047CA430282704730B502460020C9
:103B900000230024158A05EA0103958905EA01043A
:103BA00013B10CB1012000E0002030BDCA430282F5
:103BB000704770470FB4044910B503AA029800F08B
:103BC000D3F810BC5DF814FB780000202DE9F0411B
:103BD0000E460446002020622046E168884730B344
:103BE000252805D0D4E901219047206A401CF2E73E
:103BF000E168204600278847050018D0A5F141005C
:103C0000192802D820354FF400673246294620464D
:103C10002760FCF7C7FA40B1012804D0F61D26F052
:103C200007060836D8E7361DD6E72846DAE7206AC1
:103C3000BDE8F0812DE9F0410646002410687529A1
:103C4000314616A510D0AFF30080002802DA4042BA
:103C500013A507E031688A0701D512A502E04907DC
:103C600004D511A5012401E0AFF3008000210A2250
:103C700006F1240709E0B0FBF2FCB0FBF2F302FB13
:103C80001C00303078541846491C0028F3D12346D4
:103C90002A463046BDE8F04100F00CB800000000B4
:103CA0002D0000002B00000020000000704770472E
:103CB000704770472DE9F0470D46994692460446F5
:103CC00000F124080168880604D5E06921F010019C
:103CD000216000E00120A84201DD471B00E0002731
:103CE000A1697A1902EB0900081AA0612078C006C0
:103CF00002D42046AFF30080002608E0D4E9012179
:103D00001AF806009047206A401C761C20624E4537
:103D1000F4DB2078C0060AD52046AFF3008006E029
:103D2000D4E9012130209047206A401C2062381ECF
:103D3000A7F10107F4DC07E0D4E9012118F8050038
:103D40009047206A401C2062281EA5F10105F3DC83
:103D50002046AFF300802078000602D50220BDE89F
:103D6000F0870120FBE70000074B70B50D467B4450
:103D700000F011F80446284600F020F810B14FF08A
:103D8000FF3070BD204670BDF7D7FFFF01694A1CA8
:103D900002610878704700B58FB0CDE9013100218C
:103DA000059105497944CDE9031011466846FFF7AE
:103DB0000DFF0FB000BD0000E5FFFFFF007B00F02E
:103DC00080007047754600F02BF8AE460500694646
:103DD000534620F00700854618B020B5FDF7E0FCFB
:103DE000BDE820404FF000064FF000074FF00008FC
:103DF0004FF0000B21F00701AC46ACE8C009ACE87D
:103E0000C009ACE8C009ACE8C0098D46704710B5E0
:103E10000446AFF300802046BDE81040FCF7D4B95B
:103E2000004870476804002090EA010F48BF81F005
:103E3000004100F1A082421A3CBF801A89184FEA63
:103E4000D0524FF07F4C1CEA410FA2EBD15318BF68
:103E50009CEA026F00F03B804FF0004C4CEA0020DF
:103E60004CEA012121FA03FC10EB0C0C1ED202F1EA
:103E7000FF325FEA1C2040EBC25038BF70471CF095
:103E80007F0F4FEA400C18BFBCF17F4F38BF70471F
:103E9000C3F12003994008BF20F00100BCF17F4F1F
:103EA00038BF7047A0F1C04000F01DBA4FEA3C0097
:103EB000000A40EBC25028BF1CF0FF0F4FEA400C35
:103EC000E6D018BFBCF17F4F38BF7047EAE79CEAE5
:103ED000026F05D010EA5C0F08BF00F00040704789
:103EE00010B500F0BAF900BF64FBBE3E401058BFE9
:103EF000C0F14040491058BFC1F140418142EFF349
:103F0000008070474FF47F0C1CEAD0121EBF1CEAE1
:103F1000D11392EA0C0F93EA0C0F00F0858090EA1F
:103F2000010F48BF42F4807240F4000C41F40000DD
:103F30002CF07F4120F07F4000B58142A2EB0302CC
:103F40000FF2081CACEB504EC0F100009EF800E0F0
:103F50004FEA4E0E00FB0EFC38BF49004FEA2C1C06
:103F600002F5FA020CFB0EF34FEACE1E4FEA112CBB
:103F70004FEAC1210EEB635E42EB22420EFB0CFCCA
:103F80004FEA1C5300FB03114FEA112C4FEA013199
:103F90000EFB0CFC4FEADC4C00FB0C11C14228BFAD
:103FA00009184CEB03335DF804EB10EB410143EBD4
:103FB000C250B2F57C0F38BF704729D512F0F00F10
:103FC0001CBF00F1C04000F00040704700818283B8
:103FD0008485868788898B8C8D8E8F919293959618
:103FE00097999A9C9D9FA0A2A3A5A7A8AAACAEB0A2
:103FF000B2B3B5B7B9BCBEC0C2C5C7C9CCCED1D4A7
:10400000D7D9DCDFE2E6E9ECF0F3F7FAFE000000D6
:104010004FEA400C0CF1807CBCF17E4F28BF70470A
:10402000B0F1C04000F05FB990EA010F0CEAD11383
:1040300048BF42F48072624538BF634507D213F42B
:104040007F0F16D080EA010000F00040704710B5E5
:1040500000F003F9097EFC3E00F005B880EA01009B
:1040600000F00040704780EA010000F0004000F0DE
:104070003AB912F47F0F04BF0248704780EA01008A
:1040800000F031B90000C07F41000B0ED3F19E0259
:1040900008D950F400034FEA032323FA02F048BF83
:1040A0004042704710B500F0D8F800BF4992248014
:1040B000002070476FF0004282EA20007047000045
:1040C00010F0004148BF4042B0FA80F310FA03F20A
:1040D000C3F19D030BD051EAC35101EB12205306EB
:1040E00038BF704700F1010008BF20F001007047A1
:1040F00050EA010C00F113801CF5000F58BFBCF50D
:10410000000F01D48842704707D710F5000F58BF41
:1041100011F5000F15D488427047894270471CF58D
:10412000000F04D5BCF5000FF7D5814270474FF062
:10413000807C1CEB400F38BF1CEB410F01D2814249
:10414000704710B500F089F8922449004FF00050F4
:104150004FF08051FFF7CABE4FF47F0C1CEAD0121B
:104160001EBF1CEAD11392EA0C0F93EA0C0F00F069
:10417000478090EA010F48BF42F480724FF0004C34
:104180004CEA00204CEA012102EB0302A0FB0113E0
:10419000A2F50002002918BF43F001035B0028BF0D
:1041A0004FEA330342EB22425FEA132C4CEBC2503E
:1041B0002EBFBCEB436FB2F57C0F70474FEA036C28
:1041C000BCF1004F08BF20F00100B2F57C0F38BFF2
:1041D00070470BD582F0FF0212F5803FC8BF7047D1
:1041E00000F1C040D8BF00F00040704700F5000C5F
:1041F0005FEA4C0C48BF7047B0F1C04000F073B8A4
:1042000090EA010F0CEAD11348BF42F48072624574
:1042100038BF634504D280EA010000F000407047D7
:1042200010B500F01AF800BF8900013E00F007B891
:1042300000F009B85FEA410C5FEA1C6C08D080EA24
:10424000010000F050B85FEA400C5FEA1C6CF6D148
:104250004FF00040A0F5800070470EF1020E2EF0E6
:10426000030E5EF8044B244204D44FEA4102B2F13B
:104270007F4F11D84FEA4003B3F17F4F0CD80ED1D6
:104280004FEAD07CB2F17F4F0CEB4C0C0CF1020CDE
:1042900008BF4CEBD17C04E04FF0080C01E04FEA82
:1042A000D17C0CEB4C0324FA03F404F00704B4F1C2
:1042B000040C06D20EEB840CBDE810404CF0010C4F
:1042C0006047DFE80CF0070802024FF00040A0F55D
:1042D000800010BD0846420018BFD2F1807288BF2E
:1042E00000F0004010BDFF2141EAD050C0057047EA
:1042F00051EA000C00F113801CF5000F58BFBCF50B
:10430000000F01D48142704707D711F5000F58BF45
:1043100010F5000F15D481427047894270471CF593
:10432000000F04D5BCF5000FF7D5884270474FF059
:10433000807C1CEB410F38BF1CEB400F01D2884240
:10434000704780EA010081EA000180EA0100FFF77E
:10435000F8BE80F0004090EA010F7FF56CAD81F06F
:10436000004100F008B8000090EA010F48BF81F05A
:1043700000413FF560AD421A04D882F00042A0EB44
:10438000020011444FEAD0524FF07F4C1CEA410F1B
:10439000A2EBD15318BF9CEA026F4AD04FF0004CF9
:1043A0004CEA00204CEA012121FA03FCB0EB0C0C92
:1043B0000FD412F0FE0F36D05FEA4C001DD500126C
:1043C00040EBC25038BF70471CF03F0F18BF70471A
:1043D0000BE0A2F101025FEA1C2040EBC25038BFA3
:1043E00070471CF07F0F18BF7047C3F1200399403E
:1043F00014BF401E20F00100704780084FEA1223CE
:1044000008BF7047B0FA80FCA2EB0C02CCF1280C7C
:1044100060FA0CF093EA122F04BF00EBC250704711
:104420004FEAC3707047130A5FEADC1008BF704799
:10443000F6E79CEA026F04D010EA5C0F08BF002088
:10444000704710B5FFF709FF40DFF63E81F00040EE
:104450007047000074440008000000209400000031
:104460006C0100080845000894000020340A000090
:1044700088010008000000000000000000000000AB
:10448000000000000000000000000000000000002C
:1044900000A24A0400000000000000000102030422
:1044A000060708090100B80B00000000000000002A
:1044B00000000000000000000000000000000000FC
:1044C00000000000000000000000000000000000EC
:1044D00000000000000000000000000000000000DC
:1044E00000000000000000000000000000000000CC
:1044F00000000000000000000102030401020304A8
:08450000060708090204060881
:0400000508000131BD
:00000001FF
