:020000040800F2
:100000001805002049010008190F0008E305000841
:10001000010D0008910100085134000800000000A3
:10002000000000000000000000000000611E000849
:1000300095010008000000008D0F0008751F0008E2
:100040006301000863010008630100086301000800
:1000500063010008630100086301000863010008F0
:1000600063010008630100086301000863010008E0
:1000700063010008630100086301000863010008D0
:1000800063010008630100086301000863010008C0
:10009000630100086301000863010008990100087A
:1000A00063010008630100086301000863010008A0
:1000B0006301000863010008630100086301000890
:1000C0006301000863010008630100086301000880
:1000D0006301000851310008630100087D31000808
:1000E0006301000863010008630100086301000860
:1000F0006301000863010008630100086301000850
:10010000630100086301000863010008630100083F
:100110002D31000863010008552200086301000822
:10012000630100086301000863010008630100081F
:10013000DFF810D000F01AF80048004789380008AE
:10014000AFF30080180500200648804706480047A6
:10015000FEE7FEE7FEE7FEE7FEE7FEE7FEE7FEE777
:10016000FEE7FEE7B51F000831010008064C074D09
:1001700006E0E06840F0010394E807009847103477
:10018000AC42F6D3FFF7D8FF683900088839000879
:1001900000BFFEE77047000010B54FF4807000F01C
:1001A00013F8012802D16420034908704FF48070CD
:1001B00000F004F810BD0000F800002001490860BC
:1001C0007047000014040140014600200022074B44
:1001D0001B6803EA0102054B14331B680B4013B183
:1001E0000AB1012000E00020704700000004014037
:1001F00010B500F003F800F047F810BD00B587B067
:100200000121042001F0B2FD0121022001F09EFD38
:10021000C020ADF8180004208DF81B0006A918486E
:1002200000F052F903A802F0F7FE0020ADF80C0030
:100230004FF6FF70ADF810000020ADF81200ADF8D9
:100240000E0003A90F4802F095FE00231A46032171
:100250000C4802F009FD684602F092FD0A20ADF854
:1002600008006946074802F035FD0021054802F004
:1002700052FE0121034802F0DCFC07B000BD000083
:10028000000801400004004000B587B001210820AB
:1002900001F06CFD0121042001F058FDC020ADF8F3
:1002A000180004208DF81B0006A9184800F00CF96E
:1002B00003A802F0B1FE0020ADF80C004FF6FF706D
:1002C000ADF810000020ADF81200ADF80E0003A943
:1002D0000F4802F04FFE02231A4603210C4802F099
:1002E000C3FC684602F04CFD0A20ADF808006946E0
:1002F000074802F0EFFC0021054802F00CFE012146
:10030000034802F096FC07B000BD0000000C01405D
:100310000008004070B50546032D02D0042D12D10F
:1003200008E00B4802F0C1FC04B20021084802F0CA
:10033000F2FD0AE0074802F0B8FC04B200210548CB
:1003400002F0E9FD01E0002400BF00BF204670BDBF
:1003500000040040000800402DE9FC4142F2341640
:1003600040F6B8356FF013072548006841F658315C
:10037000884202DD00200090019000202149088081
:10038000214890F90000784304B2281900B2019086
:10039000281B00B2009001A800F070FD684600F034
:1003A0006DFD0320FFF7B6FF80460420FFF7B2FF84
:1003B0004044134909680844114908600846006828
:1003C000B04206DABDF90010BDF9040000F06AFD84
:1003D00013E00E490E4800F065FD462003F01CFABC
:1003E0000021084600F05EFD0020054908606420F9
:1003F00003F012FA0120BDE8FC810020FBE70000B9
:1004000090000020FA000020080100203CF6FFFFC9
:1004100094F8FFFF2DE9FC4141F64C5640F6B83503
:100420006FF0130724480068B0F5FA5F02DD002082
:1004300000900190002021490880214890F9000097
:10044000784304B2281900B20190281B00B2009032
:1004500001A800F013FD684600F010FD0320FFF72F
:1004600059FF80460420FFF755FF404412490968B0
:1004700008441149086008460068B04206DABDF930
:100480000010BDF9040000F00DFD13E00D49084611
:1004900000F008FD462003F0BFF90021084600F0F7
:1004A00001FD002004490860642003F0B5F9012033
:1004B000BDE8FC810020FBE794000020FA0000204A
:1004C0000801002024FAFFFF2DE9F0410246002533
:1004D0000026002000230024002791F803C00CF020
:1004E0000F0591F803C00CF0100CBCF1000F03D005
:1004F00091F802C04CEA050591F800C0BCF1000F6C
:1005000031D0146800202BE04FF0010C0CFA00F3FE
:10051000B1F800C00CEA03069E4220D183004FF0E0
:100520000F0C0CFA03F7BC4305FA03FC4CEA040475
:1005300091F803C0BCF1280F06D14FF0010C0CFA62
:1005400000FCC2F814C00AE091F803C0BCF1480FE7
:1005500005D14FF0010C0CFA00FCC2F810C0401C91
:100560000828D1D31460B1F800C0BCF1FF0F34DD0E
:10057000546800202EE000F1080C4FF0010808FA42
:100580000CF3B1F800C00CEA03069E4221D18300AF
:100590004FF00F0C0CFA03F7BC4305FA03FC4CEACE
:1005A000040491F803C0BCF1280F05D100F1080C38
:1005B00008FA0CF8C2F8148091F803C0BCF1480F97
:1005C00007D100F1080C4FF0010808FA0CF8C2F846
:1005D0001080401C0828CED35460BDE8F081016132
:1005E000704700BFFEE7000070B5184C0320FFF70E
:1005F00091FE05460420FFF78DFE28441449096842
:100600000844134908601349084600F04BFC1048A1
:100610000068A04204DD0F49084600F043FC13E0E7
:1006200040F2DC51084600F03DFC462003F0F4F8AF
:100630000021084600F036FC002005490860C8206B
:1006400003F0EAF8012070BD0020FCE784EAFFFF18
:100650007800002048F4FFFF70B5184C0320FFF726
:1006600059FE05460420FFF755FE28441449096841
:100670000844134908601349084600F013FC104869
:100680000068A04204DD0F49084600F00BFC13E0AF
:1006900040F2DC51084600F005FC462003F0BCF8AF
:1006A0000021084600F0FEFB002005490860C82034
:1006B00003F0B2F8012070BD0020FCE74CEBFFFF17
:1006C0008400002048F4FFFF70B5184C0320FFF7AA
:1006D00021FE05460420FFF71DFE28441449096841
:1006E0000844134908601349084600F0DBFB104832
:1006F0000068A04204DD0F49084600F0D3FB13E078
:1007000040F2DC51084600F0CDFB462003F084F8AF
:100710000021084600F0C6FB002005490860C820FB
:1007200003F07AF8012070BD0020FCE720EAFFFF0B
:100730008000002048F4FFFF70B5184C0320FFF73D
:10074000E9FD05460420FFF7E5FD28441449096842
:100750000844134908601349084600F0A3FB1048F9
:100760000068A04204DD0F49084600F09BFB13E03F
:1007700040F2DC51084600F095FB462003F04CF8AF
:100780000021084600F08EFB002005490860C820C3
:1007900003F042F8012070BD0020FCE7B0EBFFFF42
:1007A0007C00002048F4FFFF70B504460320FFF7EB
:1007B000B1FD05460420FFF7ADFD28441349096843
:1007C0000844124908601249084600F06BFB0F48C4
:1007D0000068A04204DD0E490E4800F063FB13E000
:1007E00040F2DC51084600F05DFB462003F014F8AF
:1007F0000021084600F056FB002004490860C8208C
:1008000003F00AF8012070BD0020FCE78C000020F6
:1008100048F4FFFF74F5FFFF70B540F63C74032009
:10082000FFF778FD45420420FFF774FD2844124984
:10083000096808441049086008460068A04205DCC1
:1008400040F6B831484200F02DFB12E00B49484217
:1008500000F028FB462002F0DFFF0021084600F0F0
:1008600021FB002004490860642002F0D5FF01202C
:1008700070BD0020FCE700004800002024FAFFFFC4
:1008800070B54FF4E1640320FFF744FD45420420B6
:10089000FFF740FD284412490968084410490860E0
:1008A00008460068A04205DC40F6B831484200F036
:1008B000F9FA12E00B49484200F0F4FA462002F03F
:1008C000ABFF0021084600F0EDFA00200449086063
:1008D000642002F0A1FF012070BD0020FCE70000B1
:1008E0002400002024FAFFFF70B540F666040320C0
:1008F000FFF710FD45420420FFF70CFD2844124984
:10090000096808441049086008460068A04205DCF0
:1009100040F6B831484200F0C5FA12E00B494842AF
:1009200000F0C0FA462002F077FF0021084600F0F0
:10093000B9FA002004490860642002F06DFF01202C
:1009400070BD0020FCE700002000002024FAFFFF1B
:1009500070B540F602040320FFF7DCFC454204209A
:10096000FFF7D8FC28441249096808441049086078
:1009700008460068A04205DC40F6B831484200F065
:1009800091FA12E00B49484200F08CFA462002F03E
:1009900043FF0021084600F085FA00200449086062
:1009A000642002F039FF012070BD0020FCE7000048
:1009B0003000002024FAFFFF70B504460320FFF743
:1009C000A9FC45420420FFF7A5FC28441149096809
:1009D00008441049086008460068A04205DC40F65B
:1009E000B831484200F05EFA12E00B49484200F08C
:1009F00059FA462002F010FF0021084600F052FA92
:100A0000002004490860642002F006FF012070BD48
:100A10000020FCE72800002024FAFFFF70B5164CE8
:100A20000320FFF777FC45420420FFF773FC2844BE
:100A30001249096808441149086008460068A04244
:100A400004DD0F49484200F02DFA13E040F2DC517A
:100A5000484200F027FA462002F0DEFE0021084658
:100A600000F020FA002005490860642002F0D4FE5E
:100A7000012070BD0020FCE794F8FFFF3C0000203F
:100A800048F4FFFF70B5164C0320FFF743FC4542C6
:100A90000420FFF73FFC2844124909680844114923
:100AA000086008460068A04204DD0F49484200F093
:100AB000F9F913E040F2DC51484200F0F3F9462026
:100AC00002F0AAFE0021084600F0ECF900200549DA
:100AD0000860642002F0A0FE012070BD0020FCE749
:100AE000F8F8FFFF4400002048F4FFFF70B5164CF3
:100AF0000320FFF70FFC45420420FFF70BFC2844BE
:100B00001249096808441149086008460068A04273
:100B100004DD0F49484200F0C5F913E040F2DC5112
:100B2000484200F0BFF9462002F076FE0021084658
:100B300000F0B8F9002005490860642002F06CFE5E
:100B4000012070BD0020FCE72AF9FFFF38000020DB
:100B500048F4FFFF70B5164C0320FFF7DBFB45425E
:100B60000420FFF7D7FB28441249096808441149BB
:100B7000086008460068A04204DD0F49484200F0C2
:100B800091F913E040F2DC51484200F08BF9462025
:100B900002F042FE0021084600F084F900200549D9
:100BA0000860642002F038FE012070BD0020FCE7E0
:100BB000F8F8FFFF4000002048F4FFFF08B50121CE
:100BC000042001F0D3F80121082001F0CFF84FF400
:100BD0000060ADF8000028208DF803006946074842
:100BE000FFF772FC4FF48050ADF8000048208DF8FC
:100BF000030069460248FFF767FC08BD0008014092
:100C0000000C014010B50F480068012807D10A20E8
:100C100002F002FE0B480068012800D110BD0A480E
:100C2000006860B90A2002F0F7FD0748006830B993
:100C300000BF054800680028FBD00220EEE7002036
:100C4000ECE700002C0121423081214208B501214E
:100C5000342001F08BF84FF48070ADF800001020C4
:100C60008DF8030003208DF8020069462048FFF745
:100C70002BFC4FF480711E48FFF7B1FC0420ADF847
:100C8000000069461B48FFF71FFC04211948FFF7C5
:100C9000A6FC0220ADF8000069461748FFF714FCD7
:100CA00002211548FFF79BFC4FF40050ADF80000FF
:100CB00069461148FFF708FC4FF400510E48FFF752
:100CC0008EFC4FF48040ADF8000069460A48FFF7FB
:100CD000FBFB4FF480410848FFF781FC00200749E7
:100CE00008600649303908600449091D086008BDDC
:100CF000000801400014014000100140B4012242EC
:100D000000BFFEE730B589B005460C46012104203E
:100D100001F02CF80121082001F028F80121102011
:100D200001F024F80121084601F010F801210846DD
:100D300001F01CF82020ADF8040003208DF8060017
:100D400010208DF8070001A94548FFF7BDFB1020D2
:100D5000ADF8040003208DF8060010208DF8070080
:100D600001A93F48FFF7B0FB0120ADF804000320C4
:100D70008DF8060010208DF8070001A93948FFF70B
:100D8000A3FB0220ADF8040003208DF8060010201C
:100D90008DF8070001A93348FFF796FB0020324980
:100DA00008603249C1F89401314908603149C1F8FD
:100DB00080010120ADF8040003208DF80600182002
:100DC0008DF8070001A92C48FFF77EFB0220ADF843
:100DD000040003208DF8060018208DF8070001A9F3
:100DE0002548FFF771FBA8B2ADF81C00ADF818401C
:100DF0000020ADF81E00ADF81A0006A94FF08040A3
:100E000002F0B8F86020ADF808000020ADF810003E
:100E10000120ADF80A0002A9800701F0C3FF0821F4
:100E2000C80602F00BF802A94FF0804002F010F85B
:100E30000821C80602F05EF80121880701F0EAFEE9
:100E40000121880701F0F5FE00214FF0804002F0FB
:100E50005EF800214FF0804002F05BF809B030BD31
:100E600000100140000C014090012242000022428B
:100E7000848121420080214200080140B0F9001025
:100E800041F27072914202DD1146018007E0B0F933
:100E90000010034A914202DA4EF690010180704739
:100EA00090E8FFFF70B504460D46002C07DB0020DC
:100EB0001549086001201549C1F8900107E001209B
:100EC0001149086000201149C1F890016442002DC9
:100ED00007DB00200E49086001200E49C1F884019B
:100EE00007E001200A49086000200A49C1F884018E
:100EF0006D42A9B24FF0804002F009F8A1B24FF064
:100F0000804002F006F870BD9401224200002242A7
:100F100080812142008021427047000070B500218D
:100F200000230F22C47804B3154C246804F4E06451
:100F3000C4F5E064210AC1F10403CA40447804FA0C
:100F400003F184781440214309010E4C0678A15521
:100F5000047804F01F050124AC4005786D11AD0044
:100F600005F1E025C5F8004109E0047804F01F050B
:100F70000124AC40044D0678761145F8264070BD3A
:100F80000CED00E000E400E080E100E070470000CC
:100F900070B541F218540320FFF7BCF90546042050
:100FA000FFF7B8F928441349096808441149086053
:100FB00040F6B8310846FFF775FF0E480068A042BA
:100FC00005DA40F6B8310846FFF76CFF0FE00A4932
:100FD0000846FFF767FF462002F01EFC0021084686
:100FE000FFF760FF002003490860012070BD00206A
:100FF000FCE700006800002024FAFFFF70B541F212
:1010000088340320FFF786F905460420FFF782F9AC
:1010100028441349096808441149086040F6B8316A
:101020000846FFF73FFF0E480068A04205DA40F689
:10103000B8310846FFF736FF0FE00A490846FFF7C8
:1010400031FF462002F0E8FB00210846FFF72AFFA7
:10105000002003490860012070BD0020FCE700006B
:1010600064000020F8F8FFFF70B541F27C540320C3
:10107000FFF750F905460420FFF74CF928441349BF
:10108000096808441149086040F6B8310846FFF77E
:1010900009FF0E480068A04205DA40F6B83108465C
:1010A000FFF700FF0FE00A490846FFF7FBFE462066
:1010B00002F0B2FB00210846FFF7F4FE00200349CE
:1010C0000860012070BD0020FCE7000060000020E7
:1010D00024FAFFFF70B541F218540320FFF71AF904
:1010E00005460420FFF716F9284413490968084407
:1010F0001149086040F6B8310846FFF7D3FE0E48A4
:101100000068A04205DA40F6B8310846FFF7CAFE8B
:101110000FE00A490846FFF7C5FE462002F07CFBB7
:1011200000210846FFF7BEFE0020034908600120A9
:1011300070BD0020FCE700007000002024FAFFFFD3
:1011400070B541F224340320FFF7E4F8054604208B
:10115000FFF7E0F82844134909680844114908607A
:1011600040F6B8310846FFF79DFE0E480068A042E1
:1011700005DA40F6B8310846FFF794FE0FE00A4959
:101180000846FFF78FFE462002F046FB0021084686
:10119000FFF788FE002003490860012070BD002091
:1011A000FCE700005C00002024FAFFFF70B541F26C
:1011B0001E440320FFF7AEF805460420FFF7AAF807
:1011C00028441349096808441149086040F6B831B9
:1011D0000846FFF767FE0E480068A04205DA40F6B1
:1011E000B8310846FFF75EFE0FE00A490846FFF7F0
:1011F00059FE462002F010FB00210846FFF752FE80
:10120000002003490860012070BD0020FCE70000B9
:101210005800002024FAFFFF70B541F25C2403203F
:10122000FFF778F805460420FFF774F828441349BF
:10123000096808441149086040F6B8310846FFF7CC
:1012400031FE0E480068A04205DA40F6B831084683
:10125000FFF728FE0FE00A490846FFF723FE462065
:1012600002F0DAFA00210846FFF71CFE00200349CD
:101270000860012070BD0020FCE700005400002041
:1012800024FAFFFF70B504460320FFF743F8054634
:101290000420FFF73FF8284412490968084411491F
:1012A000086040F6B8310846FFF7FCFD0D480068BD
:1012B000A04205DA40F6B8310846FFF7F3FD0FE02B
:1012C00009490846FFF7EEFD462002F0A5FA002185
:1012D0000846FFF7E7FD002002490860012070BDC5
:1012E0000020FCE75000002024FAFFFF2DE9FC411C
:1012F00044F2682441F288356FF013070020234937
:101300000880234991F9001007FB01F6A4F5FA6063
:1013100020490968884202DA40F6B8350026A81943
:1013200000B20190A81B00B2009001A8FFF7A6FD33
:101330006846FFF7A3FD0320FEF7ECFF804604207C
:10134000FEF7E8FF40441349096808441149086062
:1013500008460068A04206DABDF90010BDF9040095
:10136000FFF7A0FD10E00C490846FFF79BFD462063
:1013700002F052FA00210846FFF794FD00200549CB
:1013800008600120BDE8FC810020FBE7FA00002096
:1013900008010020D800002094F8FFFF2DE9FC414F
:1013A00041F2941640F6B8346FF0130700201E493E
:1013B00008801E4991F9001007FB01F560190190A2
:1013C000601B009001A8FFF759FD6846FFF756FD26
:1013D0000320FEF79FFF80460420FEF79BFF40445A
:1013E0001349096808441249086008460068B04279
:1013F00006DABDF90010BDF90400FFF753FD10E057
:101400000C490846FFF74EFD462002F005FA002180
:101410000846FFF747FD0020054908600120BDE8A8
:10142000FC810020FBE70000FA00002008010020FA
:10143000C400002024FAFFFF2DE9FC4145F2C44618
:1014400040F6B8346FF0130700201E4908801E498B
:1014500091F9001007FB01F560190190601B0090E5
:1014600001A8FFF70BFD6846FFF708FD0320FEF714
:1014700051FF80460420FEF74DFF404413490968A0
:1014800008441249086008460068B04206DABDF90F
:101490000010BDF90400FFF705FD10E00C490846F7
:1014A000FFF700FD462002F0B7F900210846FFF7DC
:1014B000F9FC0020054908600120BDE8FC810020FE
:1014C000FBE70000FA00002008010020B000002027
:1014D00024FAFFFF2DE9FC414FF4965640F6B8344C
:1014E0006FF0130700201E4908801E4991F9001073
:1014F00007FB01F560190190601B009001A8FFF740
:10150000BDFC6846FFF7BAFC0320FEF703FF8046E8
:101510000420FEF7FFFE40441349096808441249BD
:10152000086008460068B04206DABDF90010BDF94F
:101530000400FFF7B7FC10E00C490846FFF7B2FCC7
:10154000462002F069F900210846FFF7ABFC0020B5
:10155000054908600120BDE8FC810020FBE7000090
:10156000FA00002008010020C800002024FAFFFF34
:1015700070B541F250440320FEF7CCFE054604202E
:10158000FEF7C8FE28441049096808440E4908605F
:1015900008460068A04205DA40F6B8310846FFF771
:1015A00081FC0FE009490846FFF77CFC462002F069
:1015B00033F900210846FFF775FC00200249086056
:1015C000012070BD0020FCE7E000002024FAFFFFAE
:1015D00070B541F2EC340320FEF79CFE0546042072
:1015E000FEF798FE28441049096808440E4908602F
:1015F00008460068A04205DA40F6B8310846FFF711
:1016000051FC0FE009490846FFF74CFC462002F068
:1016100003F900210846FFF745FC00200249086055
:10162000012070BD0020FCE7DC00002024FAFFFF51
:1016300070B541F2B4440320FEF76CFE0546042069
:10164000FEF768FE28441049096808440E490860FE
:1016500008460068A04205DA40F6B8310846FFF7B0
:1016600021FC0FE009490846FFF71CFC462002F068
:10167000D3F800210846FFF715FC00200249086056
:10168000012070BD0020FCE7EC00002024FAFFFFE1
:1016900070B541F2B4440320FEF73CFE0546042039
:1016A000FEF738FE28441049096808440E490860CE
:1016B00008460068A04205DA40F6B8310846FFF750
:1016C000F1FB0FE009490846FFF7ECFB462002F06A
:1016D000A3F800210846FFF7E5FB00200249086057
:1016E000012070BD0020FCE7E400002024FAFFFF89
:1016F0002DE9FC4145F6D81640F6B8346FF01307D3
:10170000002022490880224991F9001007FB01F5C9
:101710002048006845F20821884200DD0025601954
:1017200000B20190601B00B2009001A8FFF7A6FB79
:101730006846FFF7A3FB0320FEF7ECFD804604207C
:10174000FEF7E8FD40441349096808441149086060
:1017500008460068B04206DABDF90010BDF9040081
:10176000FFF7A0FB10E00C490846FFF79BFB462063
:1017700002F052F800210846FFF794FB00200549CB
:1017800008600120BDE8FC810020FBE7FA00002092
:1017900008010020BC000020F8F8FFFF2DE9FC4103
:1017A000044640F6B8356FF0130700202249088040
:1017B000224991F9001007FB01F62148006844F620
:1017C000F441884200DD0026A81900B20190A81B50
:1017D00000B2009001A8FFF751FB6846FFF74EFBEF
:1017E0000320FEF797FD80460420FEF793FD40445A
:1017F0001349096808441249086008460068A04275
:1018000006DABDF90010BDF90400FFF74BFB10E04C
:101810000C490846FFF746FB462001F0FDFF00217A
:101820000846FFF73FFB0020054908600120BDE89E
:10183000FC810020FBE70000FA00002008010020E6
:10184000B8000020F8F8FFFF2DE9FC4149F27C26A2
:1018500040F6B8346FF0130700202249088022496F
:1018600091F9001007FB01F52048006848F6B8011F
:10187000884200DD0025601900B20190601B00B2B3
:10188000009001A8FFF7FAFA6846FFF7F7FA03207D
:10189000FEF740FD80460420FEF73CFD404413491E
:1018A000096808441149086008460068B04206DA31
:1018B000BDF90010BDF90400FFF7F4FA10E00C497F
:1018C0000846FFF7EFFA462001F0A6FF0021084680
:1018D000FFF7E8FA0020054908600120BDE8FC8117
:1018E0000020FBE7FA00002008010020F0000020A3
:1018F0005CF9FFFF2DE9FC4141F6146640F6B8346F
:101900006FF0130700201E4908801E4991F900104E
:1019100007FB01F560190190601B009001A8FFF71B
:10192000ADFA6846FFF7AAFA0320FEF7F3FC8046FB
:101930000420FEF7EFFC40441349096808441249AB
:10194000086008460068B04206DABDF90010BDF92B
:101950000400FFF7A7FA10E00C490846FFF7A2FAC7
:10196000462001F059FF00210846FFF79BFA0020AE
:10197000054908600120BDE8FC810020FBE700006C
:10198000FA00002008010020D40000205CF9FFFFCD
:101990002DE9FC4143F2C82640F6B8346FF0130736
:1019A00000201F4908801F4991F9001007FB01F52D
:1019B00060190190601B009001A8FFF75FFA68466C
:1019C000FFF75CFA0320FEF7A5FC80460420FEF733
:1019D000A1FC4044144909680844134908600846BA
:1019E0000068B04206DABDF90010BDF90400FFF747
:1019F00059FA13E00D490846FFF754FA462001F062
:101A00000BFF00210846FFF74DFA00200649086049
:101A1000642001F001FF0120BDE8FC810020FBE70C
:101A2000FA000020080100209800002024FAFFFF9F
:101A30002DE9FC4142F6E066B4106FF01307002078
:101A40001F4908801F4991F9001007FB01F5601933
:101A50000190601B009001A8FFF710FA6846FFF79D
:101A60000DFA0320FEF756FC80460420FEF752FCD8
:101A7000404415490968084413490860084600684D
:101A8000B04206DABDF90010BDF90400FFF70AFA0A
:101A900013E00E490846FFF705FA462001F0BCFEA8
:101AA00000210846FFF7FEF900200749086064207E
:101AB00001F0B2FE0120BDE8FC810020FBE7000040
:101AC000FA00002008010020A800002024FAFFFFEF
:101AD0002DE9FC4142F6E066B4106FF013070020D8
:101AE0001F4908801F4991F9001007FB01F5601993
:101AF0000190601B009001A8FFF7C0F96846FFF74E
:101B0000BDF90320FEF706FC80460420FEF702FC28
:101B100040441549096808441349086008460068AC
:101B2000B04206DABDF90010BDF90400FFF7BAF9BA
:101B300013E00E490846FFF7B5F9462001F06CFEA8
:101B400000210846FFF7AEF900200749086064202D
:101B500001F062FE0120BDE8FC810020FBE70000EF
:101B6000FA00002008010020A400002024FAFFFF52
:101B70002DE9FC4143F2B06640F6B8346FF013072C
:101B800000201F4908801F4991F9001007FB01F54B
:101B900060190190601B009001A8FFF76FF968467B
:101BA000FFF76CF90320FEF7B5FB80460420FEF733
:101BB000B1FB4044144909680844134908600846C9
:101BC0000068B04206DABDF90010BDF90400FFF765
:101BD00069F913E00D490846FFF764F9462001F062
:101BE0001BFE00210846FFF75DF90020064908604A
:101BF000642001F011FE0120BDE8FC810020FBE71C
:101C0000FA00002008010020AC00002024FAFFFFA9
:101C10002DE9FC4143F2B06640F6B8346FF013078B
:101C200000201F4908801F4991F9001007FB01F5AA
:101C300060190190601B009001A8FFF71FF968462A
:101C4000FFF71CF90320FEF765FB80460420FEF732
:101C500061FB404414490968084413490860084678
:101C60000068B04206DABDF90010BDF90400FFF7C4
:101C700019F913E00D490846FFF714F9462001F061
:101C8000CBFD00210846FFF70DF90020064908604A
:101C9000642001F0C1FD0120BDE8FC810020FBE7CC
:101CA000FA00002008010020A000002024FAFFFF15
:101CB0002DE9FC4144F6382640F6B8346FF013079E
:101CC00000201E4908801E4991F9001007FB01F50C
:101CD00060190190601B009001A8FFF7CFF86846DB
:101CE000FFF7CCF80320FEF715FB80460420FEF733
:101CF00011FB40441349096808441249086008462A
:101D00000068B04206DABDF90010BDF90400FFF723
:101D1000C9F810E00C490846FFF7C4F8462001F066
:101D20007BFD00210846FFF7BDF80020054908604B
:101D30000120BDE8FC810020FBE70000FA00002044
:101D400008010020CC00002024FAFFFF29B1064A38
:101D5000D2690243044BDA6104E0034AD269824348
:101D6000014BDA61704700000010024029B1064AB9
:101D700092690243044B9A6104E0034A92698243E8
:101D8000014B9A61704700000010024030B50021FD
:101D90000022002400232D4D6D6805F00C0121B1B7
:101DA000042905D0082923D105E0294D056022E04A
:101DB000274D05601FE0254D6D6805F47012234D19
:101DC0006D6805F48034022505EB92421CB9214D63
:101DD000554305600BE01D4D6D6805F400351DB1E0
:101DE0001C4D5543056002E0194D5543056002E066
:101DF000174D056000BF00BF144D6D6805F0F00180
:101E00000909154D6B5C0568DD4045600F4D6D6837
:101E100005F4E061090A104D6B5C4568DD408560A2
:101E20000A4D6D6805F46051C90A0B4D6B5C45683D
:101E3000DD40C560054D6D6805F44041890B074DD7
:101E40006B5CC568B5FBF3F5056130BD0010024061
:101E500000127A0000093D00000000201000002060
:101E6000704710B500F002F810BD00000CB500205E
:101E7000019000903348006840F480303149086098
:101E800000BF3048006800F4003000900198401C0A
:101E90000190009818B90198B0F5A06FF1D12948C8
:101EA000006800F4003010B10120009001E0002033
:101EB00000900098012843D12348006840F01000AA
:101EC000214908600846006820F0030008600846C1
:101ED000006840F0020008601A48406819494860EC
:101EE0000846406848600846406840F480604860A2
:101EF0000846406820F47C1048600846406840F47A
:101F0000E81048600846006840F08070086000BF34
:101F10000C48006800F000700028F9D009484068BB
:101F200020F00300074948600846406840F002007E
:101F3000486000BF0348406800F00C000828F9D151
:101F40000CBD00000010024000200240042808D10F
:101F50004FF0E021096941F004014FF0E0221161E6
:101F600007E04FF0E021096921F004014FF0E02281
:101F7000116170477047000010B504466FF004000F
:101F8000FFF7E4FFE11704EB5171C1F3C701074A02
:101F900011701046007800EB4001C1EBC0104FF605
:101FA000FF7101EAC0000249088010BD0401002051
:101FB0000601002010B51348006840F001001149E7
:101FC000086008464068104908400E4948600846C5
:101FD00000680E4908400B4908600846006820F474
:101FE000802008600846406820F4FE0048604FF4F6
:101FF0001F008860FFF735FF4FF00060044908605C
:1020000010BD0000001002400000FFF8FFFFF6FEC8
:1020100008ED00E0F0B50C46154600220021068CC4
:102020004FF6FE773E400684028B018C4FF60C760D
:1020300032407E1C06EA03162E433243104EB04255
:102040000ED0104EB0420BD0B0F1804F08D00E4EE3
:10205000B04205D00D4EB04202D00D4EB04206D176
:102060004FF6FD76314044F00106314305E04FF66E
:10207000F576314044F00106314302830184F0BD1E
:10208000002C0140003401400004004000080040E2
:10209000000C0040F0B50C46154600220021002639
:1020A000078C4FF6EF7C07EA0C070784028B018C44
:1020B0004FF6FF7707EA041640F6FF473A404FF61F
:1020C000FF7707EA03373A434FF6FF7707EA05271A
:1020D0003A43114FB8420ED0104FB8420BD0B0F176
:1020E000804F08D00E4FB84205D00E4FB84202D0F4
:1020F0000D4FB84206D14FF6DF77394046F0100752
:10210000394305E04FF65F77394044F01007394313
:1021100002830184F0BD0000002C01400034014026
:102120000004004000080040000C0040F0B50C46E0
:102130001546002200210026078C4FF6FF6C07EAA7
:102140000C070784828B018C4FF6FF7707EA042681
:102150004FF60C773A404FF6FF7707EA03172F4305
:102160003A43114FB8420ED0104FB8420BD0B0F1E5
:10217000804F08D00E4FB84205D00E4FB84202D063
:102180000D4FB84206D14FF6FF57394046F48077DD
:10219000394305E04FF2FF57394044F48077394323
:1021A00082830184F0BD0000002C01400034014016
:1021B0000004004000080040000C0040F0B50C4650
:1021C0001546002200210026078C4EF6FF7C07EA08
:1021D0000C070784828B018C4FF6FF7707EA0436E1
:1021E00040F6FF473A404FF6FF7707EA05273A43A4
:1021F0004FF6FF7707EA03373A43114FB8420ED044
:10220000104FB8420BD0B0F1804F08D00E4FB842FB
:1022100005D00E4FB84202D00D4FB84206D14DF650
:10222000FF77394046F48057394305E047F6FF57BA
:10223000394044F48057394382830184F0BD000063
:10224000002C014000340140000400400008004020
:10225000000C004010B50121FA4800F029FD0128CA
:1022600072D1F948007802286FDDF848007830B163
:1022700001280ED0022825D0032809D181E0FFF7DC
:10228000DBF8012804D1F14908700020F0490870FA
:10229000DEE3EF4800780B2806D10220EB490870F6
:1022A0000020EC490870D3E3E94800780A2808D1F7
:1022B0000320E64908700120E6490870087008709C
:1022C000C6E3C5E3E3480078082858D2DFE800F009
:1022D000040B1320323E464EFFF760F8012801D16F
:1022E000DC4908704BE0FEF7CBFA012802D102204E
:1022F000D849087043E0FEF723FF012807D1D649EB
:102300000860032001F056F90320D249087036E036
:10231000FEF778FC68B90020CF49086001F03EFA6A
:10232000092001F047F95A2001F076FA0420C94942
:10233000087024E0FEF790F9012804D101F002FAB8
:102340000520C44908701AE082E38FE3FEF798FA8B
:10235000012802D10620BF49087010E0FFF7C8F934
:10236000012802D10720BB49087008E00120BA49C2
:1023700034310860002001F01DF900BFFEE700BF06
:1023800066E3B44800780B2821D2DFE800F020068D
:102390002151B3C0C8D0DEEFEE0040F21361AF4868
:1023A00000F0B5FD642001F037FA4FF48261AB48CC
:1023B00000F0ADFD0020A64908704FF42F7001F029
:1023C0002BFA0020A64908600220A24908703DE3CC
:1023D000A3480068401CA24908609D4800780B286B
:1023E00006D103209B49087000209E4908701EE01A
:1023F000974800780A2806D10420964908700020E2
:102400009849087013E09648006832280FD14FF4BD
:102410008261924800F07BFD00219348FEF742FD67
:10242000322001F0F9F900210846FEF73BFD0DE3EB
:102430008C48007808285BD2DFE800F0040B1320FA
:10244000353F4751FFF746F8012801D1854908700B
:102450004EE0FEF717FB012802D1022081490870E7
:1024600046E04FF4AF50FEF70DFF012805D10420E0
:1024700001F0A0F803207B49087039E0012076497B
:102480000860FEF7BFFB68B900207349086001F0DF
:1024900085F9092001F08EF8642001F0BDF90420CF
:1024A0007049087024E0FEF79FF8012804D101F07C
:1024B0005FF905206B4908701AE0FEF7AFFA0128B2
:1024C00002D106206749087012E045F6AC00FFF71C
:1024D00065F9012802D107206249087008E001204F
:1024E0005D4934310860002001F064F800BFFEE768
:1024F00000BFABE240F2C351584800F008FDFFF7BF
:10250000D7FB012802D10520524908709EE2FEF750
:10251000B7F9012802D106204E49087096E2FFF76C
:10252000E9F9012802D107204A4908708EE200200B
:10253000474908704FF42F7001F06EF900204849A8
:10254000086008204349087080E245480068401C44
:10255000434908603E4800780B2808D109203D49CE
:10256000087001203F49087070E2A1E01CE0384883
:1025700000780A2805D137490870012039490870C8
:1025800064E23748006832280DD16420344908607D
:1025900035490020FEF786FC322001F03DF900218C
:1025A0000846FEF77FFC51E22E4800780B287DD2CA
:1025B000DFE800F07C060E1621373F5C646C740087
:1025C000FEF7D6FF012802D10220264908706DE0EF
:1025D000FEF7BEF9012802D103202249087065E008
:1025E000FEF778FD012805D1072000F0E3FF042065
:1025F0001C4908705AE0012017490860FEF702FBE9
:1026000070B900201449086001F086F8092000F034
:10261000D1FF4FF47A7001F0FFF8052011490870DE
:1026200044E0FEF751F8012802D106200D49087058
:102630003CE0FEF725F9012802D10720094908707E
:1026400034E00000001000400B010020FE000020DC
:102650000A010020FF00002084012242002C0140DA
:10266000F40000200001002048F4FFFFFFF7D0FA3B
:10267000012802D10820F749087017E0FEF7CEF9CB
:10268000012802D10920F34908700FE0FFF7DCF8B8
:10269000012802D10A20EF49087007E00120EE4925
:1026A0000860002000F086FF00BFFEE700BFCDE11C
:1026B000E8480078012806D0022814D0032829D041
:1026C00004280FD197E040F24241E44800F01FFC9B
:1026D0000020E34908704FF42F7001F09DF80220AC
:1026E000DC490870B0E1DE4800780B2806D10320F1
:1026F000D84908700120DB490870A5E1D848007866
:102700000A2806D10420D34908700120D549087051
:102710009AE199E1D34800780B286AD2DFE800F00B
:1027200069060E162139414951596100FEF750FFE3
:10273000012802D10220CB4908705AE0FEF7D6F9F1
:10274000012802D10320C749087052E0FEF72EFD90
:10275000012805D1082000F02DFF0420C149087090
:1027600047E00120BC4934390860FEF74BFA78B9DC
:102770000020B9493439086000F0CEFF092000F08C
:1027800019FF4FF47A7001F047F80520B549087039
:102790002FE0FDF729FF012802D10620B14908707A
:1027A00027E0FEF73BF9012802D10720AD49087068
:1027B0001FE0FFF7EDF8012802D10820A9490870B1
:1027C00017E0FEF72BF9012802D10920A54908706E
:1027D0000FE0FFF739F8012802D10A20A14908705B
:1027E00007E001209C490860002000F0E3FE00BFE4
:1027F000FEE700BF28E19B48007808280DD2DFE8FB
:1028000000F00C040D151D283FB04FF4B96193483A
:1028100000F07DFB02209349087013E1FDF7FCFFF7
:10282000012802D103208F4908700BE1FEF75EFDFD
:10283000012802D104208B49087003E10020884957
:1028400008704FF4FA7000F0E7FF05208549087022
:10285000F8E0834800780B2806D1062081490870EB
:10286000012081490870EDE07D4800780A2806D1F2
:1028700007207C49087001207B490870E2E0E1E014
:10288000794800780B286AD2DFE800F069060E1656
:102890002139414951596100FEF7CAFE012802D190
:1028A0000220714908705AE0FEF71EF8012802D193
:1028B00003206D49087052E0FEF76AFB012805D13C
:1028C000062000F077FE04206749087047E00120E9
:1028D000614934390860FEF795F978B900205E49FE
:1028E0003439086000F002FF092000F063FE4FF465
:1028F0007A7000F091FF05205B4908702FE0FDF72A
:102900001BFF012802D106205749087027E0FDF778
:10291000B7FF012802D10720534908701FE0FFF7D5
:1029200027F9012802D108204F49087017E0FDF768
:10293000A7FF012802D109204B4908700FE0FEF7DC
:1029400083FF012802D10A204749087007E00120CF
:1029500041490860002000F02DFE00BFFEE700BFE7
:1029600070E0414800780B286AD2DFE800F0690681
:102970000E162139414951596100FEF789FE01289F
:1029800002D10220384908705AE0FEF7E3F8012826
:1029900002D103203449087052E0FEF73DFC0128C3
:1029A00005D1052000F006FE04202F49087047E0FD
:1029B0000120294934390860FEF724F978B900204C
:1029C00025493439086000F091FE092000F0F2FD3D
:1029D0004FF47A7000F020FF0520234908702FE0A3
:1029E000FDF702FE012802D106201F49087027E0EA
:1029F000FEF714F8012802D107201B4908701FE0D8
:102A0000FEF7C6FF012802D108201749087017E019
:102A1000FDF736FF012802D10920134908700FE0A5
:102A2000FEF712FF012802D10A200F49087007E0C3
:102A3000012009490860002000F0BCFD00BFFEE74E
:102A400000BF00BF00BF00BF00BF00BF00BF00BF8E
:102A5000CEE0000000010020B8012242002C01401D
:102A60000A010020010100200201002063480078D3
:102A700001285DD162480078082858D2DFE800F0CC
:102A8000040B151F323B464EFEF7D2FF012801D141
:102A90005B4908704BE040F23A70FDF78DFF01286A
:102AA00002D102205649087041E0FEF7A7FA01283A
:102AB00004D100F07FFD03205149087037E0012068
:102AC00050490860FEF79EF858B9092000F072FDE1
:102AD000642000F0A1FE00204A4908600420484913
:102AE000087024E04848FDF75FFE012802D1052068
:102AF000434908701BE0FDF7C3FE012802D1062000
:102B00003F49087000204149087010E0FDF724FC9F
:102B1000012802D107203A49087008E0012039490C
:102B200034310860002000F045FD00BFFEE75FE0A3
:102B30003248007802285BD131480078082856D204
:102B4000DFE800F0040B131E3139444CFEF7C0FFE0
:102B5000012801D12A49087049E0FDF75FFF0128EB
:102B600002D102202649087041E0FEF77DFA0128D3
:102B700005D1022000F01EFD03202149087036E037
:102B8000012020490860FEF73DF858B9092000F0FF
:102B900011FD642000F040FE00201A490860042066
:102BA0001749087023E0FDF71FFD012802D1052019
:102BB000134908701BE0FDF731FF012802D1062000
:102BC0000F49087000201149087010E0FDF722FC41
:102BD000012802D107200A49087008E001200949AC
:102BE00034310860002000F0E5FC00BFFEE700BFC4
:102BF0000121074800F01AF810BD00000B01002069
:102C0000FE0000208401224284EAFFFFF800002039
:102C10000010004021B1028842F08002028004E0EE
:102C200002884FF67F731A4002807047CA430282BF
:102C3000704721B1028842F00102028004E002885C
:102C40004FF6FE731A400280704731B1B0F844204D
:102C500042F40042A0F8442005E0B0F84420C2F35A
:102C60000E02A0F844207047F0B50C4615461E46EB
:102C70000021002200230189028B038C4FF6F87794
:102C8000394021434FF6FC473A4040F201173A439E
:102C90004FF6DD773B404FF6FF7707EA06172F43E5
:102CA0003B43018102830384F0BD0146888C704759
:102CB00030B50246002000230024158A05EA0103EE
:102CC000958905EA010413B10CB1012000E0002050
:102CD00030BD000070B505460C46244885420ED034
:102CE000234885420BD0B5F1804F08D0214885425A
:102CF00005D02148854202D02048854200D100E01D
:102D000000BF208850B92389A28861882846FFF730
:102D100081F9E188284600F000F925E020880428A0
:102D20000AD12389A28861882846FFF7B3F9E18890
:102D3000284600F0FBF817E0208808280AD12389EC
:102D4000A28861882846FFF7F1F9E188284600F05B
:102D5000FAF809E02389A28861882846FFF72EFA4D
:102D6000E188284600F0F8F870BD0000002C014012
:102D7000003401400004004000080040000C004006
:102D8000002101804180012181800021C1800181D9
:102D900070471AB183890B43838102E083898B4397
:102DA0008381704770B5002400220023058C4FF604
:102DB000FE7635400584028C8388048B4FF68F7530
:102DC0002C40B51E2C400D882C43751E2A400D89C1
:102DD0002A434D882A43144DA8420BD0134DA842D4
:102DE00008D0134DA84205D0124DA84202D0124D72
:102DF000A84213D14FF6F7752A404D892A434FF662
:102E0000FB752A408D882A434FF6FF652B404FF60D
:102E1000FF552B408D892B43CD892B438380048321
:102E2000CD888586028470BD002C014000340140AD
:102E30000040014000440140004801400A46002192
:102E4000018B4FF6F773194011430183704700005F
:102E500070B5002400220023058C4FF6EF76354034
:102E60000584028C8388048B48F6FF752C404FF64E
:102E7000FF452C400D884FF6FF7606EA05252C43CA
:102E80004FF6DF752A400D8906EA05152A434D885D
:102E900006EA05152A43154DA84202D0144DA84252
:102EA0001DD14FF67F752A404D894FF6FF7606EA11
:102EB00005152A434FF6BF752A408D8806EA051589
:102EC0002A434FF6FF352B404FF2FF752B408D897B
:102ED00006EA85052B43CD8906EA85052B438380C9
:102EE0000483CD880587028470BD0000002C01405A
:102EF000003401400A460021018B4FF2FF73194054
:102F00004FF6FF7303EA022319430183704781865A
:102F100070470187704781847047028B4FF6F373C7
:102F20001A400283028B0A4302837047028B4FF2DE
:102F3000FF331A400283028B4FF6FF7303EA01232B
:102F40001A4302837047828B4FF6F3731A408283D1
:102F5000828B0A4382837047828B4FF2FF331A4081
:102F60008283828B4FF6FF7303EA01231A43828325
:102F700070470000002202881D4B98420ED01D4B66
:102F800098420BD0B0F1804F08D01B4B984205D02F
:102F90001A4B984202D01A4B984204D14FF68F73C5
:102FA0001A404B881A43174B984207D0164B984249
:102FB00004D04FF6FF431A40CB881A4302808B8817
:102FC00083850B8803850A4B98420BD0094B9842A6
:102FD00008D00E4B984205D00D4B984202D00D4BB5
:102FE000984201D10B7A0386012383827047000047
:102FF000002C014000340140000400400008004063
:10300000000C00400010004000140040004001404F
:1030100000440140004801404FF6FF7181800021CB
:103020000180C180418001727047000030B589B0D5
:1030300005460C460121C802FEF798FE0121042036
:10304000FEF794FE01210846FEF790FE4FF48070D3
:10305000ADF8200018208DF8230003208DF8220001
:1030600008A91748FDF730FAADF81850ADF814402C
:103070000020ADF81A00ADF8160005A91148FFF7B9
:1030800079FF6020ADF804000020ADF80C000120AD
:10309000ADF8060001210B48FFF7D7FD01A909484B
:1030A000FFF780FE08210748FFF7C8FE0121054809
:1030B000FFF7B0FD01210348FFF7BBFD09B030BDAC
:1030C00000080140002C01407FB505460C46012157
:1030D0001020FEF73BFEADF80850ADF8044000208C
:1030E000ADF80A00ADF8060001A90F48FFF742FF4E
:1030F00001210D48FFF79AFD012211460A48FFF70A
:1031000048FE36208DF8000000208DF801000120D7
:103110008DF802008DF803006846FDF7FFFE0121DF
:103120000148FFF786FD7FBD0010004010B540F25A
:103130002551064800F06EF818B1044800F026F951
:10314000C4B24021014800F043F810BD004C0040DB
:1031500010B540F22551074800F05CF828B1054849
:1031600000F014F940B2044908704021014800F011
:103170002FF810BD003801400801002010B540F2C2
:1031800025510F4800F046F8A8B10D4800F0FEF8B0
:10319000C4B2092C0BDA0B480078052807DA094875
:1031A0000078401C074908700748047003E0092CA8
:1031B00001DD064804704021014800F009F810BD07
:1031C000004800400D0100200B0100200A010020F2
:1031D00001F40072B2F5007F00D100BFCA43028043
:1031E000704721B1828942F40052828104E08289D1
:1031F0004DF6FF731A408281704702460020B1F5F8
:10320000007F00D100BF13880B400BB1012000E00C
:103210000020704770B502460024002300250020DE
:1032200040F66A16B14200D100BFC1F3421501F069
:103230001F03012606FA03F3012D02D196893340BC
:1032400006E0022D02D1168A334001E0968A33400F
:103250000C12012606FA04F41688344013B10CB19E
:10326000012000E0002070BDF0B5034600240026D8
:103270000025002040F66A17B94200D100BF184669
:10328000C1F3421401F01F06012707FA06F5012CCD
:1032900001D10C3004E0022C01D1103000E01430D8
:1032A0001AB107682F43076002E00768AF43076061
:1032B000F0BD00002DE9F04786B005460E4600241B
:1032C000A24600BFA1460027B08900B100BF2F462B
:1032D0002C8A4CF6FF700440F08804432C82AC89A1
:1032E0004EF6F3100440B0883189084371890843D1
:1032F0000443AC81AC8A4FF6FF400440B0890443DC
:10330000AC8201A8FEF742FD1F48874202D1DDF8DA
:1033100010A001E0DDF80CA0A88900F4004040B145
:103320000AEBCA0000EB0A1031684900B0FBF1F863
:1033300007E00AEBCA0000EB0A1031688900B0FB15
:10334000F1F86420B8FBF0F004012009642101FBCE
:103350001089A88900F4004040B1322000EBC90078
:10336000B0FBF1F000F00700044308E0322000EB6E
:1033700009106421B0FBF1F000F00F0004432C8130
:1033800006B0BDE8F087000000380140014688889B
:10339000C0F308007047C1F3080282807047000044
:1033A00010B586B0044601211020FEF7DFFC012194
:1033B000C804FEF7CBFC4FF48060ADF81400032086
:1033C0008DF8160018208DF8170005A91E48FDF786
:1033D0007BF84FF40060ADF8140004208DF817005E
:1033E00005A91948FDF770F801940020ADF8080010
:1033F000ADF80A00ADF80C00ADF810000C20ADF8E7
:103400000E0001A91148FFF755FF01210F48FFF7F2
:10341000E8FE40210D48FFF7DBFE012240F2255176
:103420000A48FFF721FF34208DF8000003208DF8B3
:1034300001008DF8020001208DF803006846FDF7B9
:103440006DFD06B010BD000000100140004C0040B2
:1034500000BFFEE710B586B0044601210420FEF748
:1034600085FC01218803FEF781FC4FF40070ADF864
:10347000140003208DF8160018208DF8170005A9F8
:103480001E48FDF721F84FF48060ADF814000420C9
:103490008DF8170005A91948FDF716F801940020CA
:1034A000ADF80800ADF80A00ADF80C00ADF810005A
:1034B0000C20ADF80E0001A91148FFF7FBFE012119
:1034C0000F48FFF78EFE40210D48FFF781FE0122D5
:1034D00040F225510A48FFF7C7FE25208DF800006D
:1034E00000208DF8010003208DF8020001208DF8E6
:1034F00003006846FDF712FD06B010BD000801404C
:103500000038014010B586B0044601210820FEF7BE
:103510002DFC01218804FEF719FC4FF48060ADF802
:10352000140003208DF8160018208DF8170005A947
:103530001E48FCF7C9FF4FF40060ADF814000420EA
:103540008DF8170005A91948FCF7BEFF019400206B
:10355000ADF80800ADF80A00ADF80C00ADF81000A9
:103560000C20ADF80E0001A91148FFF7A3FE0121C0
:103570000F48FFF736FE40210D48FFF729FE0122D4
:1035800040F225510A48FFF76FFE27208DF8000012
:1035900000208DF801008DF8020001208DF8030055
:1035A0006846FDF7BBFC06B010BD0000000C0140F2
:1035B0000048004070B5054600244CE00B2D49D270
:1035C000DFE805F0060C12181E242A30363C4200B3
:1035D00024A000F0F9F8601CC4B23BE024A000F085
:1035E000F3F8601CC4B235E024A000F0EDF8601CD4
:1035F000C4B22FE024A000F0E7F8601CC4B229E0B8
:1036000024A000F0E1F8601CC4B223E024A000F084
:10361000DBF8601CC4B21DE024A000F0D5F8601CEB
:10362000C4B217E024A000F0CFF8601CC4B211E0CF
:1036300024A000F0C9F8601CC4B20BE024A000F084
:10364000C3F8601CC4B205E024A000F0BDF8601C03
:10365000C4B200BF00BF24480078012801D10A2C61
:10366000ACDB70BD706167652030FFFFFF000000BC
:10367000706167652031FFFFFF00000070616765C2
:103680002032FFFFFF000000706167652033FFFFFD
:10369000FF000000706167652034FFFFFF0000003D
:1036A000706167652035FFFFFF000000706167658E
:1036B0002036FFFFFF000000706167652037FFFFC5
:1036C000FF000000706167652038FFFFFF00000009
:1036D000706167652039FFFFFF000000706167655A
:1036E000203130FFFFFF00000C01002010B5002446
:1036F00000BF0CE001210748FFF74DFE00BF40214D
:103700000448FFF77AFD0128F9D1601CC4B20A2CE5
:10371000F0DB10BD004C004010B5002400BF0CE0F1
:1037200002210748FFF737FE00BF40210448FFF79A
:1037300064FD0128F9D1601CC4B20A2CF0DB10BD75
:10374000004C004010B5002400BF0CE003210748E6
:10375000FFF721FE00BF40210448FFF74EFD01287E
:10376000F9D1601CC4B20A2CF0DB10BD004C004043
:1037700010B5002400BF0CE004210748FFF70BFE42
:1037800000BF40210448FFF738FD0128F9D1601C33
:10379000C4B20A2CF0DB10BD004C004010B5002470
:1037A00000BF0CE009210748FFF7F5FD00BF4021ED
:1037B0000448FFF722FD0128F9D1601CC4B20A2C8D
:1037C000F0DB10BD004C0040014A024900F013B884
:1037D000653800081001002002E008C8121F08C167
:1037E000002AFAD170477047002001E001C1121F82
:1037F000002AFBD170472DE9F04116460F460446DA
:10380000002503E03946B047641C6D1C2078002871
:10381000F8D12846BDE8F0810146114A12884A4392
:103820004FF0E0235A6100229A611A46126942F071
:1038300001021A6100BF4FF0E022106900F001029E
:103840001AB100F48032002AF5D04FF0E02212695C
:1038500022F001024FF0E0231A6100229A617047C2
:103860000601002070B504460D46E1B20548FFF799
:1038700092FD00BF80210348FFF7BFFC0028F9D06C
:10388000204670BD004C0040002500244820FEF773
:1038900073FBFDF7DBF9FDF791F90A2141F61F40B3
:1038A000FDF730FA472144F61F60FFF7BFFB4FF4E6
:1038B000AF612948FFF72BFB4FF4E130FFF722FE01
:1038C0004FF4E130FFF76CFDFCF792FC00BF23489A
:1038D00000780028FBD04FF4E130FFF7BBFD204813
:1038E000006808B9012000E000201D4908600FE0D1
:1038F000FDF788F90446022C0AD101201949087005
:103900001748006808B9012000E000201449086049
:10391000012CEDD10A20FFF74DFE6420FFF77CFF5C
:1039200040F2CF2140F2E730FFF7CEFB13E0681CF6
:1039300085B2322095FBF0F100FB115040B9002513
:103940000748006808B9012000E000200449086029
:103950000A20FFF761FFEAE7002C01400B0100207D
:10396000888122420C0100208839000800000020D4
:1039700014010000D83700089C3A00081401002008
:1039800004040000E83700080000000001020304FE
:1039900001020304060708090204060800000000EB
:1039A0000000000000000000000000000000000017
:1039B0000000000000000000000000000000000007
:1039C00000000000000000000000000000000000F7
:1039D00000000000000000000000000000000000E7
:1039E00000000000000000000000000000000000D7
:1039F00000000000000000000000000000000000C7
:103A000000000000000000000000000000000000B6
:103A100000000000000000000000000000000000A6
:103A20000000000000000000000000000000000096
:103A30000000000000000000000000000000000086
:103A40000000000000000000000000000000000076
:103A50000000000000000000000000000000000066
:103A60000000000000000000000000000000000056
:103A70000000000000000000000000000000000046
:103A80000000000000000000000000000000000036
:0C3A90000000000000000000000000002A
:0400000508000131BD
:00000001FF
