:10040300120429D2B575A0FF7590FF7580FFC2B0A5
:10041300C2B185171A12001EE517FD7C00AF0EAEA0
:060423000D12028580EFBE
:030000000201F901
:0C01F900787FE4F6D8FD758120020240FA
:10044600EF1FAA0670011E4A600FE4FDEDC3947B00
:090456007480948050EA0D80F3DB
:01045F00227A
:10001E0020B2197F0A7E0012044620B20CC2B0D262
:10002E00B1D201C2B5D28CD28E30B2FD20B32B7FAD
:10003E000A7E0012044620B31EC2B0C2B1C201C273
:10004E008CC28EE4F509F50AF50BF50CF50DF50EDF
:10005E00C200851A17D2B530B3FD30010302011F5D
:10006E0030000302011F20B6197F0A7E00120446DB
:10007E0020B60C740A251AF51A740A2517F51730CE
:10008E00B6FD20B7197F0A7E0012044620B70C7405
:10009E00F6251AF51A74F62517F51730B7FD859063
:1000AE0008E5082481606124C0605324E060452483
:1000BE00F0603724F8602924FC601B24FE600D14C8
:1000CE00704F750D00750E01850F1722750D007599
:1000DE000E0285101722750D00750E03851117225D
:1000EE00750D00750E0485121722750D00750E051F
:1000FE0085131722750D00750E0685141722750DC2
:10010E0000750E0785151722750D00750E088516DC
:02011E001722A6
:0E0478003F065B4F666D7D077F6FFEFDFBF755
:100285008C188D19900482E493F5A074782FF5826B
:1002950074043EF583E493F5807F017E00120446E5
:1002A500900483E493F5A07580407F017E001204DD
:1002B50046900484E493F5A0AE18AF197C007D0A3E
:1002C50012030874782FF58274043EF583E493F5E0
:1002D500807F017E00120446900485E493F5A0AE6C
:1002E50018AF197C007D0A12030874782DF5827405
:1002F500043CF583E493F5807F017E001204467586
:03030500A0FF2234
:1003D700C101C10001171E020D0000010F0001102D
:1003E70000011100011200011300011400011500A2
:0B03F70001160002090000020B0000CC
:10042900758911758CD8758AF0758DD8758BF075AD
:0D043900A88BD288D28AD2B8C28CC28E2283
:10046000C201D200C28CC28EC2B57FC87E00120407
:0804700046D2B5D2B0C2B122A0
:03000B00020120CF
:10012000C0E0C0F0C083C082C0D075D000C000C0A5
:1001300001C002C003C004C005C006C007758CD84A
:10014000758AF02001030201DE859008E50812039C
:100150005D01CB7F01BEBF01B1DF01A4EF0197F7C5
:10016000018AFB017DFD0170FE01DEFF000001D868
:10017000750D00750E01120460050F8061750D008C
:10018000750E0212046005108054750D00750E0383
:1001900012046005118047750D00750E041204608D
:1001A0000512803A750D00750E0512046005138066
:1001B0002D750D00750E0612046005148020750D56
:1001C00000750E0712046005158013750D00750E7D
:1001D0000812046005168006750D00750E09D0071B
:1001E000D006D005D004D003D002D001D000D0D0AA
:0901F000D082D083D0F0D0E032BF
:03001B000203835A
:10038300C0E0C0D0758DD8758BF0050AE50A700200
:100393000509050CE50C7002050BC39432E50B94BB
:1003A300005004C2B58002D2B5E50A646445097001
:1003B3001EF509F50A1517D3E51794007480948088
:1003C300500D751700C201C28CC28EC200C2B5D0D7
:0403D300D0D0E03274
:10020500020403E493A3F8E493A34003F68001F208
:1002150008DFF48029E493A3F85407240CC8C333FA
:10022500C4540F4420C8834004F456800146F6DFC9
:10023500E4800B01020408102040809003D7E47E7F
:10024500019360BCA3FF543F30E509541FFEE493BE
:10025500A360010ECF54C025E060A840B8E493A385
:10026500FAE493A3F8E493A3C8C582C8CAC583CAB0
:10027500F0A3C8C582C8CAC583CADFE9DEE780BE68
:0104020000F9
:10030800BC000BBE0029EF8DF084FFADF022E4CCD9
:10031800F875F008EF2FFFEE33FEEC33FCEE9DECA2
:10032800984005FCEE9DFE0FD5F0E9E4CEFD22EDE8
:10033800F8F5F0EE8420D21CFEADF075F008EF2F32
:10034800FFED33FD4007985006D5F0F222C398FD23
:050358000FD5F0EA22C0
:10035D00D083D082F8E4937012740193700DA3A32F
:10036D0093F8740193F5828883E473740293686043
:06037D00EFA3A3A380DF43
:00000001FF
