:020000040800F2
:10000000700900202D220008CD070008CF07000846
:10001000D3070008D7070008DB070008000000002E
:10002000000000000000000000000000DF070008E2
:10003000E107000800000000E3070008E5070008EA
:1000400047220008472200084722000847220008EC
:1000500047220008472200084722000847220008DC
:1000600047220008472200084722000847220008CC
:1000700047220008472200084722000847220008BC
:1000800047220008472200084722000847220008AC
:10009000472200084722000847220008472200089C
:1000A000472200084722000847220008472200088C
:1000B000472200084722000847220008472200087C
:1000C000472200084722000847220008472200086C
:1000D000472200080D1C0008191D00088B1E00088F
:1000E000472200084722000847220008472200084C
:1000F000EB0E0008472200084722000847220008AC
:10010000472200084722000847220008472200082B
:10011000472200084722000847220008472200081B
:10012000472200084722000847220008472200080B
:1001300000F002F800F090F80AA090E8000C824469
:100140008344AAF10107DA4501D100F085F8AFF246
:10015000090EBAE80F0013F0010F18BFFB1A43F0A5
:1001600001031847B0680000D0680000103A24BFAF
:1001700078C878C1FAD8520724BF30C830C144BF0C
:1001800004680C607047000000230024002500264E
:10019000103A28BF78C1FBD8520728BF30C148BFEA
:1001A0000B6070476E2904F02982702904F0858362
:1001B000662905F05D86652905F05A86672905F0F0
:1001C00057866129AFF3008003681B0A28BF41F0FE
:1001D0008001692904F00280642903F0FF877529F2
:1001E00003F0FC876F2904F01283782904F051830F
:1001F000E92904F0AD82E42904F0AA82F52904F08B
:10020000A782EF2904F00F83F82904F050830368D4
:10021000DB0928BF41F08001632904F0B785732909
:1002200004F0BC85E32904F0C785F32904F0CC85EC
:10023000002070471FB504F01DFE040000200021BF
:1002400005F016FB401C60600020002105F0FAFA62
:10025000E0601FBD10B510BD04F0DEFD1146FFF7D4
:10026000E9FF00F06CF804F0BBFE03B4FFF7F2FF07
:1002700003BC01F047FC000010B500F053FD00F096
:10028000DBFC4FF4167001F010FC00F05FFD00F095
:10029000D3FC4FF4167001F008FC00F06AFD00F08A
:1002A000CBFC4FF4167001F000FC00F075FD00F07F
:1002B000C3FC10BD10B5FE4800780C283CD2DFE826
:1002C00000F03B06090E13181D22272C313601F0D1
:1002D0007FF832E0F748006801F015F92DE0F548A5
:1002E000006801F02FF928E0F248006801F049F9B0
:1002F00023E0F048006801F063F91EE0ED48006873
:1003000001F09CF919E0EB48006801F078F914E07D
:10031000E848006801F0B1F90FE0E648006801F034
:1003200037FA0AE0E348006801F008FA05E0E1481E
:10033000006801F0D9F900E000BF00BF10BD40F235
:100340008A2401F075FB4FF4FA7001F0AEFB4FF414
:10035000A06002F00FFD4FF4165001F00BFC4FF4BB
:10036000164001F03FFD00F0BFFC00F065FC01F01D
:1003700053F800F02DFD01F03DFA01F0EEFD00F024
:100380005FFBCDA1002000F0BBFB472140F2E7302E
:1003900000F039FD092140F2E73000F079FF00213B
:1003A000C94803F021FC0021C74803F01BFC0021D1
:1003B000C54803F015FC0021C34803F017FC4FF4B7
:1003C0008061C24802F061F84FF40071BF4802F04A
:1003D0005CF84FF40061BD4802F057F84FF48051CB
:1003E000BA4802F052F8E9E1B948007864286ED0C2
:1003F00018DC372860D008DCA0F13100062825D2AF
:10040000DFE800F01C25303B454F612878D004DC44
:1004100038285DD0392819D165E062287BD063285F
:10042000F9D183E065380E28E9D2DFE800F0A6AE06
:100430000F0F0FB4F6F4F3F2F1F0EFEE00F0C8FF97
:1004400001209B4908700020A1490870B5E1994836
:10045000006801F058F802209549087000209C4976
:100460000870AAE19348006801F06CF803209049F5
:1004700008700020964908709FE1204601F081F83D
:1004800004208B49087000209149087095E12046AE
:1004900001F096F805208649087000208C49087004
:1004A0008BE18448006801F0C9F806208049087093
:1004B00000208749087080E17E48006801F09FF8BD
:1004C00007207B49087000208149087075E141E0F0
:1004D0004FF4617001F0D1F80820754908700020D0
:1004E0007B49087069E14FF4617001F051F909200E
:1004F0006F4908700020764908705EE100E00AE06C
:100500004FF4617001F01AF90A206949087000205F
:100510006F49087051E14FF4617001F0E5F80B206C
:100520006349087000206A49087046E16148006824
:100530001430604908600846006840F2EE218842A5
:1005400002DD08465B490860FFF7B4FE0020604901
:10055000087032E157480068143856490860084668
:100560000068B0F5967F02DA4FF496700860FFF7E6
:10057000A1FE0020564908701FE100F0BFFB00F00B
:100580005BFB00205249087017E1FFF775FE002061
:100590004F49087011E101231A464FF47A71642023
:1005A00000F03FFD4B480078401C4A49087008465F
:1005B0000078642190FBF1F0303085B22A4650215A
:1005C000042000F052FA434800780A2190FBF1F031
:1005D00090FBF1F201FB1200303085B22A4658211F
:1005E000042000F042FA3B4800780A2190FBF1F227
:1005F00001FB1200303085B22A466021042000F051
:1006000034FA002032490870D7E0D0E0CBE0BCE0FB
:10061000ADE09AE087E03AE0FFE7012300224FF4E3
:100620007A71642000F0FDFC2A480078401E2949B8
:10063000087008460078642190FBF1F0303085B2F4
:100640002A465021042000F010FA224800780A219E
:1006500090FBF1F090FBF1F201FB1200303085B21B
:100660002A465821042000F000FA1A4800780A218E
:1006700090FBF1F201FB1200303085B22A46602176
:10068000042000F0F2F900201149087095E00122E1
:100690004FF47A71002000F032FD00200D490870FF
:1006A00008460078642190FBF1F0303085B213E009
:1006B000000000200400002020202020474120537B
:1006C000747564696F000000000400400010014070
:1006D0009E000020010000202A465021042000F046
:1006E000C4F9374800780A2190FBF1F090FBF1F251
:1006F00001FB1200303085B22A465821042000F058
:10070000B4F92F4800780A2190FBF1F201FB1200A6
:10071000303085B22A466021042000F0A6F900207E
:100720002849087049E04FF40061274801F0ABFE0A
:100730004FF4FA6001F0B9F94FF40061224801F07A
:10074000A4FE00201F49087037E04FF480511E4876
:1007500001F099FE40F2DC5001F0A7F94FF480510E
:10076000194801F092FE00201649087025E04FF468
:100770000071154801F087FE4FF48061124801F0C6
:1007800082FE00200F49087017E04FF400710E48F8
:1007900001F07BFE4FF480610B4801F076FE0020F3
:1007A0000849087009E000200649087005E001F0DA
:1007B0006DF800200349087000BF00BF14E6000078
:1007C000010000209E00002000100140704700BF83
:1007D000FEE700BFFEE700BFFEE700BFFEE7704791
:1007E00070477047704700000CB5002001900090E2
:1007F0006C48006840F480306A49086000BF69486E
:10080000006800F4003000900198401C01900098AE
:1008100018B90198B0F5A06FF1D16248006800F4F2
:10082000003010B10120009001E0002000900098FD
:10083000012843D15C48006840F010005A49086024
:100840000846006820F0030008600846006840F091
:1008500002000860534840685249486008464068B2
:1008600048600846406840F4806048600846406838
:1008700020F47C1048600846406840F4E810486066
:100880000846006840F08070086000BF4548006876
:1008900000F000700028F9D04248406820F00300C2
:1008A000404948600846406840F00200486000BF88
:1008B0003C48406800F00C000828F9D10CBD10B588
:1008C000FFF792FF10BD10B53648006840F00100F8
:1008D0003449086008464068344908403149486056
:1008E00008460068324908402E49086008460068FA
:1008F00020F4802008600846406820F4FE0048602C
:100900004FF41F008860FFF7DAFF4FF000602949BD
:10091000086010BD10B5002100200022214B5B684B
:1009200003F00C0121B1042906D0082928D107E0E1
:10093000214B224C236027E01F4B204C236023E0F7
:10094000184B5B6803F47010164B5B6803F480323D
:10095000022303EB904022B9194B4343174C236009
:100960000DE0104B5B6803F4003323B1144B434399
:10097000124C236003E0104B4343104C236003E010
:100980000D4B0E4C236000BF00BF064B5B68C3F3EA
:1009900003130C4CE15C094B1B68CB40074C2360F4
:1009A00010BD000000100240002002400000FFF8CF
:1009B000FFFFF6FE08ED00E000127A0008000020BC
:1009C00000093D000C00002000B587B01C228FA15B
:1009D000684603F022FD1C236A460021782001F0BE
:1009E000DBFA07B000BD70B5B0241BE02246002141
:1009F000782001F013FB10220021782001F00EFB7B
:100A000000221146782001F009FB002506E00022B3
:100A10004021782001F002FB681CC5B2842DF6DB72
:100A2000601CC4B2B82CE1DB70BD08B57EA00068C4
:100A3000009003236A460021782001F0ADFA08BD3A
:100A400010B5FFF7F2FFFFF7CEFFFFF7BDFF10BDB8
:100A500010B5044681220021782001F0DFFA2246F9
:100A60000021782001F0DAFA10BD2DE9F0470546A3
:100A70000C4616464FF0000AA01CC4B2D1463AE01C
:100A800005F1B000C2B20021782001F0C7FA274674
:100A9000E01704EB107000111030C2B20021782072
:100AA00001F0BCFAE01704EB10700011A4EB001089
:100AB000C2B20021782001F0B1FA4FF0000811E035
:100AC0000AEB0610A0F5007058490A5C4021782016
:100AD00001F0A4FA0AF1010000F0FF0A08F1010098
:100AE00000F0FF08B8F1080FEADB681CC5B209F195
:100AF000010000F0FF09B9F1020FC1DBBDE8F0878A
:100B000070B506460C46002508E014F8012BE806EF
:100B1000010E3046FFF7A9FF681CC5B220780028F7
:100B2000F3D170BD2DE9F04705460C4616464FF04F
:100B3000000AD14638E005F1B000C2B200217820A9
:100B400001F06CFA2746E01704EB1070001110302A
:100B5000C2B20021782001F061FAE01704EB1070B6
:100B60000011A4EB0010C2B20021782001F056FA67
:100B70004FF000080FE00AEB46102D490A5C4021B7
:100B8000782001F04BFA0AF1010000F0FF0A08F1A9
:100B9000010000F0FF08B8F1100FECDB681CC5B2D3
:100BA00009F1010000F0FF09B9F1020FC3DBAF2228
:100BB0000021782001F032FABDE8F08770B50024FA
:100BC00020E004F1B000C2B20021782001F026FA42
:100BD00010220021782001F021FA02220021782041
:100BE00001F01CFA002509E005EBC41011490A5C6C
:100BF0004021782001F012FA681CC5B2802DF3DB89
:100C0000601CC4B2082CDCDB70BD0000AE0010D547
:100C100080A83FD300B0408D14A1C8DA1281FFD95B
:100C2000F1DB302000A4A6AFAE8D1000745E00088A
:100C300074640008F464000870B5002411E0604892
:100C400010F8140004EB84015E4A1144C8705C483B
:100C500030F81400001204EB840111440871601C88
:100C6000C4B2062CEBDB00243BE0002514E000BFFF
:100C70005548008800F040000028F9D004EB8400BB
:100C800050490844405D5049091D08804F4800788C
:100C900000F00BFF681CC5B2052DE8DB00BF4A4819
:100CA000008800F040000028F9D00D204649091DB9
:100CB000088000BF4448008800F040000028F9D0B8
:100CC0000A204149091D088000BF3F48008800F004
:100CD00040000028F9D04FF4967000F0E6FE601C4A
:100CE000C4B2062CC1DB70BD40F2DC503449088030
:100CF00048808880C88008814881704740F2DC5075
:100D00002F49088040F6C410488040F22B2088808C
:100D100040F21440C88040F6C410088140F23550BB
:100D20004881704740F2DC502549088040F6C410E5
:100D3000488040F22B20888040F21440C88040F662
:100D4000C410088140F612104881704740F2DC5010
:100D50001B49088040F21E70488040F21360888072
:100D60004010C88040F6C410088140F61210488137
:100D7000704740F2DC501249088040F21E704880F3
:100D800040F2136088804010C88040F2DC50088137
:100D900040F612104881704740F2DC500849088044
:100DA00040F21E70488040F2136088804010C88076
:100DB00040F2DC50088140F2355048817047000015
:100DC00048000020290000200038014028000020B1
:100DD00008B50121102001F065FD0520ADF80000E7
:100DE00010208DF8030003208DF802006946FC48AE
:100DF00001F09CFA0121FA4801F045FB0421F84872
:100E000001F043FB08BD30B589B004460D46012111
:100E1000480301F047FD0121102001F043FD4FF48C
:100E2000C070ADF8200018208DF8230003208DF845
:100E3000220008A9EA4801F079FAADF81840ADF8A7
:100E400014500020ADF81A00ADF8160005A9E548C9
:100E500002F0D2F80121E34802F004FF0121E14849
:100E600002F07EFE0821DF4802F092FE7020ADF80D
:100E700004000120ADF806000020ADF80800601065
:100E8000ADF80A000020ADF80C0001A9D54802F029
:100E900032F90821D34802F044FD01A9D14802F0FB
:100EA00077F90821CF4802F049FD0121CD4802F031
:100EB000FFFC01221146CB4802F015FC2C208DF8D6
:100EC000000001208DF801008DF802008DF803006C
:100ED000684601F054FF0121C24802F0C3FE01211F
:100EE000C04802F0E5FB09B030BD10B50121BD4896
:100EF00002F0A7FE00285AD00121BA4802F0B2FE43
:100F0000B9480078002841D1B848006848B1FF20AE
:100F1000B44930310880B5480068401EB3490860C4
:100F200010E0B348007860B1B1480078401EAD4988
:100F3000303108800020AE4908700120AA490870AD
:100F400000E024E00121A74802F0D6FB0121A548DA
:100F500002F0BAFB0121A34802F0AAFBA5480078E1
:100F6000012809D19F4830300088401CA2490968F7
:100F70000844A14908601AE09A4830300088401CB3
:100F80009D490968081A9C49086010E000BF0120CB
:100F9000954908700021934802F096FB0021914882
:100FA00002F086FB9448016894A003F00BF910BD91
:100FB00070B505460E469548B0FBF5F0401E84B26C
:100FC0002146884802F00AFE012E02D0022E1ED1D0
:100FD0000EE000220821834802F06FFD0122042167
:100FE000804802F06AFD61107E4802F0FBFD0EE0D1
:100FF000002204217B4802F060FD0122082179488B
:1010000002F05BFD6110774802F0EEFD00BF00BF0B
:101010000021744802F0E0FD0121724802F048FB13
:1010200070BD2DE9F04104460D4617461E46002CC2
:1010300004DC77A003F0C6F8BDE8F08169480088B9
:1010400000F0010018B17DA003F0BCF8F4E7142D06
:1010500002D38948854203D9884803F0B3F8EBE707
:1010600064480770007886490860012E02D0022E7D
:101070000AD104E0834800685F49086004E08248C0
:1010800000685D49086000BF00BF5A480078012829
:1010900005D15948006820447C49086007E055485C
:1010A000007820B954480068001B78490860012E78
:1010B00002D0022E0AD104E0744800687149086029
:1010C00004E0724800687049086000BF00BF204615
:1010D000E11704EB11610912444A1160E11704EBB6
:1010E00011610912A4EB0121414A117000203E490F
:1010F000087031462846FFF75BFF00BF9CE770B5DC
:1011000004460D4616463748008800F0010018B125
:101110004AA003F057F870BD142D02D356488542FB
:1011200003D9564803F04EF8F5E758480460012EFD
:1011300002D0022E0ED106E0524800682E49086007
:101140005048046006E0504800682B4908604E484B
:10115000046000BF00BF4D48006827490968884205
:101160003BD04A48006824490968884203DD0120D1
:101170002049087002E000201E4908701D480078D0
:101180003F490860414A12681B4B1B68D11A00296D
:1011900001DB0A4600E04A421046D21700EB126219
:1011A0001212124B1A60394A1268134B1B68D11A7B
:1011B000002901DB0A4600E04A421046D21700EB44
:1011C00012621212A0EB0222094B1A70002006498B
:1011D000087031462846FFF7EBFE00BF9BE7000092
:1011E000001001400034014055000020580000204C
:1011F000540000206C00002060000020B5B1C7B092
:10120000CEBBD6C33D256C640D0A000040420F00E2
:101210000D0A546865206E756D2073686F756C6477
:101220002062652067726561746572207468616E02
:10123000207A65726F21210D0A0000000D0A5468A2
:1012400065206C6173742074696D652070756C73B2
:101250006573206973206E6F742073656E642066F9
:10126000696E69736865642C7761697420706C6558
:10127000617365210D0A0000A0860100CC69000899
:101280008001224264000020680000205C000020F1
:1012900030B589B005460C460121022001F00FFB54
:1012A00001210C2001F0FEFA0121084601F0FAFAB2
:1012B0000320ADF8200018208DF8230003208DF8BE
:1012C000220008A9FE4801F031F8C020ADF8200046
:1012D00018208DF8230003208DF8220008A9F94872
:1012E00001F024F84FF4F050ADF8200010208DF8F4
:1012F000230003208DF8220008A9F34801F016F816
:10130000ADF80850ADF804400020ADF80600ADF887
:101310000A0001A9ED4801F06FFE6020ADF8100051
:101320000020ADF818000120ADF8120004A9E7482C
:1013300001F02EFF0821E54802F000FB6020ADF827
:1013400010000020ADF818000120ADF8120004A92B
:10135000DE4801F01DFF0821DC4802F0EFFA6020B2
:10136000ADF810000020ADF818000120ADF8120013
:1013700004A9D64801F0BFFE0821D44802F0D1FAF2
:101380006020ADF810000020ADF818000120ADF885
:10139000120004A9CD4801F06CFE0821CB4802F0F0
:1013A000B7FA6020ADF810000020ADF81800012059
:1013B000ADF8120004A9C54801F035FF0821C34863
:1013C00002F0C5FA0121C14802F072F909B030BD3E
:1013D00010B54FF40051BC4801F057F80221BA484B
:1013E00001F053F84FF48041B74801F04EF808215E
:1013F000B54801F04AF81021B34801F046F8202121
:10140000B14801F042F84021AF4801F03EF8042114
:10141000AF4801F03AF810BD08B50121302001F0C5
:1014200041FA46F27A00ADF8000010208DF8030072
:1014300003208DF802006946A34800F077FF0420DE
:10144000ADF8000010208DF8030003208DF8020095
:1014500069469F4800F06AFFFFF7BAFF08BD10B564
:101460004FF40051984801F00EF80221964801F01F
:101470000CF810BD10B54FF40051934801F005F879
:101480000221914800F0FFFF10BD10B54FF48041DC
:101490008D4800F0F8FF08218B4800F0F6FF10BDE2
:1014A00010B54FF48041884800F0EFFF08218648CE
:1014B00000F0E9FF10BD10B51021834800F0E3FFF4
:1014C0002021814800F0E1FF10BD10B510217E48B9
:1014D00000F0DBFF20217C4800F0D5FF10BD10B5E7
:1014E0004021794800F0CFFF0421794800F0CDFF7A
:1014F00010BD10B54021744800F0C7FF04217448A6
:1015000000F0C1FF10BD10B504467249086880475D
:101510007049886880476F49086980476D498869C4
:101520008047A1B2694802F05BFBA1B2674802F0B4
:1015300059FBA1B2654802F057FBA1B2634802F023
:1015400055FB10BD10B504466249486880476149A3
:10155000C86880475F49486980475E49C8698047D5
:10156000A1B25A4802F03CFBA1B2584802F03AFB43
:10157000A1B2564802F038FBA1B2544802F036FB43
:1015800010BD10B5044653494868804751498868E2
:1015900080475049086980474E49C8698047A1B2D1
:1015A0004A4802F01DFBA1B2484802F01BFBA1B261
:1015B000464802F019FBA1B2444802F017FB10BDE7
:1015C00010B504464349086880474249C8688047C7
:1015D0004049486980473F4988698047A1B23B48F4
:1015E00002F0FEFAA1B2394802F0FCFAA1B2374883
:1015F00002F0FAFAA1B2354802F0F8FA10BD10B5BF
:101600000446344908688047324988688047314930
:10161000486980472F49C8698047A1B22B4802F02A
:10162000DFFAA1B2294802F0DDFAA1B2274802F0A0
:10163000DBFAA1B2254802F0D9FA10BD10B5044674
:101640002449486880472349C86880472149086978
:101650008047204988698047A1B21C4802F0C0FA3F
:10166000A1B21A4802F0BEFAA1B2184802F0BCFAC0
:10167000A1B2164802F0BAFA10BD10B504464FF4F4
:101680000051114800F0FFFE02210F4800F0FBFE60
:1016900040210D4800F0F7FE04210D4800F0F3FE54
:1016A0000C49886880470B4908698047A1B2074800
:1016B00002F098FAA1B2054802F096FA00210BE078
:1016C000000C0140000801400010014000040040EF
:1016D0000014014070000020424802F081FA00210D
:1016E000404802F083FA10BD10B504464FF4005193
:1016F0003D4800F0C8FE02213B4800F0C4FE4021F6
:10170000394800F0C0FE0421384800F0BCFE3849DA
:10171000C8688047364948698047A1B2314802F01D
:1017200061FAA1B22F4802F05FFA00212D4802F0C1
:1017300057FA00212B4802F059FA10BD10B50446A3
:101740004FF48041284800F09EFE0821264800F012
:101750009AFE1021244800F096FE2021224800F035
:1017600092FE2349486880472149C8698047A1B251
:101770001C4802F035FAA1B21A4802F037FA0021EB
:10178000184802F02FFA0021164802F02DFA10BD79
:1017900010B504464FF48041134800F074FE082150
:1017A000114800F070FE10210F4800F06CFE20215F
:1017B0000D4800F068FE0E49086880470C498869AA
:1017C0008047A1B2074802F00BFAA1B2054802F027
:1017D0000DFA0021034802F005FA0021014802F049
:1017E00003FA10BD00040040001001400014014045
:1017F000700000201FB50121082001F053F81820C7
:10180000ADF8000048208DF8030069461E4800F03E
:101810008DFD0121084601F045F80321012000F06B
:101820009BFE0820029000208DF80C000C208DF803
:101830000D0002A802F02AFC0421012000F08CFE19
:101840001020029002A802F021FC09208DF804006B
:1018500002208DF8050001208DF806008DF80700A4
:1018600001A801F08CFA0A208DF8040002208DF8FE
:10187000050000208DF8060001208DF8070001A862
:1018800001F07DFA1FBD0000000C014010B50024DE
:101890000CE000BF6048008800F040000028F9D04C
:1018A0005E48005D5C49091D0880641C032CF0DB68
:1018B00000BF5948008800F040000028F9D00D20F2
:1018C0005549091D088000BF5348008800F04000BA
:1018D0000028F9D00A205049091D088000BF4E4851
:1018E000008800F040000028F9D04FF47A7000F032
:1018F000DCF84B48008878B34A480078442801D186
:10190000012000E00020474949783D2901D101210B
:1019100000E000210840F8B14248827848210220C6
:10192000FFF7A3F83F48027950210220FFF79DF806
:101930003C48427958210220FFF797F82E22602177
:101940000220FFF792F83748827968210220FFF7DA
:101950008CF800203249088010BD2DE9FF474FF078
:10196000000A30480078442801D1012000E000201E
:101970002C4949783D2901D1012100E0002108408E
:1019800098B32848C0782E2828D126488078303847
:10199000642100FB01FA504604F057F804460D4656
:1019A0002049087904F068F84FF033321E4BCDE936
:1019B000000104F073F9064600221C4B04F070F895
:1019C000804622462B4603F069FFCDE9020104F070
:1019D0000DF882461348407930388244BAF1000F3E
:1019E00004DD504604B0BDE8F087FFE70020F9E7CA
:1019F00070B5054601260CE0FFF748FFFFF7ADFF85
:101A0000044604B1641B022C03DA14F1020F00DD5A
:101A10000026002EF0D170BD00480040900000204C
:101A2000A2000020480200203333D33F00002440AE
:101A300010B56FF0040001F0ECF92E4800682E4953
:101A4000B0FBF1F02D4908700846007800EB40012A
:101A5000C1EBC0104FF6FF7101EAC00028490880B1
:101A600010BD0146254A12784A434FF0E0235A61DF
:101A700000229A611A46126942F001021A6100BFFF
:101A80004FF0E022106900F001021AB100F4803238
:101A9000002AF5D04FF0E022126922F001024FF047
:101AA000E0231A6100229A6170470146144A1288A5
:101AB0004A434FF0E0235A6100229A611A461269A4
:101AC00042F001021A6100BF4FF0E022106900F0FD
:101AD00001021AB100F48032002AF5D04FF0E02262
:101AE000126922F001024FF0E0231A6100229A618C
:101AF000704700000800002000127A0094000020C7
:101B000096000020014600BF704700BFFD4A1288C2
:101B100002F04002002AF9D0C2B2FA4B1B1D1A8013
:101B200070470FB410B5B4B0002437A80090C92195
:101B300001A8009B369A02F02BFB0EE02046621CA7
:101B4000D4B201AA115CEF4801F04CF800BF40216B
:101B5000EC4801F0B5F80028F9D0C82C04DA01A847
:101B600002F03CFCA042E9D80020009034B010BC48
:101B70005DF814FB10B586B00446012144F2040060
:101B800000F090FE4FF40070ADF8140003208DF8C3
:101B9000160018208DF8170005A9DB4800F0C6FBD9
:101BA0004FF48060ADF8140004208DF8170005A9EB
:101BB000D54800F0BBFB25208DF8000003208DF8F0
:101BC00001008DF8020001208DF80300684601F045
:101BD000D6F801940020ADF80800ADF80A00ADF881
:101BE0000C00ADF810000C20ADF80E0001A9C5489E
:101BF00000F0FFFE012240F22551C24800F091FFA3
:101C00000121C04800F081FF06B010BD10B540F2C0
:101C10002551BC4801F06AF820B1BA4800F0E6FF4F
:101C2000BA49087010BD0FB410B5B4B0002437A87D
:101C30000090C92101A8009B369A02F0A9FA0EE093
:101C40002046621CD4B201AA115CB14800F0CAFF60
:101C500000BF4021AE4801F033F80028F9D0C82C6D
:101C600004DA01A802F0BAFBA042E9D800200090F3
:101C700034B010BC5DF814FB10B586B004460121E9
:101C8000042000F00FFE0121480400F018FE082097
:101C9000ADF8140004208DF8170005A99A4800F04B
:101CA00045FB0420ADF8140003208DF81600182021
:101CB0008DF8170005A9944800F038FB0194002026
:101CC000ADF80800ADF80A00ADF80C00ADF8100052
:101CD0000C20ADF80E0001A98D4800F08AFE00220C
:101CE00040F225518A4800F01CFF0121884800F08D
:101CF0000CFF4FF4E06001F03DF826208DF8000065
:101D000001208DF801008DF802008DF8030068466F
:101D100001F035F806B010BD10B540F225517C48F1
:101D200000F0E4FF10B37A4800F060FFC4B27948D5
:101D3000008800F40040C8B97648008800F480406C
:101D400060B10A2C03D000207249088020E071485D
:101D5000008840F400406F49088019E00D2C06D13E
:101D60006C48008840F480406A49088010E0694867
:101D70000088C0F30D0068490C5466480088401C78
:101D80006449088008460088C72801DD00200880D3
:101D900010BD0FB410B5B4B0002437A80090C9210D
:101DA00001A8009B369A02F0F3F90EE02046621C6F
:101DB000D4B201AA115C594800F014FF00BF4021C1
:101DC000564800F07DFF0028F9D0C82C04DA01A89D
:101DD00002F004FBA042E9D80020009034B010BC0F
:101DE0005DF814FB10B586B004460121082000F010
:101DF00059FD0121880400F062FD4FF40060ADF848
:101E0000140004208DF8170005A9454800F08EFA4B
:101E10004FF48060ADF8140003208DF816001820F0
:101E20008DF8170005A93E4800F080FA4FF4E060F5
:101E300000F0A0FF27208DF8000003208DF801009E
:101E40008DF8020001208DF80300684600F097FF2E
:101E500001940020ADF80800ADF80A00ADF80C00C0
:101E6000ADF810000C20ADF80E0001A92B4800F0D1
:101E7000C0FD012240F22551284800F052FE012108
:101E8000264800F042FE06B010BD10B540F22551C4
:101E9000224800F02BFF10B3204800F0A7FEC4B288
:101EA0002048008800F40040C8B91E48008800F4AB
:101EB000804060B10A2C03D000201A49088020E03D
:101EC0001848008840F400401649088019E00D2C9D
:101ED00006D11448008840F480401249088010E080
:101EE00010480088C0F30D000F490C540D480088BD
:101EF000401C0C49088008460088C72801DD0020E6
:101F0000088010BD00380140000801409E000020FC
:101F100000440040A0000020800100200048004054
:101F2000000C0140A20000204802002008B5012159
:101F30001C2000F0B7FC0121480500F0C0FCC020C7
:101F4000ADF800001C208DF8030003208DF802007E
:101F50006946B14800F0EAF908BD1FB5FFF7E6FF92
:101F60000020ADF804004BF6FF70ADF80600C0206D
:101F7000ADF808004FF48060ADF80A000001ADF83C
:101F80000C00A64800906946A54801F088FE012192
:101F9000A34801F002FF1FBD2DE9F04105460F46A1
:101FA00014461E4601219E4801F01BFF00BF9D49BB
:101FB0009B4801F0F7FF0028F9D0002229469848F5
:101FC00001F065FF00BF9849954801F0EBFF00283C
:101FD000F9D03946924801F054FF00BF9249891C5C
:101FE0008F4801F0DFFF0028F8D00CE021788C4802
:101FF00001F047FF641C00BF8B49891C884801F031
:10200000D1FF0028F8D0301EA6F101018EB2EDD12B
:102010000121834801F0F1FEBDE8F08170B504466E
:102020000E46154601217E4801F0DBFE00BF7D49CA
:102030007B4801F0B7FF0028F9D0002221467848FC
:1020400001F025FF00BF7849754801F0ABFF00287B
:10205000F9D03146724801F014FF00BF7249891C63
:102060006F4801F09FFF0028F8D029466C4801F026
:1020700008FF00BF6C49891C694801F093FF0028E4
:10208000F8D00121664801F0B8FE70BD2DE9F0419D
:1020900006460F4615461C4600BF4FF40031604807
:1020A00001F0A2FF0028F8D101215D4801F099FE5E
:1020B00000BF5C495A4801F075FF0028F9D00022A2
:1020C0003146574801F0E3FE00BF5749544801F03C
:1020D00069FF0028F9D00121514801F05EFE394620
:1020E0004F4801F0CEFE00BF4F49891C4C4801F01B
:1020F00059FF0028F8D00121494801F072FE00BFC5
:102100004849474801F04EFF0028F9D001223146E6
:10211000434801F0BCFE00BF4249491C404801F061
:1021200041FF0028F8D016E0012C07D100213C48DF
:1021300001F06FFE01213A4801F05FFE39493F315D
:10214000374801F02FFF30B1354801F09CFE287070
:102150006D1C601E84B2002CE6D10121304801F0D4
:1021600058FEBDE8F08170B504460D4600BF4FF43F
:1021700000312B4801F038FF0028F8D10121284810
:1021800001F02FFE00BF2749254801F00BFF002872
:10219000F9D000222146224801F079FE00BF2249F1
:1021A0001F4801F0FFFE0028F9D001211C4801F072
:1021B000F4FD29461A4801F064FE00BF1A49891C43
:1021C000174801F0EFFE0028F8D00121144801F073
:1021D00008FE00BF1349124801F0E4FE0028F9D0C0
:1021E000012221460E4801F052FE00BF0D49491C54
:1021F0000B4801F0D7FE0028F8D00021084801F074
:1022000008FE0121064801F0F8FD054801F03BFEFB
:102210000646304670BD0000000C0140400D030032
:102220000054004001000300820007000948804775
:1022300009480047FEE7FEE7FEE7FEE7FEE7FEE7A8
:10224000FEE7FEE7FEE7FEE704480549054A064BC0
:1022500070470000C7080008310100087003002023
:1022600070090020700500207005002010B504469C
:10227000CC48844208D10121042000F02DFB00212C
:10228000042000F029FB46E0C748844208D1012120
:10229000082000F021FB0021082000F01DFB3AE09F
:1022A000C248844208D10121102000F015FB002112
:1022B000102000F011FB2EE0BD48844208D101211E
:1022C000202000F009FB0021202000F005FB22E087
:1022D000B848844208D10121402000F0FDFA0021D5
:1022E000402000F0F9FA16E0B348844208D10121F9
:1022F000802000F0F1FA0021802000F0EDFA0AE0E1
:10230000AE48844207D10121801500F0E5FA002192
:10231000A01500F0E1FA10BD10B50121084600F04B
:10232000DBFA0021012000F0D7FA10BD2DE9F041C1
:10233000024600250026002000230024002791F8F3
:1023400003C00CF00F0591F803C00CF0100CBCF1A9
:10235000000F03D091F802C04CEA050591F800C0C7
:10236000BCF1000F31D0146800202BE04FF0010CBD
:102370000CFA00F3B1F800C00CEA03069E4220D12B
:1023800083004FF00F0C0CFA03F7BC4305FA03FC73
:102390004CEA040491F803C0BCF1280F06D14FF0B9
:1023A000010C0CFA00FCC2F814C00AE091F803C05A
:1023B000BCF1480F05D14FF0010C0CFA00FCC2F83B
:1023C00010C0401C0828D1D31460B1F800C0BCF183
:1023D000FF0F34DD546800202EE000F1080C4FF0B0
:1023E000010808FA0CF3B1F800C00CEA03069E429B
:1023F00021D183004FF00F0C0CFA03F7BC4305FA10
:1024000003FC4CEA040491F803C0BCF1280F05D189
:1024100000F1080C08FA0CF8C2F8148091F803C017
:10242000BCF1480F07D100F1080C4FF0010808FA81
:102430000CF8C2F81080401C0828CED35460BDE8C8
:10244000F0814FF6FF710180022181700421C1707B
:1024500070470246002093680B400BB1012000E05A
:10246000002070470146886880B27047024600200D
:10247000D3680B400BB1012000E0002070470146FB
:10248000C86880B2704701617047416170470AB106
:10249000016100E041617047C16070474FF48032D4
:1024A0000A43826181618261826982697047024662
:1024B0000020434B18684FF68073184040EA021022
:1024C00008433F4B186070473E49C8617047F0B5FC
:1024D0000A46002300240021002500F00046B6F142
:1024E000004F02D1364EF16901E0354E7168C0F3FC
:1024F000034583B200F44016B6F5401F08D121F021
:1025000070612F4E766826F070662D4F7E6012E067
:1025100000F48016B6F5801F06D1032606FA05F4EE
:10252000A14341F0706106E0460D360103FA06F65C
:10253000B14341F0706122B1460D360103FA06F64F
:10254000314300F00046B6F1004F02D11C4EF1615C
:1025500001E01B4E7160F0BD30B500228B071C0FEF
:102560000F2303FA04F2164B08338C1053F824306F
:102570009343134C08348D1044F8253023468C10B7
:1025800053F824308C07240F00FA04F423430C4C36
:1025900008348D1044F8253030BD0A49DC3108601C
:1025A0007047000000080140000C0140001001408D
:1025B0000014014000180140001C014000200140AF
:1025C0000000014000002042DF48006840F00100A8
:1025D000DD49086008464068DC490840DA4948603F
:1025E00008460068DA490840D7490860084600688C
:1025F00020F4802008600846406820F4FE0048600F
:102600004FF41F0088607047CF49096821F480317A
:10261000CD4A11601146096821F480211160B0F59E
:10262000803F03D0B0F5802F0ED106E0C64909687F
:1026300041F48031C44A116007E0C349096841F49C
:10264000A021C14A116000E000BF00BF704710B573
:1026500001460022002300204A11012A02D1BA4C6F
:10266000236806E0022A02D1B74C236A01E0B64C87
:10267000636A01F01F02012494401C400CB1012048
:1026800000E0002010BD38B5002000900024002597
:1026900000BF3120FFF7DBFF05460098401C00908B
:1026A0000098B0F5A06F01D0002DF2D03120FFF7D7
:1026B000CEFF08B1012400E00024204638BD0146C9
:1026C0000020A14A106820F0F80040EAC100106024
:1026D0007047A04908607047024600209A4B58682E
:1026E00020F47C1042EA01031843974B586070476E
:1026F00098490866704701460020934A506820F0C8
:1027000003000843506070478F48406800F00C0099
:102710007047014600208C4A506820F0F0000843C2
:102720005060704701460020874A506820F4E060FE
:1027300008435060704701460020834A506820F4E7
:10274000605040EAC1005060704729B17E4A527A19
:1027500002437D4B5A7204E07B4A527A82437A4BA1
:102760005A7270477B49D831086070470146002093
:10277000754A506820F4404008435060704700217B
:10278000714A20321170704A82F82010012802D05C
:1027900004280AD104E001216B4A2032117005E0BF
:1027A0000521694A2032117000E000BF00BF704768
:1027B0006949086070476449096A0143624A1162C5
:1027C0007047654944390860704730B500210022E0
:1027D000002400235C4D6D6805F00C0121B1042933
:1027E00005D0082923D105E05C4D056022E05B4D52
:1027F00005601FE0544D6D6805F47012524D6D6810
:1028000005F48034022505EB92421CB9544D554322
:1028100005600BE04C4D6D6805F400351DB1504D61
:102820005543056002E04D4D5543056002E04B4DB8
:10283000056000BF00BF444D6D6805F0F001090957
:10284000484D6B5C0568DD4045603F4D6D6805F4A3
:10285000E061090A434D6B5C4568DD4085603A4D97
:102860006D6805F46051C90A3E4D6B5C4568DD40FA
:10287000C560354D6D6805F44041890B3A4D6B5C80
:10288000C568B5FBF3F5056130BD29B12E4A526923
:1028900002432D4B5A6104E02B4A526982432A4B72
:1028A0005A61704729B1284A92690243264B9A61BE
:1028B00004E0254A92698243234B9A61704729B10B
:1028C000214AD2690243204BDA6104E01E4AD269F0
:1028D00082431D4BDA61704729B11B4AD26802431B
:1028E000194BDA6004E0184AD2688243164BDA606A
:1028F000704729B1144A12690243134B1A6104E06C
:10290000114A12698243104B1A61704712494039CB
:10291000086070470F49C86470470B49C871704719
:102920000948406A40F08070074948627047014694
:102930000020054A92680A400AB1012000E0002008
:102940007047014988727047001002400000FFF88C
:10295000FFFFF6FE000042428004424200127A006D
:1029600000093D00A4000020B400002010B504467A
:10297000FB48844209D101218803FFF7ADFF002104
:102980004FF48040FFF7A8FF32E0F648844209D1B7
:1029900001214804FFF7ADFF00214FF40030FFF79D
:1029A000A8FF25E0F048844209D101218804FFF7FF
:1029B000A0FF00214FF48020FFF79BFF18E0EB48B9
:1029C000844209D10121C804FFF793FF00214FF48D
:1029D0000020FFF78EFF0BE0E548844208D101217B
:1029E0000805FFF786FF00214FF48010FFF781FFF5
:1029F00010BD2DE9F04786B005460E460024A246DC
:102A000000BFA1460027B08900B100BF2F462C8A25
:102A10004CF6FF700440F08804432C82AC894EF6DB
:102A2000F3100440B0883189084371890843044396
:102A3000AC81AC8A4FF6FF400440B0890443AC82BD
:102A400001A8FFF7C2FEC648874202D1DDF810A0F8
:102A500001E0DDF80CA0A88900F4004040B10AEBC9
:102A6000CA0000EB0A1031684900B0FBF1F807E03A
:102A70000AEBCA0000EB0A1031688900B0FBF1F8DC
:102A80006420B8FBF0F004012009642101FB1089E7
:102A9000A88900F4004040B1322000EBC900B0FB2F
:102AA000F1F000F00700044308E0322000EB0910C9
:102AB0006421B0FBF1F000F00F0004432C8106B05C
:102AC000BDE8F0874FF41651016000218180C1807C
:102AD00001810C21418100218181704710B502469E
:102AE0000020108A4FF2FF0318400B884C882343C4
:102AF0008C882343CC8823431843108210BD0021C7
:102B0000018041808180C180704721B1828942F477
:102B10000052828104E082894DF6FF731A4082815F
:102B20007047F0B50346002400260025002040F63B
:102B30006A17B94200D100BF1846C1F3421401F030
:102B40001F06012707FA06F5012C01D10C3004E01D
:102B5000022C01D1103000E014301AB107682F4365
:102B6000076002E00768AF430760F0BD1AB1838ACF
:102B70000B43838202E0838A8B4383827047028AFD
:102B80004FF6F0731A400282028A0A4302827047AB
:102B900082894FF2FF731A40828182890A438281BF
:102BA000704721B1828942F00202828104E0828969
:102BB0004FF6FD731A4082817047028A4FF6DF7329
:102BC0001A400282028A0A430282704721B1028AB5
:102BD00042F48042028204E0028A4BF6FF731A40FC
:102BE00002827047C1F308028280704701468888DC
:102BF000C0F308007047818941F00101818170476D
:102C0000028BD2B20283028B42EA01220283704716
:102C1000028B02F47F420283028B0A4302837047D5
:102C200021B1828A42F02002828204E0828A4FF639
:102C3000DF731A408282704721B1828A42F010020B
:102C4000828204E0828A4FF6EF731A4082827047D4
:102C500021B1828A42F00802828204E0828A4FF621
:102C6000F7731A408282704721B1828942F4004290
:102C7000828103E08289C2F30E028281704721B112
:102C8000828A42F40062828204E0828A4FF2FF73F9
:102C90001A4082827047828A4FF6FB731A40828202
:102CA000828A0A438282704721B1828A42F00202FC
:102CB000828204E0828A4FF6FD731A408282704756
:102CC00002460020B1F5007F00D100BF13880B4001
:102CD0000BB1012000E00020704701F40072B2F552
:102CE000007F00D100BFCA430280704770B5024622
:102CF000002400230025002040F66A16B14200D1CE
:102D000000BFC1F3421501F01F03012606FA03F3C9
:102D1000012D02D19689334006E0022D02D1168A98
:102D2000334001E0968A33400C12012606FA04F47F
:102D30001688344013B10CB1012000E0002070BDB2
:102D400010B50022002340F66A14A14200D100BF52
:102D50000A1201249440A3B2DC43048010BD000099
:102D6000003801400044004000480040004C004052
:102D70000050004031490143314A1160704770B53D
:102D8000002100230F22C47804B32D4C246804F4DE
:102D9000E064C4F5E064210AC1F10403CA40447848
:102DA00004FA03F18478144021430901254C067884
:102DB000A155047804F01F050124AC4005786D117D
:102DC000AD0005F1E025C5F8004109E0047804F004
:102DD0001F050124AC401C4D0678761145F82640AD
:102DE00070BD1A4A0A400243154B1B1F1A607047F8
:102DF00039B1134A121D12680243114B1B1D1A6090
:102E000006E00F4A121D126882430D4B1B1D1A600B
:102E10007047042808D14FF0E021096941F004010E
:102E20004FF0E022116107E04FF0E021096921F045
:102E300004014FF0E0221161704700000000FA0524
:102E40000CED00E000E400E080E100E080FFFF1F07
:102E500010B50446FE48844208D10121C014FFF792
:102E60003BFD0021E014FFF737FDC4E0B4F1804FD3
:102E700008D101210846FFF73CFD00210120FFF7A2
:102E800038FDB8E0F348844208D101210220FFF761
:102E900030FD00210220FFF72CFDACE0EE4884421B
:102EA00008D101210420FFF724FD00210420FFF7B1
:102EB00020FDA0E0E948844208D101210820FFF765
:102EC00018FD00210820FFF714FD94E0E448844237
:102ED00008D101211020FFF70CFD00211020FFF781
:102EE00008FD88E0DF48844208D101212020FFF757
:102EF00000FD00212020FFF7FCFC7CE0DA48844242
:102F000008D101214014FFF7E7FC00216014FFF70E
:102F1000E3FC70E0D548844209D10121C804FFF7E1
:102F2000DBFC00214FF40020FFF7D6FC63E0D04823
:102F3000844209D101210805FFF7CEFC00214FF49E
:102F40008010FFF7C9FC56E0CA48844209D101212C
:102F50004805FFF7C1FC00214FF40010FFF7BCFC4F
:102F600049E0C548844208D101214020FFF7C1FC57
:102F700000214020FFF7BDFC3DE0C048844208D15D
:102F800001218020FFF7B5FC00218020FFF7B1FC74
:102F900031E0BB48844208D101218015FFF7A9FC2C
:102FA0000021A015FFF7A5FC25E0B648844209D111
:102FB00001210804FFF790FC00214FF48030FFF757
:102FC0008BFC18E0B048844209D101214804FFF786
:102FD00083FC00214FF40030FFF77EFC0BE0AB4890
:102FE000844208D101218804FFF776FC00214FF4C8
:102FF0008020FFF771FC10BD00220288944B98429C
:103000000ED0994B98420BD0B0F1804F08D0914B25
:10301000984205D0904B984202D0904B984204D1F0
:103020004FF68F731A404B881A438D4B984207D046
:103030008C4B984204D04FF6FF431A40CB881A437A
:1030400002808B8883850B880385814B98420BD047
:10305000854B984208D08B4B984205D08A4B9842BA
:1030600002D08A4B984201D10B7A038601238382D6
:10307000704770B5002400220023058C4FF6FE76C1
:1030800035400584028C8388048B4FF68F752C4065
:10309000B51E2C400D882C43751E2A400D892A43ED
:1030A0004D882A436A4DA8420BD06F4DA84208D0E4
:1030B000744DA84205D0744DA84202D0734DA84269
:1030C00013D14FF6F7752A404D892A434FF6FB7509
:1030D0002A408D882A434FF6FF652B404FF6FF5557
:1030E0002B408D892B43CD892B4383800483CD884E
:1030F0008586028470BD70B5002400220023058CF3
:103100004FF6EF7635400584028C8388048B48F6B1
:10311000FF752C404FF6FF452C400D884FF6FF768B
:1031200006EA05252C434FF6DF752A400D8906EA8D
:1031300005152A434D8806EA05152A43444DA84241
:1031400002D0494DA8421DD14FF67F752A404D89C6
:103150004FF6FF7606EA05152A434FF6BF752A405B
:103160008D8806EA05152A434FF6FF352B404FF2AE
:10317000FF752B408D8906EA85052B43CD8906EA2C
:1031800085052B4383800483CD880587028470BD29
:1031900070B5002400220023058C4FF6FF663540F1
:1031A0000584028C8388848B4FF68F752C404FF6F4
:1031B000FC752C400D882C434FF6FF552A400D8995
:1031C0004FF6FF7606EA05252A434D8806EA0525CF
:1031D0002A431F4DA84202D0234DA8421DD14FF2D1
:1031E000FF752A404D894FF6FF7606EA05252A43EA
:1031F0004FF6FF352A408D8806EA05252A434EF60C
:10320000FF752B404DF6FF752B408D8906EA05159D
:103210002B43CD8906EA05152B4383808483CD8813
:103220008587028470BD70B5002200230024058CC0
:103230004EF6FF7635400584038C8488828B48F6F1
:10324000FF752A404FF6FF452A400D8820E0000018
:10325000002C01400004004000080040000C004029
:10326000001000400014004000340140004C0140B8
:10327000005001400054014000180040001C004074
:10328000002000400040014000440140004801404F
:103290004FF6FF7606EA05252A434DF6FF752B40CB
:1032A0000D8906EA05352B434D8806EA05352B4383
:1032B000FA4DA84202D0FA4DA84208D14BF6FF754C
:1032C0002C408D894FF6FF7606EA85152C438480C5
:1032D0008283CD88A0F84050038470BD828B4FF26A
:1032E000FF331A408283828B4FF6FF7303EA012378
:1032F0001A4382837047F0B50C4615460022002120
:103300000026078C4EF6FF7C07EA0C070784828BA9
:10331000018C4FF6FF7707EA043640F6FF473A4044
:103320004FF6FF7707EA05273A434FF6FF7707EA9C
:1033300003373A43D94FB8420ED0D94FB8420BD0D9
:10334000B0F1804F08D0D74FB84205D0D64FB84221
:1033500002D0D64FB84206D14DF6FF77394046F439
:103360008057394305E047F6FF57394044F480570A
:10337000394382830184F0BD828B4FF6F3731A4088
:103380008283828B0A4382837047F0B50C461546D0
:10339000002200210026078C4FF6FF6C07EA0C077D
:1033A0000784828B018C4FF6FF7707EA04264FF6DD
:1033B0000C773A404FF6FF7707EA03172F433A435B
:1033C000B64FB8420ED0B64FB8420BD0B0F1804FD6
:1033D00008D0B44FB84205D0B34FB84202D0B34F73
:1033E000B84206D14FF6FF57394046F4807739434B
:1033F00005E04FF2FF57394044F480773943828328
:103400000184F0BD028B4FF2FF331A400283028B1E
:103410004FF6FF7303EA01231A4302837047F0B5A6
:103420000C461546002200210026078C4FF6EF7C43
:1034300007EA0C070784028B018C4FF6FF7707EA37
:10344000041640F6FF473A404FF6FF7707EA033786
:103450003A434FF6FF7707EA05273A438F4FB842C2
:103460000ED08F4FB8420BD0B0F1804F08D08D4FA7
:10347000B84205D08C4FB84202D08C4FB84206D12A
:103480004FF6DF77394046F01007394305E04FF635
:103490005F77394044F01007394302830184F0BD5F
:1034A000028B4FF6F3731A400283028B0A430283A6
:1034B0007047F0B50C46154600220021068C4FF6E9
:1034C000FE773E400684028B018C4FF60C7632402C
:1034D0007E1C06EA03162E433243704EB0420ED0D5
:1034E0006F4EB0420BD0B0F1804F08D06D4EB0425D
:1034F00005D06D4EB04202D06C4EB04206D14FF6B0
:10350000FD76314044F00106314305E04FF6F57693
:10351000314044F00106314302830184F0BD70B5AF
:1035200005460C465D4885420ED05D4885420BD06D
:10353000B5F1804F08D05B48854205D05A48854296
:1035400002D05A48854200D100E000BF208850B91F
:103550002389A28861882846FFF7ABFFE1882846C7
:10356000FFF79EFF25E0208804280AD12389A2883E
:1035700061882846FFF753FFE1882846FFF742FF9E
:1035800017E0208808280AD12389A2886188284664
:10359000FFF7FBFEE1882846FFF7EEFE09E02389EE
:1035A000A28861882846FFF7A6FEE1882846FFF733
:1035B00095FE70BD2DE9F04105460C460026012719
:1035C000608808B9022600E00026A088012801D101
:1035D000022700E001272088A0B92389A2886188FA
:1035E0002846FFF766FFE1882846FFF759FF238941
:1035F0003A4631462846FFF712FFE1882846FFF792
:1036000001FF13E02389A28861882846FFF707FF9E
:10361000E1882846FFF7F6FE23893A4631462846D8
:10362000FFF747FFE1882846FFF73AFFBDE8F08142
:103630000A884B881A438B881A43CB881A430B8914
:103640001A434B891A438B891A43A0F844207047C8
:103650004FF6FF71818000210180C180418001729D
:1036600070470021018041808180C18001814181BA
:103670008181C181704700210180418001218180C9
:103680000021C1800181704700210180418081803B
:10369000C18001814181818170470000002C01407F
:1036A000003401400004004000080040000C0040CD
:1036B00021B1028842F00102028004E002884FF644
:1036C000FE731A400280704731B1B0F8442042F4D2
:1036D0000042A0F8442005E0B0F84420C2F30E02F6
:1036E000A0F8442070471AB183890B43838102E01C
:1036F00083898B43838170478182704741EA02034B
:10370000A0F8483070471AB183890B43838102E0E7
:1037100083898B438381704701894FF6F87211408A
:10372000018170470A46002101894FF68F731940C5
:1037300011430181704730B504460D4629462046A5
:10374000FFF7F0FF208940F00700208130BD2DE910
:10375000F04104460D4616461F46602D06D13B46F5
:10376000012231462046FFF75AFE05E03B46012282
:1037700031462046FFF79DFE29462046FFF7D2FF3F
:10378000208940F007002081BDE8F08130B50C466B
:1037900000210189C9B24FF6FF7505EA03251543DB
:1037A00025432943018130BD2DE9F04105460E46F0
:1037B00017469846002443463A4631462846FFF7C6
:1037C000E5FF2C894FF6F870044044F007044FF6EB
:1037D0008F70044044F070042C81BDE8F081F0B596
:1037E00004460D4616461F463B46324629462046AD
:1037F000FFF7CCFF208940F480402081F0BD018597
:10380000828270470A46002101884FF68F73194063
:10381000114301807047F0B50C4615461E46002145
:10382000002200230189028B038C4FF6F877394080
:1038300021434FF6FC473A4040F201173A434FF616
:10384000DD773B404FF6FF7707EA06172F433B43F0
:10385000018102830384F0BD0A460021018B4FF6EB
:103860008F7319401143018370470A460021018B71
:1038700048F6FF7319404FF6FF7303EA022319431A
:10388000018370470A460021818B4FF68F731940E0
:103890001143818370470A460021818B48F6FF73EC
:1038A00019404FF6FF7303EA0223194381837047DF
:1038B00021B1028842F08002028004E002884FF6C3
:1038C0007F731A400280704721B1828842F004025F
:1038D000828004E082884FF6FB731A408280704732
:1038E00021B1828842F00802828004E082884FF68B
:1038F000F7731A408280704721B1828842F001023A
:10390000828004E082884FF6FE731A4082807047FE
:103910000A460021018B4FF6F773194011430183CA
:1039200070470A460021018B4FF2FF7319404FF692
:10393000FF7303EA02231943018370470A460021FB
:10394000818B4FF6F77319401143818370470A4604
:103950000021818B4FF2FF7319404FF6FF7303EA8A
:1039600002231943818370470A460021018B4FF6D9
:10397000FB7319401143018370470A460021018BF4
:103980004FF6FF3319404FF6FF7303EA0223194342
:10399000018370470A460021818B4FF6FB73194063
:1039A0001143818370470A460021818B4FF6FF3314
:1039B00019404FF6FF7303EA0223194381837047CE
:1039C0000A460021018B4FF67F7319401143018392
:1039D00070470A460021018BC1F30E014FF6FF73B9
:1039E00003EA02231943018370470A460021818BB1
:1039F0004FF67F7319401143818370470A460021B7
:103A0000818BC1F30E014FF6FF7303EA02231943C2
:103A1000818370470A460021018C4FF6FD731940DF
:103A20001143018470470A460021018C4FF6F77359
:103A300019401143018470470A460021018C4FF65A
:103A4000DF7319404FF6FF7303EA02131943018431
:103A500070470A460021018C4FF67F7319404FF6DC
:103A6000FF7303EA02131943018470470A460021D9
:103A7000018C4FF6FF5319404FF6FF7303EA022300
:103A80001943018470470A460021018C4FF2FF73ED
:103A900019404FF6FF7303EA02231943018470476C
:103AA0000A460021018C4DF6FF7319404FF6FF7353
:103AB00003EA023319430184704730B5002301241F
:103AC0008C40A3B2048C9C430484048C02FA01F55C
:103AD000ADB22C43048430BD30B5002304248C40A7
:103AE000A3B2048C9C430484048C02FA01F5ADB2A9
:103AF0002C43048430BD70B50346002000241846D2
:103B0000183001258D40ACB21D8CA5431D8409B130
:103B1000082909D100EB6100056825F070050560F2
:103B20000568154305600EE00D1FC5F34E052844DA
:103B3000056825F4E045056005684FF6FF7606EA5E
:103B400002263543056070BD21B1028842F00202B1
:103B5000028004E002884FF6FD731A40028070472D
:103B600021B1028842F00402028004E002884FF68C
:103B7000FB731A400280704721B1828842F08002B4
:103B8000828004E082884FF67F731A4082807047FB
:103B900002884FF6F7731A40028002880A430280B7
:103BA000704782884FF68F731A40828082880A435A
:103BB0008280704702894FF6F8731A4002810289A9
:103BC0000A430281704702894FF67F731A400281CF
:103BD00002890A430281704781847047818570475A
:103BE000818670470187704781877047A0F8401031
:103BF000704702884FF6FF431A40028002880A434A
:103C0000028070470146888E70470146088F7047D2
:103C10000146888F70470146B1F840007047014661
:103C2000888C70470146088D704702460020138A31
:103C30000B400BB1012000E000207047CA43028214
:103C4000704730B50246002000230024158A05EA9B
:103C50000103958905EA010413B10CB1012000E0CC
:103C6000002030BDCA4302827047000010B50446F0
:103C7000F748844209D101214805FEF73AFE0021A8
:103C80004FF40010FEF735FE08E001218805FEF72D
:103C900030FE00214FF48000FEF72BFE10BD2DE911
:103CA000F04385B004460D460026B1460427DFF8F0
:103CB000A483A6884FF6C07006406846FEF785FDCF
:103CC000DDF80880E448B8FBF0F01FFA80F946EA16
:103CD0000906A68020884FF6FE7108402080002645
:103CE000DE49286888420CD828684000B8FBF0F00C
:103CF00087B2042F00DA04273E4309F10100208433
:103D000027E0E8884BF6FF71884206D1286800EB6F
:103D10004000B8FBF0F087B209E0286800EBC00172
:103D200001EB0010B8FBF0F087B247F48047C7F30F
:103D30000B0008B947F0010747F4004006434FF471
:103D4000967009FB00F04FF47A7190FBF1F0401C83
:103D50002084A683208840F00100208026884FF62A
:103D6000F5300640A8886989084306432680A8895B
:103D700029890843208105B0BDE8F08341F28831EC
:103D80000160002181804BF6FF71C180002101811B
:103D900041814FF480418181704721B1028842F016
:103DA0000102028004E002884FF6FE731A4002808E
:103DB000704721B1828842F40062828004E08288E8
:103DC0004FF2FF731A408280704721B1828842F41B
:103DD0008052828004E082884EF6FF731A4082800F
:103DE000704721B1028842F48072028004E00288A8
:103DF0004FF6FF631A400280704721B1028842F4F7
:103E00000072028004E002884FF6FF531A400280DD
:103E1000704721B1028842F48062028004E0028887
:103E20004FF6FF331A40028070470A46002181890D
:103E30004FF60173194002F0FE0319438181704768
:103E400021B1828942F00102828104E082894FF629
:103E5000FE731A408281704721B1028842F040020D
:103E6000028004E002884FF6BF731A400280704758
:103E70001AB183880B43838002E083888B4383805D
:103E80007047018270470146088AC0B2704712B17C
:103E900041F0010102E04FF6FE73194001827047C4
:103EA00008B5024600200090009200980844009057
:103EB0000098008808BD21B1028842F400420280C7
:103EC00003E00288C2F30E0202807047B1F5006F72
:103ED00004D1028842F40062028004E002884FF2BA
:103EE000FF731A4002807047B1F5005F04D1028869
:103EF00042F40052028004E002884DF6FF731A403B
:103F00000280704721B1028842F48052028004E0AE
:103F100002884EF6FF731A4002807047B1F5006FB9
:103F200004D1028842F40062028004E002884FF269
:103F3000FF731A400280704721B1028842F02002CC
:103F4000028004E002884FF6DF731A400280704757
:103F50000146088B0012704721B1028842F010021E
:103F6000028004E002884FF6EF731A400280704727
:103F700021B9028842F08002028004E002884FF6F4
:103F80007F731A4002807047B1F5804F05D0828B55
:103F90004BF6FF731A40828303E0828B42F4804227
:103FA0008283704770B5024600240025002300205C
:103FB000958A138B1B0445EA030626F07F4404EA26
:103FC00001068E4201D1012000E0002070BD10B535
:103FD00001460020002300228B8A0A8B120443EA48
:103FE000020424F07F4010BD0CB5024600200023DF
:103FF0000193009300920B0F019321F07F41019BED
:104000001BB1009B1433009303E0090C009B183391
:104010000093009B1B680B400BB1012000E00020C7
:104020000CBD002221F07F42D3438382704730B51C
:10403000024600200023948801F0E06504EA15435D
:1040400021F07F41948A0C4054B14BB1012008E02B
:104050000054004000127A0040420F00A086010088
:10406000002030BD002221F07F42D343838270477D
:10407000002044490860091D0860091D0860091DE9
:10408000086041483F4914310860704700213D49AC
:104090008279002A3AD00A46126803689A430B468E
:1040A0001A600A1D126803689A430B1D1A60027990
:1040B00011440A6803681A430A60324A08321268D7
:1040C00003689A432F4B08331A601A1D126803685D
:1040D0009A432C4B0C331A604279102A0ED11A1FC6
:1040E000126803681A43274B08331A601A1D1268B6
:1040F00003681A43234B0C331A600DE021494279BF
:1041000011440A6803681A430A6005E00279114401
:104110000A6803689A430A607047002101600171D0
:104120000C214171002181717047164910310968D5
:104130000143144A10321160704701460020114AB1
:10414000143212680A400AB1012000E000207047D2
:104150000C49143108607047014600200022094BC9
:104160001B6803EA0102074B14331B680B4013B1B1
:104170000AB1012000E000207047024914310860B4
:104180007047000000040140FFFF0F00704700006F
:104190007CB51D4616460C00009001D02044401E00
:1041A000074B7B442A4669460190304600F03FFAAF
:1041B00005461CB10020694600F04CFA28467CBD3B
:1041C000B90400000FB4044910B503AA029800F026
:1041D0004FFA10BC5DF814FB980000202DE9F04167
:1041E0000646002410687529314616A510D000F047
:1041F00071F9002802DA404213A507E031688A0706
:1042000001D512A502E0490704D511A5012401E05A
:1042100000F069F900210A2206F1240709E0B0FB49
:10422000F2FCB0FBF2F302FB1C003030785418466D
:10423000491C0028F3D123462A463046BDE8F04108
:1042400000F083B9000000002D0000002B000000EA
:10425000200000002DE9F05F894604464FF0000A77
:10426000DFF874B1FB44C0F820A02046E16888471D
:10427000002874D0252806D0D4E901219047206A6F
:10428000401C2062F1E700265F462046E16888472F
:104290002028054607DB312D05D2781910F8200CAF
:1042A00008B10643F1E7B00701D526F00406C4F8CB
:1042B0001CA00027C4F818A02A2D09D0284601F018
:1042C000B9FA38B304EB8708303DC8F8185019E044
:1042D00059F8041B204604EB87029161E168884786
:1042E000012F054618D1E069002820DA26F02006C3
:1042F0001DE0D8F8180000EB800005EB40003038D6
:10430000C8F818002046E1688847054601F092FA8F
:104310000028EED1012F0AD02E2D08D12046E168C9
:1043200088477F1C0546022F46F02006C4DBA069A3
:10433000002803DA404246F00106A061F00701D0F0
:1043400026F010066C2D0BD0682D09D04C2D39D0DD
:104350006A2D35D0742D35D07A2D33D016E038E063
:10436000E1682F4620468847B842054609D16C2FA0
:1043700026D04FF48060E168064320468847054612
:1043800004E06C2F1AD04FF4807006430DB3A5F1F2
:104390004100192802D8203546F400664A462946CD
:1043A000204626604E46FBF7FDFE80B101280BD06B
:1043B000F61D26F0070000F1080956E74020E4E763
:1043C0008020D8E70020D6E706F104094DE728460B
:1043D00052E7206ABDE8F09F8C26000010B5431C10
:1043E00002E010F8011B71B18107FAD14FF00132E0
:1043F00002C88C1A8C4314EAC211F9D0C01A0A06FA
:1044000003D0C01E10BDC01A10BD0A0401D0801E0A
:1044100010BD0902FCD0401E10BD10B5203AC0F0FE
:104420000B80B1E81850203AA0E81850B1E81850B5
:10443000A0E81850BFF4F5AF5FEA027C24BFB1E8F2
:104440001850A0E8185044BF18C918C0BDE8104063
:104450005FEA827C24BF51F8043B40F8043B08BF6C
:104460007047D20728BF31F8023B48BF11F8012B33
:1044700028BF20F8023B48BF00F8012B7047704767
:1044800070477047704770B5044685690068C1067B
:1044900001D5302600E02026C00707D070BDD4E942
:1044A000012130469047206A401C20626D1EF6D5DF
:1044B00070BD70B5044685690078C00707D170BD2E
:1044C000D4E9012120209047206A401C20626D1E03
:1044D000F6D570BD09684A0501D540B27047C905D7
:1044E000FCD500B2704709684A0501D5C0B27047D3
:1044F000C905FCD580B2704770B50C460546012A47
:1045000005D02878800600D5EA69002302E001235F
:1045100005E05B1C934202D2E05C0028F9D1A86957
:10452000E618C01AA861286A184428622846FFF7CE
:10453000AAFF04E0D5E9012114F8010B9047B44229
:10454000F8D32846FFF7B5FF70BD2DE9F0470D46BB
:1045500099469246044600F124080168880604D56D
:10456000E06921F01001216000E00120A84201DD96
:10457000471B00E00027A1697A1902EB0900081A1D
:10458000A0612078C00602D42046FFF77CFF0026F9
:1045900008E0D4E901211AF806009047206A401C7F
:1045A000761C20624E45F4DB2078C0060AD52046F2
:1045B000FFF769FF06E0D4E9012130209047206A27
:1045C000401C2062381EA7F10107F4DC07E0D4E9A3
:1045D000012118F805009047206A401C2062281E1F
:1045E000A5F10105F3DC2046FFF763FF2078000604
:1045F00002D50220BDE8F0870120FBE711680268C0
:10460000006A530501D508700AE0D30501D508807A
:1046100006E0130603D5C217C1E9000200E00860F6
:104620000120704701694A1C02610878704700B593
:104630008FB0CDE901310021059105497944CDE9DB
:10464000031011466846FFF705FE0FB000BD0000DD
:10465000E5FFFFFF0A6802F8010B0A607047D1E925
:1046600000239A4202D2531C0B6010707047000066
:10467000074B70B50D467B44FFF7D9FF044628462B
:1046800000F0A6FB10B14FF0FF3070BD204670BDAA
:1046900091D4FFFF2DE9FF5F15468A460446DFF8F7
:1046A000AC80F8440027D8E900103E46CDE9001060
:1046B00010E03AF816106A4602A800F08DFB411C83
:1046C00007D02178890603D5E269391891420DD8BF
:1046D0000744761C2078800602D5E069B84205DDE3
:1046E000AE42E6DB3AF816000028E2D1A069C01B12
:1046F000A0612046FFF7C7FED8E90010CDE9001001
:10470000002017E03AF818106A4602A800F064FB8F
:10471000B0F1FF3F81460BD000250DF1080B05E0FD
:10472000D4E901211BF8050090476D1C4D45F7D3D6
:1047300008F10100B0428046E4DB206A3844206280
:104740002046FFF7B6FEBDE8FF9F00006222000092
:104750002DE9F0418046D21D22F007020025D2E962
:104760000002F52915A614D0011E72F1000106DA27
:104770000023D0EB030063EB020211A608E0D8F897
:1047800000108B0701D50FA602E0490701D50EA640
:1047900001251146002408F1240704E000F098F8F0
:1047A00030323A55641C50EA0102F7D12B463246AA
:1047B00021464046BDE8F041FFF7C7BE00000000BB
:1047C0002D0000002B0000002000000030B400216C
:1047D00000F1240408E002F00705D208303542EA6F
:1047E0004372DB086554491C52EA0305F3D104689F
:1047F000002310A2250707D5A40600D421B1C4695F
:1048000001230DA2641EC46130BCFFF79EBE10B52B
:10481000044621461068FFF766FE02462046BDE8C2
:1048200010400023D2E7D21D22F00701D1E9002376
:10483000CCE700000000000030000000F0B40D469E
:104840000188090502D5214C7C4402E01F4C7C44C0
:104850000E34002100F1240608E002F00F071209CF
:10486000E75D42EA03721B097754491C52EA0307C9
:10487000F3D102780023120704D5702D06D009B1B8
:10488000022311342246F0BCFFF75FBE012310342F
:10489000F8E770B504460D4621461068FFF723FE81
:1048A000024629462046BDE870400023C6E7D21DD7
:1048B00022F00703D3E90023C0E70368126843F03E
:1048C000200303600823C3610023B7E7C42000006E
:1048D00030B5B0F10A024FEA900E71F100034EEAD2
:1048E000817EB0EB0E0061EB91014FEA101E4EEAA3
:1048F000017E10EB0E0041EB11114FEA102E4EEA33
:10490000016E10EB0E0041EB11214FEA104E4EEA02
:10491000014E10EB0E0041EB1141401841F1000136
:104920004FEAD00040EA41704FEAD10110EB800518
:104930004FEA810444EA907444EB01046D1944EB9E
:104940000404521BA3414FF0000348BF0A3200D5B4
:1049500030BD401C41F1000130BD70472DE9FF4FD3
:104960000C461E464FF0FF378BB0D2E90001DDF850
:1049700060800A908A46C1F30A5505B93D46002178
:1049800008464FF00000BAF1000F00F4400005DACD
:1049900000EB80004FF4400101EA50004FEA9059CB
:1049A000B9F1010F00DDB9460A9850EA4A000ED06D
:1049B00044F61050A5F2FF3545432F14B8F1000F0F
:1049C0001ED07542291E1EDDC9F100021CE0B8F19F
:1049D000010F4FF0000001D0302103E0F24305E069
:1049E0002154401CB042FBDB304600220021215400
:1049F0000B99C1F80880C1E900200FB0BDE8F08F25
:104A0000BD1B6D1CDEE74A4600DA694206A800F0CD
:104A100075FA06AB93E8070003AB83E8070050463E
:104A20000A9900F02BFB8DE80700A0F500501F3815
:104A300000900398002D0ADD42F21F014A46084407
:104A4000002303A90390684600F094FD09E0A0F557
:104A500000504A461F38002303A90390684600F01F
:104A60009EFD8DE807000004000C03D04FF0FF30DE
:104A7000410800E01046B8F1000F03D00022009278
:104A800015461EE0751E05D4FFF722FF3032625531
:104A90006D1EF9D5B3460122084302D000227F1CC7
:104AA00004E02078302801D100227F1E002A0997D7
:104AB00084D01DE0112D07DAFFF70AFF303262556E
:104AC0006D1C50EA0102F5D1084302D00098C8B12C
:104AD0000EE00021681E05E0235C625C63542254F2
:104AE000401E491C8142F7DBAB46A81B401E0990C3
:104AF000002004F80B000B98099AC0F80880C0E960
:104B0000002B7AE711264FF0000857E72DE9F04F08
:104B100088460446D21D22F0070191B0D1E9000178
:104B2000CDE90A0100F072FE02460B98C00F01D0D9
:104B30002D2007E02068810701D52B2002E02021ED
:104B400001EAC000032A099001D0072A05DB0346C9
:104B50004146204600F092F90BE12078800601D50D
:104B6000E06900E00620B8F1650F814606D0B8F193
:104B7000660F18D0B8F1670F70D131E00020B9F19D
:104B8000110F009001DB112301E009F101030AAAD2
:104B900001A90CA8FFF7E2FEDDE90C70002609F17F
:104BA0000105834647E001204B4600904FF0004747
:104BB0000AAA01A90CA8FFF7D1FEDDE90DB00C99F6
:104BC0005D46002610B909F101000D18B9EB05008A
:104BD00003D4C0F1FF3609F10105A5EB09002BE074
:104BE000B9F1010F01DA4FF001090020B9F1110FFD
:104BF0000090484601DD112300E003460AAA01A9FE
:104C00000CA8FFF7ABFEDDE90C704D46002683468D
:104C1000207800070AD4AB4500DA5D4601A8012DD3
:104C200004DD411911F8011C302907D04F4502DA83
:104C300017F1040F04DA012082460FE06D1EEEE743
:104C4000002F02DCED1B3E4403E0781CA84200DD8F
:104C50007D1CB81B00F1010A4FF0004720780007C7
:104C600003D4AA4501DB4FF0FF3A0021B7F1004F12
:104C70000DF143088DF8431024D002202B23002F80
:104C800001DA7F422D230A21021EA0F1010000DC7F
:104C90005FB197FBF1FC97FBF1F201FB1C7C17461F
:104CA0000CF1300C08F801CDEEE7A8F1010003701B
:104CB0002188090501D5452100E06521A0F1010801
:104CC00000F8011C09980FA9A1EB0807FF1D00B10E
:104CD0000120411901EBEA70A1693844081A401E0D
:104CE000A0612078C00602D42046FFF7CCFB0998CB
:104CF00028B1D4E901219047206A401C2062207825
:104D0000C00622D52046FFF7BEFB1EE0002E04DBC6
:104D1000B34502DD01A8805D00E03020D4E9012127
:104D20009047206A401C2062761CAAF101005FEACD
:104D3000000A0AD100F09EF8C0680168405CD4E91E
:104D400001219047206A401C2062281EA5F1010520
:104D5000DCDC07E0D4E9012118F8010B9047206A58
:104D6000401C2062381EA7F10107F3DC2046FFF744
:104D7000A0FB032011B041E610B5436913B1AFF3B6
:104D8000008001E0FFF7B8FB012010BD127800F1B0
:104D900024010A7000224A700122EDE711684FF0E9
:104DA000FF32E9E710B5436913B1AFF3008001E0CA
:104DB000FFF770FC012010BD128800F124018284ED
:104DC0000022C2840122EDE711684FF0FF32E9E7CB
:104DD000007B00F08000704770B516460C46054613
:104DE00000F040F8036893F80101012806D0FF2C79
:104DF0000FD8185D68B101202C7070BDD3F8070181
:104E00003246214603F2071303442846BDE87040AA
:104E100018474FF0FF3070BD754600F0EBF8AE4616
:104E200005006946534620F00700854618B020B5B6
:104E3000FDF70AFABDE820404FF000064FF00007EA
:104E40004FF000084FF0000B21F00701AC46ACE832
:104E5000C009ACE8C009ACE8C009ACE8C0098D469F
:104E60007047000010B500F005F8001D10BD00BF30
:104E7000010A000000487047300300202DE9F0418E
:104E80001F46044603260168072A01F4006004DB7C
:104E900008B116A505E016A503E008B115A500E0C8
:104EA00015A521F010002060A069C01EA0610FB1FF
:104EB000401EA0612046FFF7E6FA4FB1D4E9012178
:104EC00038469047206A401C2062C01C206206E0E1
:104ED000206AFAE7D4E9012115F8010B9047761E04
:104EE000F8D22046FFF7E5FABDE8F0814E414E00CA
:104EF0006E616E00494E4600696E66002DE9F0470E
:104F0000814616468AB0354878440DC88DE80D00B4
:104F100032487844801C03AC0DC884E80D0041F68B
:104F20009B300844372190FBF1F290FBF1F5A5F19D
:104F3000800501FB12041B3C02D56442012000E005
:104F40000020DFF898A080460027FA44AAF1BE0AA4
:104F50000EE0E0070AD03246684607EB470101231E
:104F60000AEB810100F01BFB8DE8070064107F1C39
:104F7000002CEED1194F7F44AE3F19E0E80715D061
:104F800007EB04100DF1180A90E80E008AE80E00F5
:104F9000C068F04201D1981908903246012306A951
:104FA00003A800F0FCFA03AB83E807006D10641C53
:104FB000002DE3D14FF0010332466946B8F1000FEE
:104FC00003A802D000F0D6FA01E000F0E8FAC9E93F
:104FD0000001C9F808200AB0BDE8F087A81A00004F
:104FE00010B50446AFF300802046BDE81040FBF743
:104FF0003CB9000000487047100300204FF0013C0E
:1050000050F8042B51F8043B9A4221D1A2EB0C0337
:10501000934313EACC1317D150F8042B51F8043BF7
:105020009A4215D1A2EB0C03934313EACC130BD194
:1050300050F8042B51F8043B9A4209D1A2EB0C031F
:10504000934313EACC13DBD04FF00000704700BF4E
:10505000D01A01BAB1FA81F101F0180122FA01F077
:10506000CB40C1F12001DBB2C0B2C01A2CFA01F36F
:10507000D11A914311EAC311E6D170475FEA400C9F
:1050800008BF91F0000F4FEA8C234FEAC12243EA98
:1050900051514FEA1C5018BF00F5F0404FEA300064
:1050A00018BF41F000415FEA6C5C00F02980BCF160
:1050B000FF3F08BF40F080407047130C06BF12044A
:1050C0004FF0100C4FF0000C130E04BF12020CF145
:1050D000080C130F04BF12010CF1040C930F04BF52
:1050E00092000CF1020CD30F04BF52000CF1010C22
:1050F00011464FF00002A0F11F00A0EB0C0070471A
:1051000011F0004F08BF704731F000413FF4D5AFB8
:105110000B0C06BF09044FF0100C4FF0000C0B0EE7
:1051200004BF09020CF1080C0B0F04BF09010CF1BC
:10513000040C8B0F04BF89000CF1020CCB0F04BFD1
:1051400049000CF1010CCCF12003A0EB0C0022FA79
:1051500003F302FA0CF241EA030100F10100704787
:1051600020F07F4C80EA030023F07F47ACEB07037D
:1051700003F57C5300F0004003F1FF032DE9804963
:105180004FEA154B09B44FEA144325EA0B4E24EAC3
:1051900003480FF2042606EB132749083E785FEA1E
:1051A000320203FB0667C7F5000707FB06F64FEA66
:1051B00054374FEAD64606F1020607FB066CCCF1DF
:1051C000005C4FEA1C472CEA074C07FB06F40CFB7B
:1051D00006F504EB15464FEA961634BF00204FF053
:1051E00000404FEAD13706FB07FC4FEA1C4C0CFB92
:1051F0000BF7D21B03FB0CF761EB07010CFB0EF75F
:10520000B0EB074072EB17420CFB08F734BFA2EB80
:105210000742B2EB074261EB17414FEA0C444FEAF9
:10522000910706FB07FC4FEA1C4C0CFB0BF7B0EB9D
:10523000C74072EB573203FB0CF734BFA2EBC742F7
:10524000B2EBC74261EB57310CFB0EF7B0EBC70076
:1052500072EB57720CFB08F734BFA2EBC702B2EB3C
:10526000C70261EB5771039F4FEA816141EA9211D6
:1052700004EBCC044FEAD1374FEA826206FB07FC0D
:1052800042EA90124FEA80604FEA1C4C0CFB0BF78D
:10529000D21B03FB0CF761EB07010CFB0EF7B0EB25
:1052A000074072EB17420CFB08F734BFA2EB074232
:1052B000B2EB074261EB17414FEA8C554FEA910779
:1052C00004EB9C2406FB07FC4FEA1C4C0CFB0BF781
:1052D000B0EBC74072EB573203FB0CF734BFA2EBC5
:1052E000C742B2EBC74261EB57310CFB0EF7B0EB94
:1052F000C70072EB57720CFB08F734BFA2EBC70272
:10530000B2EBC70261EB577115EB4C254FEA816197
:1053100041EA92114FEA82624FEAD13742EA901293
:1053200006FB07FC44F100044FEA80604FEA1C4C86
:105330000CFB0BF7D21B03FB0CF761EB07010CFB1B
:105340000EF7B0EB074072EB17420CFB08F734BFC7
:10535000A2EB0742B2EB074261EB174115EB1C15BC
:105360004FEA813141EA92414FEA823242EA904269
:105370004FEA80304FEA0C7644F1000448EA0343D8
:105380004EEA0B484FF0000EB2EB080C71EB03072E
:1053900024BF624639464EEB0E0E4FF0000B00184C
:1053A000524149414BEB0B0BB2EB080C71EB03077D
:1053B0007BF1000B24BF624639464EEB0E0E4FF0D8
:1053C000000B0018524149414BEB0B0BB2EB080CA0
:1053D00071EB03077BF1000B24BF624639464EEBAD
:1053E0000E0E51EA020718BF46F0010616EB0E76C4
:1053F00055F1000254F1000103D5BDE88901BDE873
:105400000088BDE88901BDE80048B619524141EB6A
:105410000101A3F10103704780807F7E7D7C7B7A50
:105420007978777676757473727171706F6E6E6D50
:105430006C6C6B6A6A6968686766666564646363F6
:1054400062616160605F5F5E5E5D5D5C5C5B5B5A7C
:105450005A595958585757565655555554545353E9
:1054600052525251515050504F4F4F4E4E4D4D4D44
:105470004C4C4C4B4B4B4A4A4A494949484848478F
:1054800047474746464645454544444444434343CD
:105490004342424242414141002B9C4630D4770076
:1054A0002BD01CB54FEA370703B44FF010004FF074
:1054B0001001BAF1000F06D0BCF1000FDCBF40F0C4
:1054C000080040F008014FF000000FBCBDE810409C
:1054D0000BF1010BBBF1010F08BF5FEA170722BFF9
:1054E00012F1010211F101014FF0004143F10003FB
:1054F00000F0004043EA00007047F9D35708D0E7B6
:1055000046EA064613F1400F4FEA16461FDD13F137
:10551000200FDFBF16430A46002120335B42BED076
:10552000C3F1200746EA064602FA07F74FEA164695
:1055300046EA0706C3F1200722FA03F201FA07F749
:1055400021FA03F14FF0000342EA0702A7E746EA17
:10555000020646EA06464FEA164646EA0106BCBF80
:1055600046EA0646360C4FF000034FF000024FF0BB
:10557000000194E72DE9804C9A46934670B491E877
:10558000380007C831EA400C48BF34EA430C03D561
:10559000FFF7E6FDFFF780FFF0BCBDE8008C2DE9CA
:1055A000804C9A46934670B491E8380007C810F0D2
:1055B000804F08BF13F0804F03D100F005F8FFF7CC
:1055C0006BFFF0BCBDE8008C20F07F4780EA030051
:1055D00023F07F4C07EB0C03A3F57C5300F0004055
:1055E000A3F1FE0392F0000F00F0B38095F0000FDE
:1055F00000F077802DE901494FEA11404FEA144647
:1056000021EA004800FB06FC24EA064708FB06F6F0
:1056100007FB08F800FB07F718EB06484CEB164CA5
:105620004FEA124B18EB07484FEA15464CEB174070
:1056300022EA0B4E0BFB06FC25EA06470EFB06F69C
:1056400007FB0EFE0BFB07F71EEB064E4CEB164C52
:105650004FF000061EEB074E4CEB174B18EB0B08F8
:1056600040F1000018EB0E0B58EB000840F1000071
:105670008F1A4FF000013CBFC943661B14BFB5EB46
:10568000040C00213CBFC943F61B4FEA17444EEA05
:105690008E0E27EA04454FEA1C4704FB07622CEAFA
:1056A000074C05FB07F70CFB05F604FB0CFC16EB9F
:1056B000074642EB174216EB0C4642EB1C421BEB33
:1056C000060658EB0202414146EA9E0601D5BDE8B6
:1056D0000189B619524141EB0101A3F10103BDE873
:1056E00001894FEA14454FEA114724EA054621EAA9
:1056F000074C05FB07F406FB07F70CFB06F105FB5F
:105700000CFC11EB074144EB17444FEA124711EB35
:105710000C4144EB1C4422EA074C05FB07F206FB54
:1057200007F70CFB06F605FB0CFC16EB074642EBF5
:10573000174216EB0C4642EB1C456A1854F1000167
:1057400048BF7047B619524141EB0101A3F1010373
:10575000704795F0000F37D04FEA11424FEA1447D7
:1057600021EA024624EA074C02FB07F106FB07F791
:105770000CFB06F402FB0CFC14EB074441EB174155
:105780004FEA154714EB0C4441EB1C4125EA074C4A
:1057900002FB07F506FB07F70CFB06F602FB0CFC09
:1057A00016EB074645EB174516EB0C4645EB1C423E
:1057B000121951F1000148BF7047B619524141EB2F
:1057C0000101A3F1010370474FEA14454FEA114765
:1057D00024EA054621EA074C05FB07F106FB07F71B
:1057E0000CFB06F24FF0000605FB0CFC12EB074227
:1057F00041EB174112EB0C4251EB1C4148BF704783
:10580000921841EB0101A3F101037047490050EAEE
:10581000C12018BF04204A0D18BF40F0010040F21B
:10582000FF72B2EB515F08BF40F00200012808BFD1
:105830000520704730380A2801D201207047002027
:105840007047000010B500290AD00878002807D05A
:1058500005487844FFF7D2FB002801D0002010BD96
:105860000248784410BD0000E2110000DA11000087
:1058700010B500290AD00878002807D005487844D8
:10588000FFF7BCFB002801D0002010BD024878447F
:1058900010BD0000D2110000CA11000010B591EA3D
:1058A000030F48BF83F0004300F10082841A71EBBC
:1058B000030C05D2121943EB0C03001B61EB0C0126
:1058C000DFF824E14FEA1154A4EB135C1EEA430F06
:1058D00018BF9EEA445F73D023EA0E03DCF1200E6A
:1058E00021EA045143F4801332D322FA0CFE10EB68
:1058F0000E0023FA0CFE41EB0E01CCF1200E03FA50
:105900000EFE10EB0E0051F10001B1F5801FCCF13D
:10591000200E32D201EB045112FA0EF2BDE8104013
:1059200058BF7047401C38BF5FEA420218BF70473B
:10593000002814BF20F0010041F100014FEA4103AB
:1059400013F5001F38BF7047A1F1C04100F0A0B9A6
:10595000012A43EB0302ACF1200CDCF11F0E32BF35
:105960004FF0000E23FA0CF310EB030041EB04514F
:10597000B4EB115FD0D0A1EB045101F580114908BF
:105980005FEA300001EB04510ED350F1000038BF44
:1059900012FA0EFE08D1BDE81040C9E7401C38BF1E
:1059A0005FEA4202CAD1C3E7BDE810404FEA4103B3
:1059B00013F5001F38BF7047A1F1C04100F068B96E
:1059C0009EEA445F08D011EA5E0FBDE8104004BFB4
:1059D00001F0004100207047BDE8104070B500F0B4
:1059E00009F900BF64FBBE3E0000E0FF4FEA41033F
:1059F0004FEA5353A3F58063D3F11E03C8BFD3F11D
:105A0000210C0CDD4FF0004242EAC12242EA505222
:105A100032FA03FC8CEAE17CACEBE1707047102BAE
:105A2000C4BF0020704703F5787CBCF1FF3F04D071
:105A30006FF0004282EA2100704770B500F0DAF89A
:105A40004992248000207047F2E710F0004248BFDE
:105A50004042B0FA80F310FA03F10AD0C3F11D03FB
:105A600003F580634FEA415002EB035202EBD12170
:105A700070474FF000007047B0FA80F310FA03F15E
:105A80000AD0C3F11D0303F580634FEA41504FEA8A
:105A9000035202EBD12170474FF000007047000025
:105AA000DFF848C170B51CEA111E1EBF1CEA1315B1
:105AB0009EEA0C0F95EA0C0F00F06F8081EA030458
:105AC00023EA4C134EEAD47E21EA4C1141F48011B2
:105AD00043F48013AE44A1FB024CA0FB0365AEF17E
